{
  "_format": "hh-sol-artifact-1",
  "contractName": "Footsteps",
  "sourceName": "contracts/Game.sol",
  "abi": [
    {
      "inputs": [
        {
          "internalType": "address",
          "name": "_verifier",
          "type": "address"
        }
      ],
      "stateMutability": "payable",
      "type": "constructor"
    },
    {
      "inputs": [
        {
          "internalType": "address",
          "name": "player",
          "type": "address"
        }
      ],
      "name": "AlreadyRegistered",
      "type": "error"
    },
    {
      "inputs": [],
      "name": "InvalidProof",
      "type": "error"
    },
    {
      "inputs": [
        {
          "internalType": "uint256",
          "name": "",
          "type": "uint256"
        },
        {
          "internalType": "uint256",
          "name": "",
          "type": "uint256"
        }
      ],
      "name": "Area",
      "outputs": [
        {
          "internalType": "uint256",
          "name": "position",
          "type": "uint256"
        }
      ],
      "stateMutability": "view",
      "type": "function"
    },
    {
      "inputs": [
        {
          "internalType": "uint256",
          "name": "LoogieId",
          "type": "uint256"
        },
        {
          "internalType": "uint256[2]",
          "name": "a",
          "type": "uint256[2]"
        },
        {
          "internalType": "uint256[2][2]",
          "name": "b",
          "type": "uint256[2][2]"
        },
        {
          "internalType": "uint256[2]",
          "name": "c",
          "type": "uint256[2]"
        },
        {
          "internalType": "uint256[1]",
          "name": "input",
          "type": "uint256[1]"
        }
      ],
      "name": "Register",
      "outputs": [],
      "stateMutability": "nonpayable",
      "type": "function"
    },
    {
      "inputs": [],
      "name": "height",
      "outputs": [
        {
          "internalType": "uint256",
          "name": "",
          "type": "uint256"
        }
      ],
      "stateMutability": "view",
      "type": "function"
    },
    {
      "inputs": [
        {
          "internalType": "address",
          "name": "",
          "type": "address"
        }
      ],
      "name": "loogies",
      "outputs": [
        {
          "internalType": "uint256",
          "name": "",
          "type": "uint256"
        }
      ],
      "stateMutability": "view",
      "type": "function"
    },
    {
      "inputs": [],
      "name": "loogiescontract",
      "outputs": [
        {
          "internalType": "contract LoogiesContract",
          "name": "",
          "type": "address"
        }
      ],
      "stateMutability": "view",
      "type": "function"
    },
    {
      "inputs": [
        {
          "internalType": "uint256",
          "name": "",
          "type": "uint256"
        }
      ],
      "name": "players",
      "outputs": [
        {
          "internalType": "address",
          "name": "player",
          "type": "address"
        },
        {
          "internalType": "uint256",
          "name": "health",
          "type": "uint256"
        }
      ],
      "stateMutability": "view",
      "type": "function"
    },
    {
      "inputs": [],
      "name": "verifier",
      "outputs": [
        {
          "internalType": "address",
          "name": "",
          "type": "address"
        }
      ],
      "stateMutability": "view",
      "type": "function"
    },
    {
      "inputs": [],
      "name": "width",
      "outputs": [
        {
          "internalType": "uint256",
          "name": "",
          "type": "uint256"
        }
      ],
      "stateMutability": "view",
      "type": "function"
    }
  ],
  "bytecode": "0x6080604052604051610e10380380610e1083398181016040528101906100259190610065565b600160009054906101000a900473ffffffffffffffffffffffffffffffffffffffff169050506100d7565b60008151905061005f816100c0565b92915050565b60006020828403121561007757600080fd5b600061008584828501610050565b91505092915050565b6000610099826100a0565b9050919050565b600073ffffffffffffffffffffffffffffffffffffffff82169050919050565b6100c98161008e565b81146100d457600080fd5b50565b610d2a806100e66000396000f3fe608060405234801561001057600080fd5b50600436106100885760003560e01c8063c02650601161005b578063c026506014610105578063c593935c14610135578063e4342fa014610151578063f71d96cb1461018157610088565b80630ef267431461008d5780632b7ac3f3146100ab578063800958a5146100c95780639ededf77146100e7575b600080fd5b6100956101b2565b6040516100a29190610a8e565b60405180910390f35b6100b36101b7565b6040516100c091906109e8565b60405180910390f35b6100d16101dd565b6040516100de9190610a73565b60405180910390f35b6100ef610201565b6040516100fc9190610a8e565b60405180910390f35b61011f600480360381019061011a91906107e4565b610206565b60405161012c9190610a8e565b60405180910390f35b61014f600480360381019061014a919061076b565b61023a565b005b61016b600480360381019061016691906106f0565b6104a7565b6040516101789190610a8e565b60405180910390f35b61019b60048036038101906101969190610742565b6104bf565b6040516101a9929190610a03565b60405180910390f35b600a81565b600160009054906101000a900473ffffffffffffffffffffffffffffffffffffffff1681565b60008054906101000a900473ffffffffffffffffffffffffffffffffffffffff1681565b600a81565b600282600a811061021657600080fd5b600a020181600a811061022857600080fd5b01600091509150508060000154905081565b60011515600160009054906101000a900473ffffffffffffffffffffffffffffffffffffffff1673ffffffffffffffffffffffffffffffffffffffff166343753b4d868686866040518563ffffffff1660e01b815260040161029f9493929190610a2c565b60206040518083038186803b1580156102b757600080fd5b505afa1580156102cb573d6000803e3d6000fd5b505050506040513d601f19601f820116820180604052508101906102ef9190610719565b151514610328576040517f09bde33900000000000000000000000000000000000000000000000000000000815260040160405180910390fd5b6000606760003373ffffffffffffffffffffffffffffffffffffffff1673ffffffffffffffffffffffffffffffffffffffff16815260200190815260200160002054146103ac57336040517f45ed80e90000000000000000000000000000000000000000000000000000000081526004016103a391906109e8565b60405180910390fd5b600060405180604001604052803373ffffffffffffffffffffffffffffffffffffffff16815260200160648152509050606681908060018154018082558091505060019003906000526020600020906002020160009091909190915060008201518160000160006101000a81548173ffffffffffffffffffffffffffffffffffffffff021916908373ffffffffffffffffffffffffffffffffffffffff16021790555060208201518160010155505085606760003373ffffffffffffffffffffffffffffffffffffffff1673ffffffffffffffffffffffffffffffffffffffff16815260200190815260200160002081905550505050505050565b60676020528060005260406000206000915090505481565b606681815481106104cf57600080fd5b90600052602060002090600202016000915090508060000160009054906101000a900473ffffffffffffffffffffffffffffffffffffffff16908060010154905082565b600061052661052184610ace565b610aa9565b9050808285604086028201111561053c57600080fd5b60005b8581101561056c5781610552888261069f565b84526020840193506040830192505060018101905061053f565b5050509392505050565b600061058961058484610af4565b610aa9565b9050808285602086028201111561059f57600080fd5b60005b858110156105cf57816105b588826106db565b8452602084019350602083019250506001810190506105a2565b5050509392505050565b60006105ec6105e784610b1a565b610aa9565b9050808285602086028201111561060257600080fd5b60005b85811015610632578161061888826106db565b845260208401935060208301925050600181019050610605565b5050509392505050565b60008135905061064b81610caf565b92915050565b600082601f83011261066257600080fd5b600261066f848285610513565b91505092915050565b600082601f83011261068957600080fd5b6001610696848285610576565b91505092915050565b600082601f8301126106b057600080fd5b60026106bd8482856105d9565b91505092915050565b6000815190506106d581610cc6565b92915050565b6000813590506106ea81610cdd565b92915050565b60006020828403121561070257600080fd5b60006107108482850161063c565b91505092915050565b60006020828403121561072b57600080fd5b6000610739848285016106c6565b91505092915050565b60006020828403121561075457600080fd5b6000610762848285016106db565b91505092915050565b6000806000806000610140868803121561078457600080fd5b6000610792888289016106db565b95505060206107a38882890161069f565b94505060606107b488828901610651565b93505060e06107c58882890161069f565b9250506101206107d788828901610678565b9150509295509295909350565b600080604083850312156107f757600080fd5b6000610805858286016106db565b9250506020610816858286016106db565b9150509250929050565b600061082c838361090d565b60408301905092915050565b600061084483836109ca565b60208301905092915050565b61085981610bd2565b82525050565b61086881610b5e565b6108728184610ba6565b925061087d82610b40565b8060005b838110156108ae5781516108958782610820565b96506108a083610b7f565b925050600181019050610881565b505050505050565b6108bf81610b69565b6108c98184610bb1565b92506108d482610b4a565b8060005b838110156109055781516108ec8782610838565b96506108f783610b8c565b9250506001810190506108d8565b505050505050565b61091681610b74565b6109208184610bbc565b925061092b82610b54565b8060005b8381101561095c5781516109438782610838565b965061094e83610b99565b92505060018101905061092f565b505050505050565b61096d81610b74565b6109778184610bc7565b925061098282610b54565b8060005b838110156109b357815161099a8782610838565b96506109a583610b99565b925050600181019050610986565b505050505050565b6109c481610c1a565b82525050565b6109d381610c10565b82525050565b6109e281610c10565b82525050565b60006020820190506109fd6000830184610850565b92915050565b6000604082019050610a186000830185610850565b610a2560208301846109d9565b9392505050565b600061012082019050610a426000830187610964565b610a4f604083018661085f565b610a5c60c0830185610964565b610a6a6101008301846108b6565b95945050505050565b6000602082019050610a8860008301846109bb565b92915050565b6000602082019050610aa360008301846109d9565b92915050565b6000610ab3610ac4565b9050610abf8282610c3e565b919050565b6000604051905090565b600067ffffffffffffffff821115610ae957610ae8610c6f565b5b602082029050919050565b600067ffffffffffffffff821115610b0f57610b0e610c6f565b5b602082029050919050565b600067ffffffffffffffff821115610b3557610b34610c6f565b5b602082029050919050565b6000819050919050565b6000819050919050565b6000819050919050565b600060029050919050565b600060019050919050565b600060029050919050565b6000602082019050919050565b6000602082019050919050565b6000602082019050919050565b600081905092915050565b600081905092915050565b600081905092915050565b600081905092915050565b6000610bdd82610bf0565b9050919050565b60008115159050919050565b600073ffffffffffffffffffffffffffffffffffffffff82169050919050565b6000819050919050565b6000610c2582610c2c565b9050919050565b6000610c3782610bf0565b9050919050565b610c4782610c9e565b810181811067ffffffffffffffff82111715610c6657610c65610c6f565b5b80604052505050565b7f4e487b7100000000000000000000000000000000000000000000000000000000600052604160045260246000fd5b6000601f19601f8301169050919050565b610cb881610bd2565b8114610cc357600080fd5b50565b610ccf81610be4565b8114610cda57600080fd5b50565b610ce681610c10565b8114610cf157600080fd5b5056fea26469706673582212205e8c2ecbb4520f74a14c34fd5a97dffa2b37959229905c42a862c463fff6a91d64736f6c63430008040033",
  "linkReferences": {},
  "deployedLinkReferences": {}
}