{
  "_format": "hh-sol-artifact-1",
  "contractName": "Footsteps",
  "sourceName": "contracts/Game.sol",
  "abi": [
    {
      "inputs": [
        {
          "internalType": "address",
          "name": "_registerverifier",
          "type": "address"
        },
        {
          "internalType": "address",
          "name": "_moveverifier",
          "type": "address"
        },
        {
          "internalType": "address",
          "name": "_defendverifier",
          "type": "address"
        }
      ],
      "stateMutability": "payable",
      "type": "constructor"
    },
    {
      "inputs": [
        {
          "internalType": "address",
          "name": "player",
          "type": "address"
        }
      ],
      "name": "AlreadyRegistered",
      "type": "error"
    },
    {
      "inputs": [],
      "name": "InvalidProof",
      "type": "error"
    },
    {
      "anonymous": false,
      "inputs": [
        {
          "indexed": true,
          "internalType": "address",
          "name": "player",
          "type": "address"
        },
        {
          "indexed": false,
          "internalType": "bool",
          "name": "moved",
          "type": "bool"
        }
      ],
      "name": "move",
      "type": "event"
    },
    {
      "anonymous": false,
      "inputs": [
        {
          "indexed": true,
          "internalType": "address",
          "name": "player",
          "type": "address"
        },
        {
          "indexed": false,
          "internalType": "bool",
          "name": "registered",
          "type": "bool"
        }
      ],
      "name": "register",
      "type": "event"
    },
    {
      "inputs": [
        {
          "internalType": "uint256",
          "name": "",
          "type": "uint256"
        },
        {
          "internalType": "uint256",
          "name": "",
          "type": "uint256"
        }
      ],
      "name": "Area",
      "outputs": [
        {
          "internalType": "uint256",
          "name": "position",
          "type": "uint256"
        }
      ],
      "stateMutability": "view",
      "type": "function"
    },
    {
      "inputs": [
        {
          "internalType": "address",
          "name": "player",
          "type": "address"
        },
        {
          "internalType": "uint256",
          "name": "x",
          "type": "uint256"
        },
        {
          "internalType": "uint256",
          "name": "y",
          "type": "uint256"
        }
      ],
      "name": "AttackPlayer",
      "outputs": [],
      "stateMutability": "nonpayable",
      "type": "function"
    },
    {
      "inputs": [
        {
          "internalType": "uint256[2]",
          "name": "a",
          "type": "uint256[2]"
        },
        {
          "internalType": "uint256[2][2]",
          "name": "b",
          "type": "uint256[2][2]"
        },
        {
          "internalType": "uint256[2]",
          "name": "c",
          "type": "uint256[2]"
        },
        {
          "internalType": "uint256[3]",
          "name": "input",
          "type": "uint256[3]"
        }
      ],
      "name": "Defend",
      "outputs": [],
      "stateMutability": "nonpayable",
      "type": "function"
    },
    {
      "inputs": [
        {
          "internalType": "uint256[2]",
          "name": "a",
          "type": "uint256[2]"
        },
        {
          "internalType": "uint256[2][2]",
          "name": "b",
          "type": "uint256[2][2]"
        },
        {
          "internalType": "uint256[2]",
          "name": "c",
          "type": "uint256[2]"
        },
        {
          "internalType": "uint256[3]",
          "name": "input",
          "type": "uint256[3]"
        }
      ],
      "name": "Move",
      "outputs": [],
      "stateMutability": "nonpayable",
      "type": "function"
    },
    {
      "inputs": [
        {
          "internalType": "uint256",
          "name": "LoogieId",
          "type": "uint256"
        },
        {
          "internalType": "uint256[2]",
          "name": "a",
          "type": "uint256[2]"
        },
        {
          "internalType": "uint256[2][2]",
          "name": "b",
          "type": "uint256[2][2]"
        },
        {
          "internalType": "uint256[2]",
          "name": "c",
          "type": "uint256[2]"
        },
        {
          "internalType": "uint256[2]",
          "name": "input",
          "type": "uint256[2]"
        }
      ],
      "name": "Register",
      "outputs": [],
      "stateMutability": "nonpayable",
      "type": "function"
    },
    {
      "inputs": [
        {
          "internalType": "uint256",
          "name": "",
          "type": "uint256"
        }
      ],
      "name": "activeplayers",
      "outputs": [
        {
          "internalType": "address",
          "name": "",
          "type": "address"
        }
      ],
      "stateMutability": "view",
      "type": "function"
    },
    {
      "inputs": [
        {
          "internalType": "address",
          "name": "",
          "type": "address"
        }
      ],
      "name": "attacks",
      "outputs": [
        {
          "internalType": "uint256",
          "name": "xguess",
          "type": "uint256"
        },
        {
          "internalType": "uint256",
          "name": "yguess",
          "type": "uint256"
        },
        {
          "internalType": "bool",
          "name": "active",
          "type": "bool"
        },
        {
          "internalType": "address",
          "name": "attacker",
          "type": "address"
        }
      ],
      "stateMutability": "view",
      "type": "function"
    },
    {
      "inputs": [],
      "name": "height",
      "outputs": [
        {
          "internalType": "uint256",
          "name": "",
          "type": "uint256"
        }
      ],
      "stateMutability": "view",
      "type": "function"
    },
    {
      "inputs": [
        {
          "internalType": "address",
          "name": "",
          "type": "address"
        }
      ],
      "name": "loogies",
      "outputs": [
        {
          "internalType": "uint256",
          "name": "",
          "type": "uint256"
        }
      ],
      "stateMutability": "view",
      "type": "function"
    },
    {
      "inputs": [],
      "name": "loogiescontract",
      "outputs": [
        {
          "internalType": "contract LoogiesContract",
          "name": "",
          "type": "address"
        }
      ],
      "stateMutability": "view",
      "type": "function"
    },
    {
      "inputs": [],
      "name": "moveverifier",
      "outputs": [
        {
          "internalType": "address",
          "name": "",
          "type": "address"
        }
      ],
      "stateMutability": "view",
      "type": "function"
    },
    {
      "inputs": [
        {
          "internalType": "address",
          "name": "",
          "type": "address"
        }
      ],
      "name": "players",
      "outputs": [
        {
          "internalType": "address",
          "name": "player",
          "type": "address"
        },
        {
          "internalType": "uint256",
          "name": "health",
          "type": "uint256"
        },
        {
          "internalType": "uint256",
          "name": "location",
          "type": "uint256"
        },
        {
          "internalType": "uint256",
          "name": "zone",
          "type": "uint256"
        }
      ],
      "stateMutability": "view",
      "type": "function"
    },
    {
      "inputs": [],
      "name": "registerverifier",
      "outputs": [
        {
          "internalType": "address",
          "name": "",
          "type": "address"
        }
      ],
      "stateMutability": "view",
      "type": "function"
    },
    {
      "inputs": [],
      "name": "verifierdefend",
      "outputs": [
        {
          "internalType": "address",
          "name": "",
          "type": "address"
        }
      ],
      "stateMutability": "view",
      "type": "function"
    },
    {
      "inputs": [],
      "name": "width",
      "outputs": [
        {
          "internalType": "uint256",
          "name": "",
          "type": "uint256"
        }
      ],
      "stateMutability": "view",
      "type": "function"
    }
  ],
  "bytecode": "0x6080604052604051620028bf380380620028bf83398181016040528101906200002991906200010c565b82600260006101000a81548173ffffffffffffffffffffffffffffffffffffffff021916908373ffffffffffffffffffffffffffffffffffffffff16021790555081600360006101000a81548173ffffffffffffffffffffffffffffffffffffffff021916908373ffffffffffffffffffffffffffffffffffffffff16021790555080600460006101000a81548173ffffffffffffffffffffffffffffffffffffffff021916908373ffffffffffffffffffffffffffffffffffffffff160217905550505050620001b0565b600081519050620001068162000196565b92915050565b6000806000606084860312156200012257600080fd5b60006200013286828701620000f5565b93505060206200014586828701620000f5565b92505060406200015886828701620000f5565b9150509250925092565b60006200016f8262000176565b9050919050565b600073ffffffffffffffffffffffffffffffffffffffff82169050919050565b620001a18162000162565b8114620001ad57600080fd5b50565b6126ff80620001c06000396000f3fe608060405234801561001057600080fd5b50600436106100f55760003560e01c80638ce635de11610097578063b53c99f611610066578063b53c99f614610263578063c026506014610281578063e2eb41ff146102b1578063e4342fa0146102e4576100f5565b80638ce635de146101f15780638df07ee41461020d5780639ededf7714610229578063ac641e0c14610247576100f5565b8063318e8b30116100d3578063318e8b301461016957806349ee838714610187578063800958a5146101b75780638b812ae1146101d5576100f5565b806306e78130146100fa5780630e331afa1461012d5780630ef267431461014b575b600080fd5b610114600480360381019061010f9190611ab5565b610314565b60405161012494939291906121c7565b60405180910390f35b610135610371565b6040516101429190611f88565b60405180910390f35b610153610397565b60405161016091906121ac565b60405180910390f35b61017161039c565b60405161017e9190611f88565b60405180910390f35b6101a1600480360381019061019c9190611bbb565b6103c2565b6040516101ae9190611f88565b60405180910390f35b6101bf610401565b6040516101cc9190612091565b60405180910390f35b6101ef60048036038101906101ea9190611b2d565b610427565b005b61020b60048036038101906102069190611ade565b610efe565b005b61022760048036038101906102229190611b2d565b611053565b005b6102316113eb565b60405161023e91906121ac565b60405180910390f35b610261600480360381019061025c9190611be4565b6113f0565b005b61026b611816565b6040516102789190611f88565b60405180910390f35b61029b60048036038101906102969190611c5d565b61183c565b6040516102a891906121ac565b60405180910390f35b6102cb60048036038101906102c69190611ab5565b611870565b6040516102db9493929190611fa3565b60405180910390f35b6102fe60048036038101906102f99190611ab5565b6118c0565b60405161030b91906121ac565b60405180910390f35b60056020528060005260406000206000915090508060000154908060010154908060020160009054906101000a900460ff16908060020160019054906101000a900473ffffffffffffffffffffffffffffffffffffffff16905084565b600360009054906101000a900473ffffffffffffffffffffffffffffffffffffffff1681565b600a81565b600260009054906101000a900473ffffffffffffffffffffffffffffffffffffffff1681565b606b81815481106103d257600080fd5b906000526020600020016000915054906101000a900473ffffffffffffffffffffffffffffffffffffffff1681565b600160009054906101000a900473ffffffffffffffffffffffffffffffffffffffff1681565b60011515600460009054906101000a900473ffffffffffffffffffffffffffffffffffffffff1673ffffffffffffffffffffffffffffffffffffffff166311479fea868686866040518563ffffffff1660e01b815260040161048c949392919061202f565b60206040518083038186803b1580156104a457600080fd5b505afa1580156104b8573d6000803e3d6000fd5b505050506040513d601f19601f820116820180604052508101906104dc9190611b92565b15151461051e576040517f08c379a00000000000000000000000000000000000000000000000000000000081526004016105159061218c565b60405180910390fd5b60011515600560003373ffffffffffffffffffffffffffffffffffffffff1673ffffffffffffffffffffffffffffffffffffffff16815260200190815260200160002060020160009054906101000a900460ff161515146105b4576040517f08c379a00000000000000000000000000000000000000000000000000000000081526004016105ab9061216c565b60405180910390fd5b6000803373ffffffffffffffffffffffffffffffffffffffff1673ffffffffffffffffffffffffffffffffffffffff1681526020019081526020016000206002015481600060038110610630577f4e487b7100000000000000000000000000000000000000000000000000000000600052603260045260246000fd5b602002015114610675576040517f08c379a000000000000000000000000000000000000000000000000000000000815260040161066c906120ec565b60405180910390fd5b600560003373ffffffffffffffffffffffffffffffffffffffff1673ffffffffffffffffffffffffffffffffffffffff16815260200190815260200160002060000154816001600381106106f2577f4e487b7100000000000000000000000000000000000000000000000000000000600052603260045260246000fd5b602002015114610737576040517f08c379a000000000000000000000000000000000000000000000000000000000815260040161072e9061210c565b60405180910390fd5b600560003373ffffffffffffffffffffffffffffffffffffffff1673ffffffffffffffffffffffffffffffffffffffff16815260200190815260200160002060010154816002600381106107b4577f4e487b7100000000000000000000000000000000000000000000000000000000600052603260045260246000fd5b6020020151146107f9576040517f08c379a00000000000000000000000000000000000000000000000000000000081526004016107f09061210c565b60405180910390fd5b600080600560003373ffffffffffffffffffffffffffffffffffffffff1673ffffffffffffffffffffffffffffffffffffffff16815260200190815260200160002060020160019054906101000a900473ffffffffffffffffffffffffffffffffffffffff1673ffffffffffffffffffffffffffffffffffffffff1673ffffffffffffffffffffffffffffffffffffffff168152602001908152602001600020600101546000803373ffffffffffffffffffffffffffffffffffffffff1673ffffffffffffffffffffffffffffffffffffffff168152602001908152602001600020600101541115610ba3576002600080600560003373ffffffffffffffffffffffffffffffffffffffff1673ffffffffffffffffffffffffffffffffffffffff16815260200190815260200160002060020160019054906101000a900473ffffffffffffffffffffffffffffffffffffffff1673ffffffffffffffffffffffffffffffffffffffff1673ffffffffffffffffffffffffffffffffffffffff16815260200190815260200160002060010154610995919061239c565b6000803373ffffffffffffffffffffffffffffffffffffffff1673ffffffffffffffffffffffffffffffffffffffff16815260200190815260200160002060010160008282546109e59190612346565b925050819055506002600080600560003373ffffffffffffffffffffffffffffffffffffffff1673ffffffffffffffffffffffffffffffffffffffff16815260200190815260200160002060020160019054906101000a900473ffffffffffffffffffffffffffffffffffffffff1673ffffffffffffffffffffffffffffffffffffffff1673ffffffffffffffffffffffffffffffffffffffff16815260200190815260200160002060010154610a9c919061239c565b600080600560003373ffffffffffffffffffffffffffffffffffffffff1673ffffffffffffffffffffffffffffffffffffffff16815260200190815260200160002060020160019054906101000a900473ffffffffffffffffffffffffffffffffffffffff1673ffffffffffffffffffffffffffffffffffffffff1673ffffffffffffffffffffffffffffffffffffffff168152602001908152602001600020600101819055506000600560003373ffffffffffffffffffffffffffffffffffffffff1673ffffffffffffffffffffffffffffffffffffffff16815260200190815260200160002060020160006101000a81548160ff021916908315150217905550610ef8565b600080600560003373ffffffffffffffffffffffffffffffffffffffff1673ffffffffffffffffffffffffffffffffffffffff16815260200190815260200160002060020160019054906101000a900473ffffffffffffffffffffffffffffffffffffffff1673ffffffffffffffffffffffffffffffffffffffff1673ffffffffffffffffffffffffffffffffffffffff168152602001908152602001600020600101546000803373ffffffffffffffffffffffffffffffffffffffff1673ffffffffffffffffffffffffffffffffffffffff168152602001908152602001600020600101541415610cef576000600560003373ffffffffffffffffffffffffffffffffffffffff1673ffffffffffffffffffffffffffffffffffffffff16815260200190815260200160002060020160006101000a81548160ff021916908315150217905550610ef7565b60026000803373ffffffffffffffffffffffffffffffffffffffff1673ffffffffffffffffffffffffffffffffffffffff16815260200190815260200160002060010154610d3d919061239c565b600080600560003373ffffffffffffffffffffffffffffffffffffffff1673ffffffffffffffffffffffffffffffffffffffff16815260200190815260200160002060020160019054906101000a900473ffffffffffffffffffffffffffffffffffffffff1673ffffffffffffffffffffffffffffffffffffffff1673ffffffffffffffffffffffffffffffffffffffff1681526020019081526020016000206001016000828254610def9190612346565b9250508190555060026000803373ffffffffffffffffffffffffffffffffffffffff1673ffffffffffffffffffffffffffffffffffffffff16815260200190815260200160002060010154610e44919061239c565b6000803373ffffffffffffffffffffffffffffffffffffffff1673ffffffffffffffffffffffffffffffffffffffff1681526020019081526020016000206001016000828254610e9491906123cd565b925050819055506000600560003373ffffffffffffffffffffffffffffffffffffffff1673ffffffffffffffffffffffffffffffffffffffff16815260200190815260200160002060020160006101000a81548160ff0219169083151502179055505b5b50505050565b60405180608001604052808381526020018281526020016001151581526020013373ffffffffffffffffffffffffffffffffffffffff16815250600560008573ffffffffffffffffffffffffffffffffffffffff1673ffffffffffffffffffffffffffffffffffffffff168152602001908152602001600020600082015181600001556020820151816001015560408201518160020160006101000a81548160ff02191690831515021790555060608201518160020160016101000a81548173ffffffffffffffffffffffffffffffffffffffff021916908373ffffffffffffffffffffffffffffffffffffffff16021790555090505060086000803373ffffffffffffffffffffffffffffffffffffffff1673ffffffffffffffffffffffffffffffffffffffff168152602001908152602001600020600101600082825461104791906123cd565b92505081905550505050565b60011515600360009054906101000a900473ffffffffffffffffffffffffffffffffffffffff1673ffffffffffffffffffffffffffffffffffffffff166311479fea868686866040518563ffffffff1660e01b81526004016110b8949392919061202f565b60206040518083038186803b1580156110d057600080fd5b505afa1580156110e4573d6000803e3d6000fd5b505050506040513d601f19601f820116820180604052508101906111089190611b92565b15151461114a576040517f08c379a00000000000000000000000000000000000000000000000000000000081526004016111419061214c565b60405180910390fd5b60001515600560003373ffffffffffffffffffffffffffffffffffffffff1673ffffffffffffffffffffffffffffffffffffffff16815260200190815260200160002060020160009054906101000a900460ff161515146111e0576040517f08c379a00000000000000000000000000000000000000000000000000000000081526004016111d79061212c565b60405180910390fd5b60008060003373ffffffffffffffffffffffffffffffffffffffff1673ffffffffffffffffffffffffffffffffffffffff168152602001908152602001600020905060088160010154101561126a576040517f08c379a0000000000000000000000000000000000000000000000000000000008152600401611261906120cc565b60405180910390fd5b816000600381106112a4577f4e487b7100000000000000000000000000000000000000000000000000000000600052603260045260246000fd5b60200201518160020154146112ee576040517f08c379a00000000000000000000000000000000000000000000000000000000081526004016112e5906120ac565b60405180910390fd5b81600160038110611328577f4e487b7100000000000000000000000000000000000000000000000000000000600052603260045260246000fd5b602002015181600201819055508160026003811061136f577f4e487b7100000000000000000000000000000000000000000000000000000000600052603260045260246000fd5b602002015181600301819055506004816001015461138d91906123cd565b81600101819055503373ffffffffffffffffffffffffffffffffffffffff167fec69a90467aaa43beb6a73755fe1b4c7fbddd7890fb1f7fa700f79289d0ba19460016040516113dc9190612076565b60405180910390a25050505050565b600a81565b60011515600260009054906101000a900473ffffffffffffffffffffffffffffffffffffffff1673ffffffffffffffffffffffffffffffffffffffff1663f5c9d69e868686866040518563ffffffff1660e01b81526004016114559493929190611fe8565b60206040518083038186803b15801561146d57600080fd5b505afa158015611481573d6000803e3d6000fd5b505050506040513d601f19601f820116820180604052508101906114a59190611b92565b1515146114e7576040517f08c379a00000000000000000000000000000000000000000000000000000000081526004016114de9061214c565b60405180910390fd5b3373ffffffffffffffffffffffffffffffffffffffff166000803373ffffffffffffffffffffffffffffffffffffffff1673ffffffffffffffffffffffffffffffffffffffff16815260200190815260200160002060000160009054906101000a900473ffffffffffffffffffffffffffffffffffffffff1673ffffffffffffffffffffffffffffffffffffffff1614156115b957336040517f45ed80e90000000000000000000000000000000000000000000000000000000081526004016115b09190611f88565b60405180910390fd5b600060405180608001604052803373ffffffffffffffffffffffffffffffffffffffff1681526020016064815260200183600060028110611623577f4e487b7100000000000000000000000000000000000000000000000000000000600052603260045260246000fd5b6020020151815260200183600160028110611667577f4e487b7100000000000000000000000000000000000000000000000000000000600052603260045260246000fd5b60200201518152509050806000803373ffffffffffffffffffffffffffffffffffffffff1673ffffffffffffffffffffffffffffffffffffffff16815260200190815260200160002060008201518160000160006101000a81548173ffffffffffffffffffffffffffffffffffffffff021916908373ffffffffffffffffffffffffffffffffffffffff16021790555060208201518160010155604082015181600201556060820151816003015590505085606a60003373ffffffffffffffffffffffffffffffffffffffff1673ffffffffffffffffffffffffffffffffffffffff16815260200190815260200160002081905550606b339080600181540180825580915050600190039060005260206000200160009091909190916101000a81548173ffffffffffffffffffffffffffffffffffffffff021916908373ffffffffffffffffffffffffffffffffffffffff1602179055503373ffffffffffffffffffffffffffffffffffffffff167fab01b4692bd902b4859dc270e9c93f448cea806bbd1a2d031219e834ccd0755460016040516118069190612076565b60405180910390a2505050505050565b600460009054906101000a900473ffffffffffffffffffffffffffffffffffffffff1681565b600682600a811061184c57600080fd5b600a020181600a811061185e57600080fd5b01600091509150508060000154905081565b60006020528060005260406000206000915090508060000160009054906101000a900473ffffffffffffffffffffffffffffffffffffffff16908060010154908060020154908060030154905084565b606a6020528060005260406000206000915090505481565b60006118eb6118e684612231565b61220c565b9050808285604086028201111561190157600080fd5b60005b8581101561193157816119178882611a3d565b845260208401935060408301925050600181019050611904565b5050509392505050565b600061194e61194984612257565b61220c565b9050808285602086028201111561196457600080fd5b60005b85811015611994578161197a8882611aa0565b845260208401935060208301925050600181019050611967565b5050509392505050565b60006119b16119ac8461227d565b61220c565b905080828560208602820111156119c757600080fd5b60005b858110156119f757816119dd8882611aa0565b8452602084019350602083019250506001810190506119ca565b5050509392505050565b600081359050611a1081612684565b92915050565b600082601f830112611a2757600080fd5b6002611a348482856118d8565b91505092915050565b600082601f830112611a4e57600080fd5b6002611a5b84828561193b565b91505092915050565b600082601f830112611a7557600080fd5b6003611a8284828561199e565b91505092915050565b600081519050611a9a8161269b565b92915050565b600081359050611aaf816126b2565b92915050565b600060208284031215611ac757600080fd5b6000611ad584828501611a01565b91505092915050565b600080600060608486031215611af357600080fd5b6000611b0186828701611a01565b9350506020611b1286828701611aa0565b9250506040611b2386828701611aa0565b9150509250925092565b6000806000806101608587031215611b4457600080fd5b6000611b5287828801611a3d565b9450506040611b6387828801611a16565b93505060c0611b7487828801611a3d565b925050610100611b8687828801611a64565b91505092959194509250565b600060208284031215611ba457600080fd5b6000611bb284828501611a8b565b91505092915050565b600060208284031215611bcd57600080fd5b6000611bdb84828501611aa0565b91505092915050565b60008060008060006101608688031215611bfd57600080fd5b6000611c0b88828901611aa0565b9550506020611c1c88828901611a3d565b9450506060611c2d88828901611a16565b93505060e0611c3e88828901611a3d565b925050610120611c5088828901611a3d565b9150509295509295909350565b60008060408385031215611c7057600080fd5b6000611c7e85828601611aa0565b9250506020611c8f85828601611aa0565b9150509250929050565b6000611ca58383611d2f565b60408301905092915050565b6000611cbd8383611f6a565b60208301905092915050565b611cd281612401565b82525050565b611ce1816122c1565b611ceb8184612309565b9250611cf6826122a3565b8060005b83811015611d27578151611d0e8782611c99565b9650611d19836122e2565b925050600181019050611cfa565b505050505050565b611d38816122cc565b611d428184612314565b9250611d4d826122ad565b8060005b83811015611d7e578151611d658782611cb1565b9650611d70836122ef565b925050600181019050611d51565b505050505050565b611d8f816122cc565b611d99818461231f565b9250611da4826122ad565b8060005b83811015611dd5578151611dbc8782611cb1565b9650611dc7836122ef565b925050600181019050611da8565b505050505050565b611de6816122d7565b611df0818461232a565b9250611dfb826122b7565b8060005b83811015611e2c578151611e138782611cb1565b9650611e1e836122fc565b925050600181019050611dff565b505050505050565b611e3d81612413565b82525050565b611e4c81612449565b82525050565b6000611e5f601083612335565b9150611e6a8261253c565b602082019050919050565b6000611e82600e83612335565b9150611e8d82612565565b602082019050919050565b6000611ea5600b83612335565b9150611eb08261258e565b602082019050919050565b6000611ec8600b83612335565b9150611ed3826125b7565b602082019050919050565b6000611eeb600883612335565b9150611ef6826125e0565b602082019050919050565b6000611f0e600d83612335565b9150611f1982612609565b602082019050919050565b6000611f31600983612335565b9150611f3c82612632565b602082019050919050565b6000611f54600783612335565b9150611f5f8261265b565b602082019050919050565b611f738161243f565b82525050565b611f828161243f565b82525050565b6000602082019050611f9d6000830184611cc9565b92915050565b6000608082019050611fb86000830187611cc9565b611fc56020830186611f79565b611fd26040830185611f79565b611fdf6060830184611f79565b95945050505050565b600061014082019050611ffe6000830187611d86565b61200b6040830186611cd8565b61201860c0830185611d86565b612026610100830184611d86565b95945050505050565b6000610160820190506120456000830187611d86565b6120526040830186611cd8565b61205f60c0830185611d86565b61206d610100830184611ddd565b95945050505050565b600060208201905061208b6000830184611e34565b92915050565b60006020820190506120a66000830184611e43565b92915050565b600060208201905081810360008301526120c581611e52565b9050919050565b600060208201905081810360008301526120e581611e75565b9050919050565b6000602082019050818103600083015261210581611e98565b9050919050565b6000602082019050818103600083015261212581611ebb565b9050919050565b6000602082019050818103600083015261214581611ede565b9050919050565b6000602082019050818103600083015261216581611f01565b9050919050565b6000602082019050818103600083015261218581611f24565b9050919050565b600060208201905081810360008301526121a581611f47565b9050919050565b60006020820190506121c16000830184611f79565b92915050565b60006080820190506121dc6000830187611f79565b6121e96020830186611f79565b6121f66040830185611e34565b6122036060830184611cc9565b95945050505050565b6000612216612227565b9050612222828261246d565b919050565b6000604051905090565b600067ffffffffffffffff82111561224c5761224b6124fc565b5b602082029050919050565b600067ffffffffffffffff821115612272576122716124fc565b5b602082029050919050565b600067ffffffffffffffff821115612298576122976124fc565b5b602082029050919050565b6000819050919050565b6000819050919050565b6000819050919050565b600060029050919050565b600060029050919050565b600060039050919050565b6000602082019050919050565b6000602082019050919050565b6000602082019050919050565b600081905092915050565b600081905092915050565b600081905092915050565b600081905092915050565b600082825260208201905092915050565b60006123518261243f565b915061235c8361243f565b9250827fffffffffffffffffffffffffffffffffffffffffffffffffffffffffffffffff038211156123915761239061249e565b5b828201905092915050565b60006123a78261243f565b91506123b28361243f565b9250826123c2576123c16124cd565b5b828204905092915050565b60006123d88261243f565b91506123e38361243f565b9250828210156123f6576123f561249e565b5b828203905092915050565b600061240c8261241f565b9050919050565b60008115159050919050565b600073ffffffffffffffffffffffffffffffffffffffff82169050919050565b6000819050919050565b60006124548261245b565b9050919050565b60006124668261241f565b9050919050565b6124768261252b565b810181811067ffffffffffffffff82111715612495576124946124fc565b5b80604052505050565b7f4e487b7100000000000000000000000000000000000000000000000000000000600052601160045260246000fd5b7f4e487b7100000000000000000000000000000000000000000000000000000000600052601260045260246000fd5b7f4e487b7100000000000000000000000000000000000000000000000000000000600052604160045260246000fd5b6000601f19601f8301169050919050565b7f496e76616c6964206c6f636174696f6e00000000000000000000000000000000600082015250565b7f506c617965722069732064656164000000000000000000000000000000000000600082015250565b7f57726f6e67204775657373000000000000000000000000000000000000000000600082015250565b7f446f6e2774206368656174000000000000000000000000000000000000000000600082015250565b7f446566656e642121000000000000000000000000000000000000000000000000600082015250565b7f496e76616c696420696e70757400000000000000000000000000000000000000600082015250565b7f4e6f2061747461636b0000000000000000000000000000000000000000000000600082015250565b7f496e76616c696400000000000000000000000000000000000000000000000000600082015250565b61268d81612401565b811461269857600080fd5b50565b6126a481612413565b81146126af57600080fd5b50565b6126bb8161243f565b81146126c657600080fd5b5056fea2646970667358221220add0dfd1f5d27dd4af9be9a1862ed69a07c3a6be4c1051e062bc77d58c0099fd64736f6c63430008040033",
  "linkReferences": {},
  "deployedLinkReferences": {}
}