{
  "_format": "hh-sol-artifact-1",
  "contractName": "Footsteps",
  "sourceName": "contracts/Game.sol",
  "abi": [
    {
      "inputs": [
        {
          "internalType": "address",
          "name": "_verifier",
          "type": "address"
        }
      ],
      "stateMutability": "payable",
      "type": "constructor"
    },
    {
      "inputs": [
        {
          "internalType": "address",
          "name": "player",
          "type": "address"
        }
      ],
      "name": "AlreadyRegistered",
      "type": "error"
    },
    {
      "inputs": [],
      "name": "InvalidProof",
      "type": "error"
    },
    {
      "inputs": [
        {
          "internalType": "uint256",
          "name": "",
          "type": "uint256"
        },
        {
          "internalType": "uint256",
          "name": "",
          "type": "uint256"
        }
      ],
      "name": "Area",
      "outputs": [
        {
          "internalType": "uint256",
          "name": "position",
          "type": "uint256"
        }
      ],
      "stateMutability": "view",
      "type": "function"
    },
    {
      "inputs": [
        {
          "internalType": "uint256",
          "name": "LoogieId",
          "type": "uint256"
        },
        {
          "internalType": "uint256[2]",
          "name": "a",
          "type": "uint256[2]"
        },
        {
          "internalType": "uint256[2][2]",
          "name": "b",
          "type": "uint256[2][2]"
        },
        {
          "internalType": "uint256[2]",
          "name": "c",
          "type": "uint256[2]"
        },
        {
          "internalType": "uint256[2]",
          "name": "input",
          "type": "uint256[2]"
        }
      ],
      "name": "Register",
      "outputs": [],
      "stateMutability": "nonpayable",
      "type": "function"
    },
    {
      "inputs": [
        {
          "internalType": "address",
          "name": "",
          "type": "address"
        }
      ],
      "name": "bal",
      "outputs": [
        {
          "internalType": "uint256",
          "name": "",
          "type": "uint256"
        }
      ],
      "stateMutability": "view",
      "type": "function"
    },
    {
      "inputs": [],
      "name": "getpayment",
      "outputs": [],
      "stateMutability": "payable",
      "type": "function"
    },
    {
      "inputs": [],
      "name": "height",
      "outputs": [
        {
          "internalType": "uint256",
          "name": "",
          "type": "uint256"
        }
      ],
      "stateMutability": "view",
      "type": "function"
    },
    {
      "inputs": [
        {
          "internalType": "address",
          "name": "",
          "type": "address"
        }
      ],
      "name": "loogies",
      "outputs": [
        {
          "internalType": "uint256",
          "name": "",
          "type": "uint256"
        }
      ],
      "stateMutability": "view",
      "type": "function"
    },
    {
      "inputs": [],
      "name": "loogiescontract",
      "outputs": [
        {
          "internalType": "contract LoogiesContract",
          "name": "",
          "type": "address"
        }
      ],
      "stateMutability": "view",
      "type": "function"
    },
    {
      "inputs": [
        {
          "internalType": "uint256",
          "name": "",
          "type": "uint256"
        }
      ],
      "name": "players",
      "outputs": [
        {
          "internalType": "address",
          "name": "player",
          "type": "address"
        },
        {
          "internalType": "uint256",
          "name": "health",
          "type": "uint256"
        },
        {
          "internalType": "uint256",
          "name": "location",
          "type": "uint256"
        },
        {
          "internalType": "uint256",
          "name": "zone",
          "type": "uint256"
        }
      ],
      "stateMutability": "view",
      "type": "function"
    },
    {
      "inputs": [],
      "name": "verifier",
      "outputs": [
        {
          "internalType": "address",
          "name": "",
          "type": "address"
        }
      ],
      "stateMutability": "view",
      "type": "function"
    },
    {
      "inputs": [],
      "name": "width",
      "outputs": [
        {
          "internalType": "uint256",
          "name": "",
          "type": "uint256"
        }
      ],
      "stateMutability": "view",
      "type": "function"
    }
  ],
  "bytecode": "0x6080604052604051610f52380380610f5283398181016040528101906100259190610065565b600260009054906101000a900473ffffffffffffffffffffffffffffffffffffffff169050506100d7565b60008151905061005f816100c0565b92915050565b60006020828403121561007757600080fd5b600061008584828501610050565b91505092915050565b6000610099826100a0565b9050919050565b600073ffffffffffffffffffffffffffffffffffffffff82169050919050565b6100c98161008e565b81146100d457600080fd5b50565b610e6c806100e66000396000f3fe6080604052600436106100915760003560e01c80639ededf77116100595780639ededf771461015e578063ac641e0c14610189578063c0265060146101b2578063e4342fa0146101ef578063f71d96cb1461022c57610091565b80630ef26743146100965780632b7ac3f3146100c15780635580f72a146100ec578063800958a5146101295780639300ec5814610154575b600080fd5b3480156100a257600080fd5b506100ab61026c565b6040516100b89190610b64565b60405180910390f35b3480156100cd57600080fd5b506100d6610271565b6040516100e39190610a82565b60405180910390f35b3480156100f857600080fd5b50610113600480360381019061010e91906107be565b610297565b6040516101209190610b64565b60405180910390f35b34801561013557600080fd5b5061013e6102af565b60405161014b9190610b29565b60405180910390f35b61015c6102d5565b005b34801561016a57600080fd5b5061017361032c565b6040516101809190610b64565b60405180910390f35b34801561019557600080fd5b506101b060048036038101906101ab9190610839565b610331565b005b3480156101be57600080fd5b506101d960048036038101906101d491906108b2565b6105bf565b6040516101e69190610b64565b60405180910390f35b3480156101fb57600080fd5b50610216600480360381019061021191906107be565b6105f3565b6040516102239190610b64565b60405180910390f35b34801561023857600080fd5b50610253600480360381019061024e9190610810565b61060b565b6040516102639493929190610a9d565b60405180910390f35b600a81565b600260009054906101000a900473ffffffffffffffffffffffffffffffffffffffff1681565b60006020528060005260406000206000915090505481565b600160009054906101000a900473ffffffffffffffffffffffffffffffffffffffff1681565b346000803373ffffffffffffffffffffffffffffffffffffffff1673ffffffffffffffffffffffffffffffffffffffff16815260200190815260200160002060008282546103239190610c66565b92505081905550565b600a81565b60011515600260009054906101000a900473ffffffffffffffffffffffffffffffffffffffff1673ffffffffffffffffffffffffffffffffffffffff1663f5c9d69e868686866040518563ffffffff1660e01b81526004016103969493929190610ae2565b60206040518083038186803b1580156103ae57600080fd5b505afa1580156103c2573d6000803e3d6000fd5b505050506040513d601f19601f820116820180604052508101906103e691906107e7565b151514610428576040517f08c379a000000000000000000000000000000000000000000000000000000000815260040161041f90610b44565b60405180910390fd5b600060405180608001604052803373ffffffffffffffffffffffffffffffffffffffff1681526020016064815260200183600060028110610492577f4e487b7100000000000000000000000000000000000000000000000000000000600052603260045260246000fd5b60200201518152602001836001600281106104d6577f4e487b7100000000000000000000000000000000000000000000000000000000600052603260045260246000fd5b60200201518152509050606781908060018154018082558091505060019003906000526020600020906004020160009091909190915060008201518160000160006101000a81548173ffffffffffffffffffffffffffffffffffffffff021916908373ffffffffffffffffffffffffffffffffffffffff160217905550602082015181600101556040820151816002015560608201518160030155505085606860003373ffffffffffffffffffffffffffffffffffffffff1673ffffffffffffffffffffffffffffffffffffffff16815260200190815260200160002081905550505050505050565b600382600a81106105cf57600080fd5b600a020181600a81106105e157600080fd5b01600091509150508060000154905081565b60686020528060005260406000206000915090505481565b6067818154811061061b57600080fd5b90600052602060002090600402016000915090508060000160009054906101000a900473ffffffffffffffffffffffffffffffffffffffff16908060010154908060020154908060030154905084565b600061067e61067984610ba4565b610b7f565b9050808285604086028201111561069457600080fd5b60005b858110156106c457816106aa888261076d565b845260208401935060408301925050600181019050610697565b5050509392505050565b60006106e16106dc84610bca565b610b7f565b905080828560208602820111156106f757600080fd5b60005b85811015610727578161070d88826107a9565b8452602084019350602083019250506001810190506106fa565b5050509392505050565b60008135905061074081610df1565b92915050565b600082601f83011261075757600080fd5b600261076484828561066b565b91505092915050565b600082601f83011261077e57600080fd5b600261078b8482856106ce565b91505092915050565b6000815190506107a381610e08565b92915050565b6000813590506107b881610e1f565b92915050565b6000602082840312156107d057600080fd5b60006107de84828501610731565b91505092915050565b6000602082840312156107f957600080fd5b600061080784828501610794565b91505092915050565b60006020828403121561082257600080fd5b6000610830848285016107a9565b91505092915050565b6000806000806000610160868803121561085257600080fd5b6000610860888289016107a9565b95505060206108718882890161076d565b945050606061088288828901610746565b93505060e06108938882890161076d565b9250506101206108a58882890161076d565b9150509295509295909350565b600080604083850312156108c557600080fd5b60006108d3858286016107a9565b92505060206108e4858286016107a9565b9150509250929050565b60006108fa8383610984565b60408301905092915050565b60006109128383610a64565b60208301905092915050565b61092781610cbc565b82525050565b61093681610c04565b6109408184610c34565b925061094b82610bf0565b8060005b8381101561097c57815161096387826108ee565b965061096e83610c1a565b92505060018101905061094f565b505050505050565b61098d81610c0f565b6109978184610c3f565b92506109a282610bfa565b8060005b838110156109d35781516109ba8782610906565b96506109c583610c27565b9250506001810190506109a6565b505050505050565b6109e481610c0f565b6109ee8184610c4a565b92506109f982610bfa565b8060005b83811015610a2a578151610a118782610906565b9650610a1c83610c27565b9250506001810190506109fd565b505050505050565b610a3b81610d04565b82525050565b6000610a4e600d83610c55565b9150610a5982610dc8565b602082019050919050565b610a6d81610cfa565b82525050565b610a7c81610cfa565b82525050565b6000602082019050610a97600083018461091e565b92915050565b6000608082019050610ab2600083018761091e565b610abf6020830186610a73565b610acc6040830185610a73565b610ad96060830184610a73565b95945050505050565b600061014082019050610af860008301876109db565b610b05604083018661092d565b610b1260c08301856109db565b610b206101008301846109db565b95945050505050565b6000602082019050610b3e6000830184610a32565b92915050565b60006020820190508181036000830152610b5d81610a41565b9050919050565b6000602082019050610b796000830184610a73565b92915050565b6000610b89610b9a565b9050610b958282610d28565b919050565b6000604051905090565b600067ffffffffffffffff821115610bbf57610bbe610d88565b5b602082029050919050565b600067ffffffffffffffff821115610be557610be4610d88565b5b602082029050919050565b6000819050919050565b6000819050919050565b600060029050919050565b600060029050919050565b6000602082019050919050565b6000602082019050919050565b600081905092915050565b600081905092915050565b600081905092915050565b600082825260208201905092915050565b6000610c7182610cfa565b9150610c7c83610cfa565b9250827fffffffffffffffffffffffffffffffffffffffffffffffffffffffffffffffff03821115610cb157610cb0610d59565b5b828201905092915050565b6000610cc782610cda565b9050919050565b60008115159050919050565b600073ffffffffffffffffffffffffffffffffffffffff82169050919050565b6000819050919050565b6000610d0f82610d16565b9050919050565b6000610d2182610cda565b9050919050565b610d3182610db7565b810181811067ffffffffffffffff82111715610d5057610d4f610d88565b5b80604052505050565b7f4e487b7100000000000000000000000000000000000000000000000000000000600052601160045260246000fd5b7f4e487b7100000000000000000000000000000000000000000000000000000000600052604160045260246000fd5b6000601f19601f8301169050919050565b7f496e76616c696420696e70757400000000000000000000000000000000000000600082015250565b610dfa81610cbc565b8114610e0557600080fd5b50565b610e1181610cce565b8114610e1c57600080fd5b50565b610e2881610cfa565b8114610e3357600080fd5b5056fea2646970667358221220dc046b127fa9795b2c48ae447d2eccf9e70a38bd09daf083feaff016b87b11a064736f6c63430008040033",
  "linkReferences": {},
  "deployedLinkReferences": {}
}