{
  "_format": "hh-sol-artifact-1",
  "contractName": "Footsteps",
  "sourceName": "contracts/Game.sol",
  "abi": [
    {
      "inputs": [
        {
          "internalType": "address",
          "name": "_registerverifier",
          "type": "address"
        },
        {
          "internalType": "address",
          "name": "_moveverifier",
          "type": "address"
        },
        {
          "internalType": "address",
          "name": "_defendverifier",
          "type": "address"
        }
      ],
      "stateMutability": "payable",
      "type": "constructor"
    },
    {
      "inputs": [
        {
          "internalType": "address",
          "name": "player",
          "type": "address"
        }
      ],
      "name": "AlreadyRegistered",
      "type": "error"
    },
    {
      "inputs": [],
      "name": "Cheater",
      "type": "error"
    },
    {
      "inputs": [],
      "name": "Dead",
      "type": "error"
    },
    {
      "inputs": [],
      "name": "DefendFirst",
      "type": "error"
    },
    {
      "inputs": [],
      "name": "InvalidLocation",
      "type": "error"
    },
    {
      "inputs": [],
      "name": "InvalidProof",
      "type": "error"
    },
    {
      "inputs": [],
      "name": "NoAttack",
      "type": "error"
    },
    {
      "inputs": [],
      "name": "WrongGuess",
      "type": "error"
    },
    {
      "inputs": [],
      "name": "ZombiesNotAllowed",
      "type": "error"
    },
    {
      "anonymous": false,
      "inputs": [
        {
          "indexed": true,
          "internalType": "address",
          "name": "attacker",
          "type": "address"
        },
        {
          "indexed": true,
          "internalType": "address",
          "name": "victim",
          "type": "address"
        }
      ],
      "name": "attack",
      "type": "event"
    },
    {
      "anonymous": false,
      "inputs": [
        {
          "indexed": true,
          "internalType": "address",
          "name": "player",
          "type": "address"
        },
        {
          "indexed": true,
          "internalType": "bool",
          "name": "deadornot",
          "type": "bool"
        }
      ],
      "name": "dead",
      "type": "event"
    },
    {
      "anonymous": false,
      "inputs": [
        {
          "indexed": true,
          "internalType": "address",
          "name": "gained",
          "type": "address"
        }
      ],
      "name": "defend",
      "type": "event"
    },
    {
      "anonymous": false,
      "inputs": [
        {
          "indexed": true,
          "internalType": "address",
          "name": "player",
          "type": "address"
        },
        {
          "indexed": true,
          "internalType": "bool",
          "name": "moved",
          "type": "bool"
        }
      ],
      "name": "move",
      "type": "event"
    },
    {
      "anonymous": false,
      "inputs": [
        {
          "indexed": true,
          "internalType": "address",
          "name": "player",
          "type": "address"
        },
        {
          "indexed": true,
          "internalType": "bool",
          "name": "registered",
          "type": "bool"
        }
      ],
      "name": "register",
      "type": "event"
    },
    {
      "inputs": [
        {
          "internalType": "address",
          "name": "player",
          "type": "address"
        },
        {
          "internalType": "uint256",
          "name": "x",
          "type": "uint256"
        },
        {
          "internalType": "uint256",
          "name": "y",
          "type": "uint256"
        }
      ],
      "name": "AttackPlayer",
      "outputs": [],
      "stateMutability": "nonpayable",
      "type": "function"
    },
    {
      "inputs": [
        {
          "internalType": "uint256[2]",
          "name": "a",
          "type": "uint256[2]"
        },
        {
          "internalType": "uint256[2][2]",
          "name": "b",
          "type": "uint256[2][2]"
        },
        {
          "internalType": "uint256[2]",
          "name": "c",
          "type": "uint256[2]"
        },
        {
          "internalType": "uint256[3]",
          "name": "input",
          "type": "uint256[3]"
        }
      ],
      "name": "Defend",
      "outputs": [],
      "stateMutability": "nonpayable",
      "type": "function"
    },
    {
      "inputs": [
        {
          "internalType": "address",
          "name": "",
          "type": "address"
        }
      ],
      "name": "Id",
      "outputs": [
        {
          "internalType": "uint256",
          "name": "",
          "type": "uint256"
        }
      ],
      "stateMutability": "view",
      "type": "function"
    },
    {
      "inputs": [
        {
          "internalType": "uint256[2]",
          "name": "a",
          "type": "uint256[2]"
        },
        {
          "internalType": "uint256[2][2]",
          "name": "b",
          "type": "uint256[2][2]"
        },
        {
          "internalType": "uint256[2]",
          "name": "c",
          "type": "uint256[2]"
        },
        {
          "internalType": "uint256[3]",
          "name": "input",
          "type": "uint256[3]"
        }
      ],
      "name": "Move",
      "outputs": [],
      "stateMutability": "nonpayable",
      "type": "function"
    },
    {
      "inputs": [],
      "name": "Quit",
      "outputs": [],
      "stateMutability": "nonpayable",
      "type": "function"
    },
    {
      "inputs": [
        {
          "internalType": "uint256[2]",
          "name": "a",
          "type": "uint256[2]"
        },
        {
          "internalType": "uint256[2][2]",
          "name": "b",
          "type": "uint256[2][2]"
        },
        {
          "internalType": "uint256[2]",
          "name": "c",
          "type": "uint256[2]"
        },
        {
          "internalType": "uint256[2]",
          "name": "input",
          "type": "uint256[2]"
        }
      ],
      "name": "Register",
      "outputs": [],
      "stateMutability": "nonpayable",
      "type": "function"
    },
    {
      "inputs": [],
      "name": "TotalPlayers",
      "outputs": [
        {
          "internalType": "uint256",
          "name": "",
          "type": "uint256"
        }
      ],
      "stateMutability": "view",
      "type": "function"
    },
    {
      "inputs": [
        {
          "internalType": "uint256",
          "name": "",
          "type": "uint256"
        }
      ],
      "name": "activeplayers",
      "outputs": [
        {
          "internalType": "address",
          "name": "",
          "type": "address"
        }
      ],
      "stateMutability": "view",
      "type": "function"
    },
    {
      "inputs": [
        {
          "internalType": "address",
          "name": "",
          "type": "address"
        }
      ],
      "name": "attacks",
      "outputs": [
        {
          "internalType": "uint256",
          "name": "xguess",
          "type": "uint256"
        },
        {
          "internalType": "uint256",
          "name": "yguess",
          "type": "uint256"
        },
        {
          "internalType": "bool",
          "name": "active",
          "type": "bool"
        },
        {
          "internalType": "address",
          "name": "attacker",
          "type": "address"
        }
      ],
      "stateMutability": "view",
      "type": "function"
    },
    {
      "inputs": [],
      "name": "moveverifier",
      "outputs": [
        {
          "internalType": "address",
          "name": "",
          "type": "address"
        }
      ],
      "stateMutability": "view",
      "type": "function"
    },
    {
      "inputs": [
        {
          "internalType": "address",
          "name": "",
          "type": "address"
        }
      ],
      "name": "players",
      "outputs": [
        {
          "internalType": "address",
          "name": "player",
          "type": "address"
        },
        {
          "internalType": "uint256",
          "name": "health",
          "type": "uint256"
        },
        {
          "internalType": "uint256",
          "name": "location",
          "type": "uint256"
        },
        {
          "internalType": "uint256",
          "name": "zone",
          "type": "uint256"
        },
        {
          "internalType": "bool",
          "name": "alive",
          "type": "bool"
        }
      ],
      "stateMutability": "view",
      "type": "function"
    },
    {
      "inputs": [],
      "name": "registerverifier",
      "outputs": [
        {
          "internalType": "address",
          "name": "",
          "type": "address"
        }
      ],
      "stateMutability": "view",
      "type": "function"
    },
    {
      "inputs": [],
      "name": "verifierdefend",
      "outputs": [
        {
          "internalType": "address",
          "name": "",
          "type": "address"
        }
      ],
      "stateMutability": "view",
      "type": "function"
    }
  ],
  "bytecode": "0x60e06040526040516200272b3803806200272b8339818101604052810190620000299190620000ee565b8273ffffffffffffffffffffffffffffffffffffffff1660808173ffffffffffffffffffffffffffffffffffffffff1660601b815250508173ffffffffffffffffffffffffffffffffffffffff1660a08173ffffffffffffffffffffffffffffffffffffffff1660601b815250508073ffffffffffffffffffffffffffffffffffffffff1660c08173ffffffffffffffffffffffffffffffffffffffff1660601b8152505050505062000192565b600081519050620000e88162000178565b92915050565b6000806000606084860312156200010457600080fd5b60006200011486828701620000d7565b93505060206200012786828701620000d7565b92505060406200013a86828701620000d7565b9150509250925092565b6000620001518262000158565b9050919050565b600073ffffffffffffffffffffffffffffffffffffffff82169050919050565b620001838162000144565b81146200018f57600080fd5b50565b60805160601c60a05160601c60c05160601c61254b620001e0600039600081816108ef01526115f50152600081816102ec01526112620152600081816103b201526103da015261254b6000f3fe608060405234801561001057600080fd5b50600436106100cf5760003560e01c80638b812ae11161008c578063b53c99f611610066578063b53c99f6146101ed578063d1d008661461020b578063dba93c0f14610229578063e2eb41ff14610259576100cf565b80638b812ae1146101995780638ce635de146101b55780638df07ee4146101d1576100cf565b806306e78130146100d45780630e331afa146101075780630f1bbc0f14610125578063318e8b301461012f5780634081b7721461014d57806349ee838714610169575b600080fd5b6100ee60048036038101906100e99190611cc3565b61028d565b6040516100fe9493929190612136565b60405180910390f35b61010f6102ea565b60405161011c919061201f565b60405180910390f35b61012d61030e565b005b6101376103b0565b604051610144919061201f565b60405180910390f35b61016760048036038101906101629190611d3b565b6103d4565b005b610183600480360381019061017e9190611e2e565b6108aa565b604051610190919061201f565b60405180910390f35b6101b360048036038101906101ae9190611da0565b6108e9565b005b6101cf60048036038101906101ca9190611cec565b610f3b565b005b6101eb60048036038101906101e69190611da0565b61125c565b005b6101f56115f3565b604051610202919061201f565b60405180910390f35b610213611617565b604051610220919061211b565b60405180910390f35b610243600480360381019061023e9190611cc3565b611623565b604051610250919061211b565b60405180910390f35b610273600480360381019061026e9190611cc3565b61163b565b60405161028495949392919061203a565b60405180910390f35b60036020528060005260406000206000915090508060000154908060010154908060020160009054906101000a900460ff16908060020160019054906101000a900473ffffffffffffffffffffffffffffffffffffffff16905084565b7f000000000000000000000000000000000000000000000000000000000000000081565b600260003373ffffffffffffffffffffffffffffffffffffffff1673ffffffffffffffffffffffffffffffffffffffff16815260200190815260200160002060000160009054906101000a900473ffffffffffffffffffffffffffffffffffffffff1673ffffffffffffffffffffffffffffffffffffffff163373ffffffffffffffffffffffffffffffffffffffff1614156103ae576103ad3361169e565b5b565b7f000000000000000000000000000000000000000000000000000000000000000081565b600115157f000000000000000000000000000000000000000000000000000000000000000073ffffffffffffffffffffffffffffffffffffffff1663f5c9d69e868686866040518563ffffffff1660e01b8152600401610437949392919061208d565b60206040518083038186803b15801561044f57600080fd5b505afa158015610463573d6000803e3d6000fd5b505050506040513d601f19601f820116820180604052508101906104879190611e05565b1515146104c0576040517f09bde33900000000000000000000000000000000000000000000000000000000815260040160405180910390fd5b6000600260003373ffffffffffffffffffffffffffffffffffffffff1673ffffffffffffffffffffffffffffffffffffffff1681526020019081526020016000206040518060a00160405290816000820160009054906101000a900473ffffffffffffffffffffffffffffffffffffffff1673ffffffffffffffffffffffffffffffffffffffff1673ffffffffffffffffffffffffffffffffffffffff1681526020016001820154815260200160028201548152602001600382015481526020016004820160009054906101000a900460ff16151515158152505090503373ffffffffffffffffffffffffffffffffffffffff16816000015173ffffffffffffffffffffffffffffffffffffffff161480156105e457506001151581608001511515145b1561062657336040517f45ed80e900000000000000000000000000000000000000000000000000000000815260040161061d919061201f565b60405180910390fd5b60006040518060a001604052803373ffffffffffffffffffffffffffffffffffffffff1681526020016064815260200184600060028110610690577f4e487b7100000000000000000000000000000000000000000000000000000000600052603260045260246000fd5b60200201518152602001846001600281106106d4577f4e487b7100000000000000000000000000000000000000000000000000000000600052603260045260246000fd5b6020020151815260200160011515815250905080600260003373ffffffffffffffffffffffffffffffffffffffff1673ffffffffffffffffffffffffffffffffffffffff16815260200190815260200160002060008201518160000160006101000a81548173ffffffffffffffffffffffffffffffffffffffff021916908373ffffffffffffffffffffffffffffffffffffffff16021790555060208201518160010155604082015181600201556060820151816003015560808201518160040160006101000a81548160ff0219169083151502179055509050506000339080600181540180825580915050600190039060005260206000200160009091909190916101000a81548173ffffffffffffffffffffffffffffffffffffffff021916908373ffffffffffffffffffffffffffffffffffffffff160217905550600080549050600160003373ffffffffffffffffffffffffffffffffffffffff1673ffffffffffffffffffffffffffffffffffffffff16815260200190815260200160002081905550600115153373ffffffffffffffffffffffffffffffffffffffff167fab01b4692bd902b4859dc270e9c93f448cea806bbd1a2d031219e834ccd0755460405160405180910390a3505050505050565b600081815481106108ba57600080fd5b906000526020600020016000915054906101000a900473ffffffffffffffffffffffffffffffffffffffff1681565b600115157f000000000000000000000000000000000000000000000000000000000000000073ffffffffffffffffffffffffffffffffffffffff166311479fea868686866040518563ffffffff1660e01b815260040161094c94939291906120d4565b60206040518083038186803b15801561096457600080fd5b505afa158015610978573d6000803e3d6000fd5b505050506040513d601f19601f8201168201806040525081019061099c9190611e05565b1515146109d5576040517f09bde33900000000000000000000000000000000000000000000000000000000815260040160405180910390fd5b6008600260003373ffffffffffffffffffffffffffffffffffffffff1673ffffffffffffffffffffffffffffffffffffffff168152602001908152602001600020600101541015610a52576040517f82c4767b00000000000000000000000000000000000000000000000000000000815260040160405180910390fd5b6000600260003373ffffffffffffffffffffffffffffffffffffffff1673ffffffffffffffffffffffffffffffffffffffff16815260200190815260200160002090506000600360003373ffffffffffffffffffffffffffffffffffffffff1673ffffffffffffffffffffffffffffffffffffffff16815260200190815260200160002090506000600260008360020160019054906101000a900473ffffffffffffffffffffffffffffffffffffffff1673ffffffffffffffffffffffffffffffffffffffff1673ffffffffffffffffffffffffffffffffffffffff1681526020019081526020016000209050600015158260020160009054906101000a900460ff1615151415610b8f576040517f83df6c5400000000000000000000000000000000000000000000000000000000815260040160405180910390fd5b826002015484600060038110610bce577f4e487b7100000000000000000000000000000000000000000000000000000000600052603260045260246000fd5b602002015114610c0a576040517f0d54d5cf00000000000000000000000000000000000000000000000000000000815260040160405180910390fd5b816000015484600160038110610c49577f4e487b7100000000000000000000000000000000000000000000000000000000600052603260045260246000fd5b602002015114610c85576040517fe387c80000000000000000000000000000000000000000000000000000000000815260040160405180910390fd5b816001015484600260038110610cc4577f4e487b7100000000000000000000000000000000000000000000000000000000600052603260045260246000fd5b602002015114610d00576040517fe387c80000000000000000000000000000000000000000000000000000000000815260040160405180910390fd5b600115158260020160009054906101000a900460ff1615151415610ee057806001015483600101541115610de35760058160010154610d3f91906122fa565b836001016000828254610d5291906122a4565b92505081905550600460058260010154610d6c91906122fa565b610d76919061232b565b816001018190555060008260020160006101000a81548160ff0219169083151502179055503373ffffffffffffffffffffffffffffffffffffffff167fa63f44fcd523408034594e29915d3d6c5c388867dca5295ddce796dd892b7f9560405160405180910390a2610edf565b806001015483600101541415610e155760008260020160006101000a81548160ff021916908315150217905550610ede565b60028360010154610e2691906122fa565b816001016000828254610e3991906122a4565b9250508190555060028360010154610e5191906122fa565b836001018190555060008260020160006101000a81548160ff0219169083151502179055508060000160009054906101000a900473ffffffffffffffffffffffffffffffffffffffff1673ffffffffffffffffffffffffffffffffffffffff167fa63f44fcd523408034594e29915d3d6c5c388867dca5295ddce796dd892b7f9560405160405180910390a25b5b5b600883600101541015610ef757610ef63361169e565b5b600881600101541015610f3257610f318260020160019054906101000a900473ffffffffffffffffffffffffffffffffffffffff1661169e565b5b50505050505050565b60001515600260003373ffffffffffffffffffffffffffffffffffffffff1673ffffffffffffffffffffffffffffffffffffffff16815260200190815260200160002060040160009054906101000a900460ff1615151415610fc9576040517f82c4767b00000000000000000000000000000000000000000000000000000000815260040160405180910390fd5b60001515600260008573ffffffffffffffffffffffffffffffffffffffff1673ffffffffffffffffffffffffffffffffffffffff16815260200190815260200160002060040160009054906101000a900460ff1615151415611057576040517f42a900fa00000000000000000000000000000000000000000000000000000000815260040160405180910390fd5b60405180608001604052808381526020018281526020016001151581526020013373ffffffffffffffffffffffffffffffffffffffff16815250600360008573ffffffffffffffffffffffffffffffffffffffff1673ffffffffffffffffffffffffffffffffffffffff168152602001908152602001600020600082015181600001556020820151816001015560408201518160020160006101000a81548160ff02191690831515021790555060608201518160020160016101000a81548173ffffffffffffffffffffffffffffffffffffffff021916908373ffffffffffffffffffffffffffffffffffffffff1602179055509050506008600260003373ffffffffffffffffffffffffffffffffffffffff1673ffffffffffffffffffffffffffffffffffffffff16815260200190815260200160002060010160008282546111a19190612385565b925050819055506008600260003373ffffffffffffffffffffffffffffffffffffffff1673ffffffffffffffffffffffffffffffffffffffff1681526020019081526020016000206001015410156111fd576111fc3361169e565b5b8273ffffffffffffffffffffffffffffffffffffffff163373ffffffffffffffffffffffffffffffffffffffff167f3c48664cb6fd3ecd632fdd260eb37601c11dc687890c2457b67aedb8a46c051e60405160405180910390a3505050565b600115157f000000000000000000000000000000000000000000000000000000000000000073ffffffffffffffffffffffffffffffffffffffff166311479fea868686866040518563ffffffff1660e01b81526004016112bf94939291906120d4565b60206040518083038186803b1580156112d757600080fd5b505afa1580156112eb573d6000803e3d6000fd5b505050506040513d601f19601f8201168201806040525081019061130f9190611e05565b151514611348576040517f09bde33900000000000000000000000000000000000000000000000000000000815260040160405180910390fd5b60011515600360003373ffffffffffffffffffffffffffffffffffffffff1673ffffffffffffffffffffffffffffffffffffffff16815260200190815260200160002060020160009054906101000a900460ff16151514156113d6576040517f7312e43a00000000000000000000000000000000000000000000000000000000815260040160405180910390fd5b6000600260003373ffffffffffffffffffffffffffffffffffffffff1673ffffffffffffffffffffffffffffffffffffffff1681526020019081526020016000209050600015158160040160009054906101000a900460ff1615151415611469576040517f82c4767b00000000000000000000000000000000000000000000000000000000815260040160405180910390fd5b816000600381106114a3577f4e487b7100000000000000000000000000000000000000000000000000000000600052603260045260246000fd5b60200201518160020154146114e4576040517ff80f144500000000000000000000000000000000000000000000000000000000815260040160405180910390fd5b8160016003811061151e577f4e487b7100000000000000000000000000000000000000000000000000000000600052603260045260246000fd5b6020020151816002018190555081600260038110611565577f4e487b7100000000000000000000000000000000000000000000000000000000600052603260045260246000fd5b6020020151816003018190555060048160010160008282546115879190612385565b925050819055506008816001015410156115a5576115a43361169e565b5b600115153373ffffffffffffffffffffffffffffffffffffffff167fec69a90467aaa43beb6a73755fe1b4c7fbddd7890fb1f7fa700f79289d0ba19460405160405180910390a35050505050565b7f000000000000000000000000000000000000000000000000000000000000000081565b60008080549050905090565b60016020528060005260406000206000915090505481565b60026020528060005260406000206000915090508060000160009054906101000a900473ffffffffffffffffffffffffffffffffffffffff16908060010154908060020154908060030154908060040160009054906101000a900460ff16905085565b60011515600260008373ffffffffffffffffffffffffffffffffffffffff1673ffffffffffffffffffffffffffffffffffffffff16815260200190815260200160002060040160009054906101000a900460ff1615151415611ae3576000600160008054905061170e9190612385565b81548110611745577f4e487b7100000000000000000000000000000000000000000000000000000000600052603260045260246000fd5b9060005260206000200160009054906101000a900473ffffffffffffffffffffffffffffffffffffffff16600060018060008573ffffffffffffffffffffffffffffffffffffffff1673ffffffffffffffffffffffffffffffffffffffff168152602001908152602001600020546117bd9190612385565b815481106117f4577f4e487b7100000000000000000000000000000000000000000000000000000000600052603260045260246000fd5b9060005260206000200160006101000a81548173ffffffffffffffffffffffffffffffffffffffff021916908373ffffffffffffffffffffffffffffffffffffffff160217905550600160008273ffffffffffffffffffffffffffffffffffffffff1673ffffffffffffffffffffffffffffffffffffffff16815260200190815260200160002054600160008060016000805490506118939190612385565b815481106118ca577f4e487b7100000000000000000000000000000000000000000000000000000000600052603260045260246000fd5b9060005260206000200160009054906101000a900473ffffffffffffffffffffffffffffffffffffffff1673ffffffffffffffffffffffffffffffffffffffff1673ffffffffffffffffffffffffffffffffffffffff16815260200190815260200160002081905550600080548061196b577f4e487b7100000000000000000000000000000000000000000000000000000000600052603160045260246000fd5b6001900381819060005260206000200160006101000a81549073ffffffffffffffffffffffffffffffffffffffff021916905590556000600160008373ffffffffffffffffffffffffffffffffffffffff1673ffffffffffffffffffffffffffffffffffffffff168152602001908152602001600020819055506000600260008373ffffffffffffffffffffffffffffffffffffffff1673ffffffffffffffffffffffffffffffffffffffff16815260200190815260200160002060040160006101000a81548160ff0219169083151502179055506000600360008373ffffffffffffffffffffffffffffffffffffffff1673ffffffffffffffffffffffffffffffffffffffff16815260200190815260200160002060020160006101000a81548160ff021916908315150217905550600115158173ffffffffffffffffffffffffffffffffffffffff167faf49dd0a67bbfaa0c41e857276401ad0e77d435e19c85cfa21ffafcbb11f7a6b60405160405180910390a35b50565b6000611af9611af4846121a0565b61217b565b90508082856040860282011115611b0f57600080fd5b60005b85811015611b3f5781611b258882611c4b565b845260208401935060408301925050600181019050611b12565b5050509392505050565b6000611b5c611b57846121c6565b61217b565b90508082856020860282011115611b7257600080fd5b60005b85811015611ba25781611b888882611cae565b845260208401935060208301925050600181019050611b75565b5050509392505050565b6000611bbf611bba846121ec565b61217b565b90508082856020860282011115611bd557600080fd5b60005b85811015611c055781611beb8882611cae565b845260208401935060208301925050600181019050611bd8565b5050509392505050565b600081359050611c1e816124d0565b92915050565b600082601f830112611c3557600080fd5b6002611c42848285611ae6565b91505092915050565b600082601f830112611c5c57600080fd5b6002611c69848285611b49565b91505092915050565b600082601f830112611c8357600080fd5b6003611c90848285611bac565b91505092915050565b600081519050611ca8816124e7565b92915050565b600081359050611cbd816124fe565b92915050565b600060208284031215611cd557600080fd5b6000611ce384828501611c0f565b91505092915050565b600080600060608486031215611d0157600080fd5b6000611d0f86828701611c0f565b9350506020611d2086828701611cae565b9250506040611d3186828701611cae565b9150509250925092565b6000806000806101408587031215611d5257600080fd5b6000611d6087828801611c4b565b9450506040611d7187828801611c24565b93505060c0611d8287828801611c4b565b925050610100611d9487828801611c4b565b91505092959194509250565b6000806000806101608587031215611db757600080fd5b6000611dc587828801611c4b565b9450506040611dd687828801611c24565b93505060c0611de787828801611c4b565b925050610100611df987828801611c72565b91505092959194509250565b600060208284031215611e1757600080fd5b6000611e2584828501611c99565b91505092915050565b600060208284031215611e4057600080fd5b6000611e4e84828501611cae565b91505092915050565b6000611e638383611eed565b60408301905092915050565b6000611e7b8383612001565b60208301905092915050565b611e90816123b9565b82525050565b611e9f81612230565b611ea98184612278565b9250611eb482612212565b8060005b83811015611ee5578151611ecc8782611e57565b9650611ed783612251565b925050600181019050611eb8565b505050505050565b611ef68161223b565b611f008184612283565b9250611f0b8261221c565b8060005b83811015611f3c578151611f238782611e6f565b9650611f2e8361225e565b925050600181019050611f0f565b505050505050565b611f4d8161223b565b611f57818461228e565b9250611f628261221c565b8060005b83811015611f93578151611f7a8782611e6f565b9650611f858361225e565b925050600181019050611f66565b505050505050565b611fa481612246565b611fae8184612299565b9250611fb982612226565b8060005b83811015611fea578151611fd18782611e6f565b9650611fdc8361226b565b925050600181019050611fbd565b505050505050565b611ffb816123cb565b82525050565b61200a816123f7565b82525050565b612019816123f7565b82525050565b60006020820190506120346000830184611e87565b92915050565b600060a08201905061204f6000830188611e87565b61205c6020830187612010565b6120696040830186612010565b6120766060830185612010565b6120836080830184611ff2565b9695505050505050565b6000610140820190506120a36000830187611f44565b6120b06040830186611e96565b6120bd60c0830185611f44565b6120cb610100830184611f44565b95945050505050565b6000610160820190506120ea6000830187611f44565b6120f76040830186611e96565b61210460c0830185611f44565b612112610100830184611f9b565b95945050505050565b60006020820190506121306000830184612010565b92915050565b600060808201905061214b6000830187612010565b6121586020830186612010565b6121656040830185611ff2565b6121726060830184611e87565b95945050505050565b6000612185612196565b90506121918282612401565b919050565b6000604051905090565b600067ffffffffffffffff8211156121bb576121ba612490565b5b602082029050919050565b600067ffffffffffffffff8211156121e1576121e0612490565b5b602082029050919050565b600067ffffffffffffffff82111561220757612206612490565b5b602082029050919050565b6000819050919050565b6000819050919050565b6000819050919050565b600060029050919050565b600060029050919050565b600060039050919050565b6000602082019050919050565b6000602082019050919050565b6000602082019050919050565b600081905092915050565b600081905092915050565b600081905092915050565b600081905092915050565b60006122af826123f7565b91506122ba836123f7565b9250827fffffffffffffffffffffffffffffffffffffffffffffffffffffffffffffffff038211156122ef576122ee612432565b5b828201905092915050565b6000612305826123f7565b9150612310836123f7565b9250826123205761231f612461565b5b828204905092915050565b6000612336826123f7565b9150612341836123f7565b9250817fffffffffffffffffffffffffffffffffffffffffffffffffffffffffffffffff048311821515161561237a57612379612432565b5b828202905092915050565b6000612390826123f7565b915061239b836123f7565b9250828210156123ae576123ad612432565b5b828203905092915050565b60006123c4826123d7565b9050919050565b60008115159050919050565b600073ffffffffffffffffffffffffffffffffffffffff82169050919050565b6000819050919050565b61240a826124bf565b810181811067ffffffffffffffff8211171561242957612428612490565b5b80604052505050565b7f4e487b7100000000000000000000000000000000000000000000000000000000600052601160045260246000fd5b7f4e487b7100000000000000000000000000000000000000000000000000000000600052601260045260246000fd5b7f4e487b7100000000000000000000000000000000000000000000000000000000600052604160045260246000fd5b6000601f19601f8301169050919050565b6124d9816123b9565b81146124e457600080fd5b50565b6124f0816123cb565b81146124fb57600080fd5b50565b612507816123f7565b811461251257600080fd5b5056fea26469706673582212209b22013f9b1b488815f5a14963c77806952b9d8b328d8951010f6169141fa16c64736f6c63430008040033",
  "linkReferences": {},
  "deployedLinkReferences": {}
}