{
  "_format": "hh-sol-artifact-1",
  "contractName": "Footsteps",
  "sourceName": "contracts/Game.sol",
  "abi": [
    {
      "inputs": [
        {
          "internalType": "address",
          "name": "_registerverifier",
          "type": "address"
        },
        {
          "internalType": "address",
          "name": "_moveverifier",
          "type": "address"
        },
        {
          "internalType": "address",
          "name": "_defendverifier",
          "type": "address"
        }
      ],
      "stateMutability": "payable",
      "type": "constructor"
    },
    {
      "inputs": [
        {
          "internalType": "address",
          "name": "player",
          "type": "address"
        }
      ],
      "name": "AlreadyRegistered",
      "type": "error"
    },
    {
      "inputs": [],
      "name": "InvalidProof",
      "type": "error"
    },
    {
      "anonymous": false,
      "inputs": [
        {
          "indexed": true,
          "internalType": "address",
          "name": "player",
          "type": "address"
        },
        {
          "indexed": false,
          "internalType": "bool",
          "name": "registered",
          "type": "bool"
        }
      ],
      "name": "register",
      "type": "event"
    },
    {
      "inputs": [
        {
          "internalType": "uint256",
          "name": "",
          "type": "uint256"
        },
        {
          "internalType": "uint256",
          "name": "",
          "type": "uint256"
        }
      ],
      "name": "Area",
      "outputs": [
        {
          "internalType": "uint256",
          "name": "position",
          "type": "uint256"
        }
      ],
      "stateMutability": "view",
      "type": "function"
    },
    {
      "inputs": [
        {
          "internalType": "address",
          "name": "player",
          "type": "address"
        },
        {
          "internalType": "uint256",
          "name": "x",
          "type": "uint256"
        },
        {
          "internalType": "uint256",
          "name": "y",
          "type": "uint256"
        }
      ],
      "name": "AttackPlayer",
      "outputs": [],
      "stateMutability": "nonpayable",
      "type": "function"
    },
    {
      "inputs": [
        {
          "internalType": "uint256[2]",
          "name": "a",
          "type": "uint256[2]"
        },
        {
          "internalType": "uint256[2][2]",
          "name": "b",
          "type": "uint256[2][2]"
        },
        {
          "internalType": "uint256[2]",
          "name": "c",
          "type": "uint256[2]"
        },
        {
          "internalType": "uint256[3]",
          "name": "input",
          "type": "uint256[3]"
        }
      ],
      "name": "Defend",
      "outputs": [],
      "stateMutability": "nonpayable",
      "type": "function"
    },
    {
      "inputs": [
        {
          "internalType": "uint256[2]",
          "name": "a",
          "type": "uint256[2]"
        },
        {
          "internalType": "uint256[2][2]",
          "name": "b",
          "type": "uint256[2][2]"
        },
        {
          "internalType": "uint256[2]",
          "name": "c",
          "type": "uint256[2]"
        },
        {
          "internalType": "uint256[3]",
          "name": "input",
          "type": "uint256[3]"
        }
      ],
      "name": "Move",
      "outputs": [],
      "stateMutability": "nonpayable",
      "type": "function"
    },
    {
      "inputs": [
        {
          "internalType": "uint256",
          "name": "LoogieId",
          "type": "uint256"
        },
        {
          "internalType": "uint256[2]",
          "name": "a",
          "type": "uint256[2]"
        },
        {
          "internalType": "uint256[2][2]",
          "name": "b",
          "type": "uint256[2][2]"
        },
        {
          "internalType": "uint256[2]",
          "name": "c",
          "type": "uint256[2]"
        },
        {
          "internalType": "uint256[2]",
          "name": "input",
          "type": "uint256[2]"
        }
      ],
      "name": "Register",
      "outputs": [],
      "stateMutability": "nonpayable",
      "type": "function"
    },
    {
      "inputs": [
        {
          "internalType": "uint256",
          "name": "",
          "type": "uint256"
        }
      ],
      "name": "activeplayers",
      "outputs": [
        {
          "internalType": "address",
          "name": "",
          "type": "address"
        }
      ],
      "stateMutability": "view",
      "type": "function"
    },
    {
      "inputs": [
        {
          "internalType": "address",
          "name": "",
          "type": "address"
        }
      ],
      "name": "attacks",
      "outputs": [
        {
          "internalType": "uint256",
          "name": "xguess",
          "type": "uint256"
        },
        {
          "internalType": "uint256",
          "name": "yguess",
          "type": "uint256"
        },
        {
          "internalType": "bool",
          "name": "active",
          "type": "bool"
        },
        {
          "internalType": "address",
          "name": "attacker",
          "type": "address"
        }
      ],
      "stateMutability": "view",
      "type": "function"
    },
    {
      "inputs": [],
      "name": "height",
      "outputs": [
        {
          "internalType": "uint256",
          "name": "",
          "type": "uint256"
        }
      ],
      "stateMutability": "view",
      "type": "function"
    },
    {
      "inputs": [
        {
          "internalType": "address",
          "name": "",
          "type": "address"
        }
      ],
      "name": "loogies",
      "outputs": [
        {
          "internalType": "uint256",
          "name": "",
          "type": "uint256"
        }
      ],
      "stateMutability": "view",
      "type": "function"
    },
    {
      "inputs": [],
      "name": "loogiescontract",
      "outputs": [
        {
          "internalType": "contract LoogiesContract",
          "name": "",
          "type": "address"
        }
      ],
      "stateMutability": "view",
      "type": "function"
    },
    {
      "inputs": [],
      "name": "moveverifier",
      "outputs": [
        {
          "internalType": "address",
          "name": "",
          "type": "address"
        }
      ],
      "stateMutability": "view",
      "type": "function"
    },
    {
      "inputs": [
        {
          "internalType": "address",
          "name": "",
          "type": "address"
        }
      ],
      "name": "players",
      "outputs": [
        {
          "internalType": "address",
          "name": "player",
          "type": "address"
        },
        {
          "internalType": "uint256",
          "name": "health",
          "type": "uint256"
        },
        {
          "internalType": "uint256",
          "name": "location",
          "type": "uint256"
        },
        {
          "internalType": "uint256",
          "name": "zone",
          "type": "uint256"
        }
      ],
      "stateMutability": "view",
      "type": "function"
    },
    {
      "inputs": [],
      "name": "registerverifier",
      "outputs": [
        {
          "internalType": "address",
          "name": "",
          "type": "address"
        }
      ],
      "stateMutability": "view",
      "type": "function"
    },
    {
      "inputs": [],
      "name": "verifierdefend",
      "outputs": [
        {
          "internalType": "address",
          "name": "",
          "type": "address"
        }
      ],
      "stateMutability": "view",
      "type": "function"
    },
    {
      "inputs": [],
      "name": "width",
      "outputs": [
        {
          "internalType": "uint256",
          "name": "",
          "type": "uint256"
        }
      ],
      "stateMutability": "view",
      "type": "function"
    }
  ],
  "bytecode": "0x6080604052604051620028f2380380620028f283398181016040528101906200002991906200010c565b82600260006101000a81548173ffffffffffffffffffffffffffffffffffffffff021916908373ffffffffffffffffffffffffffffffffffffffff16021790555081600360006101000a81548173ffffffffffffffffffffffffffffffffffffffff021916908373ffffffffffffffffffffffffffffffffffffffff16021790555080600460006101000a81548173ffffffffffffffffffffffffffffffffffffffff021916908373ffffffffffffffffffffffffffffffffffffffff160217905550505050620001b0565b600081519050620001068162000196565b92915050565b6000806000606084860312156200012257600080fd5b60006200013286828701620000f5565b93505060206200014586828701620000f5565b92505060406200015886828701620000f5565b9150509250925092565b60006200016f8262000176565b9050919050565b600073ffffffffffffffffffffffffffffffffffffffff82169050919050565b620001a18162000162565b8114620001ad57600080fd5b50565b61273280620001c06000396000f3fe608060405234801561001057600080fd5b50600436106100f55760003560e01c80638ce635de11610097578063b53c99f611610066578063b53c99f614610263578063c026506014610281578063e2eb41ff146102b1578063e4342fa0146102e4576100f5565b80638ce635de146101f15780638df07ee41461020d5780639ededf7714610229578063ac641e0c14610247576100f5565b8063318e8b30116100d3578063318e8b301461016957806349ee838714610187578063800958a5146101b75780638b812ae1146101d5576100f5565b806306e78130146100fa5780630e331afa1461012d5780630ef267431461014b575b600080fd5b610114600480360381019061010f9190611ae8565b610314565b60405161012494939291906121fa565b60405180910390f35b610135610371565b6040516101429190611fbb565b60405180910390f35b610153610397565b60405161016091906121df565b60405180910390f35b61017161039c565b60405161017e9190611fbb565b60405180910390f35b6101a1600480360381019061019c9190611bee565b6103c2565b6040516101ae9190611fbb565b60405180910390f35b6101bf610401565b6040516101cc91906120c4565b60405180910390f35b6101ef60048036038101906101ea9190611b60565b610427565b005b61020b60048036038101906102069190611b11565b610efe565b005b61022760048036038101906102229190611b60565b611053565b005b61023161141e565b60405161023e91906121df565b60405180910390f35b610261600480360381019061025c9190611c17565b611423565b005b61026b611849565b6040516102789190611fbb565b60405180910390f35b61029b60048036038101906102969190611c90565b61186f565b6040516102a891906121df565b60405180910390f35b6102cb60048036038101906102c69190611ae8565b6118a3565b6040516102db9493929190611fd6565b60405180910390f35b6102fe60048036038101906102f99190611ae8565b6118f3565b60405161030b91906121df565b60405180910390f35b60056020528060005260406000206000915090508060000154908060010154908060020160009054906101000a900460ff16908060020160019054906101000a900473ffffffffffffffffffffffffffffffffffffffff16905084565b600360009054906101000a900473ffffffffffffffffffffffffffffffffffffffff1681565b600a81565b600260009054906101000a900473ffffffffffffffffffffffffffffffffffffffff1681565b606b81815481106103d257600080fd5b906000526020600020016000915054906101000a900473ffffffffffffffffffffffffffffffffffffffff1681565b600160009054906101000a900473ffffffffffffffffffffffffffffffffffffffff1681565b60011515600460009054906101000a900473ffffffffffffffffffffffffffffffffffffffff1673ffffffffffffffffffffffffffffffffffffffff166311479fea868686866040518563ffffffff1660e01b815260040161048c9493929190612062565b60206040518083038186803b1580156104a457600080fd5b505afa1580156104b8573d6000803e3d6000fd5b505050506040513d601f19601f820116820180604052508101906104dc9190611bc5565b15151461051e576040517f08c379a0000000000000000000000000000000000000000000000000000000008152600401610515906121bf565b60405180910390fd5b60011515600560003373ffffffffffffffffffffffffffffffffffffffff1673ffffffffffffffffffffffffffffffffffffffff16815260200190815260200160002060020160009054906101000a900460ff161515146105b4576040517f08c379a00000000000000000000000000000000000000000000000000000000081526004016105ab9061219f565b60405180910390fd5b6000803373ffffffffffffffffffffffffffffffffffffffff1673ffffffffffffffffffffffffffffffffffffffff1681526020019081526020016000206002015481600060038110610630577f4e487b7100000000000000000000000000000000000000000000000000000000600052603260045260246000fd5b602002015114610675576040517f08c379a000000000000000000000000000000000000000000000000000000000815260040161066c9061211f565b60405180910390fd5b600560003373ffffffffffffffffffffffffffffffffffffffff1673ffffffffffffffffffffffffffffffffffffffff16815260200190815260200160002060000154816001600381106106f2577f4e487b7100000000000000000000000000000000000000000000000000000000600052603260045260246000fd5b602002015114610737576040517f08c379a000000000000000000000000000000000000000000000000000000000815260040161072e9061213f565b60405180910390fd5b600560003373ffffffffffffffffffffffffffffffffffffffff1673ffffffffffffffffffffffffffffffffffffffff16815260200190815260200160002060010154816002600381106107b4577f4e487b7100000000000000000000000000000000000000000000000000000000600052603260045260246000fd5b6020020151146107f9576040517f08c379a00000000000000000000000000000000000000000000000000000000081526004016107f09061213f565b60405180910390fd5b600080600560003373ffffffffffffffffffffffffffffffffffffffff1673ffffffffffffffffffffffffffffffffffffffff16815260200190815260200160002060020160019054906101000a900473ffffffffffffffffffffffffffffffffffffffff1673ffffffffffffffffffffffffffffffffffffffff1673ffffffffffffffffffffffffffffffffffffffff168152602001908152602001600020600101546000803373ffffffffffffffffffffffffffffffffffffffff1673ffffffffffffffffffffffffffffffffffffffff168152602001908152602001600020600101541115610ba3576002600080600560003373ffffffffffffffffffffffffffffffffffffffff1673ffffffffffffffffffffffffffffffffffffffff16815260200190815260200160002060020160019054906101000a900473ffffffffffffffffffffffffffffffffffffffff1673ffffffffffffffffffffffffffffffffffffffff1673ffffffffffffffffffffffffffffffffffffffff1681526020019081526020016000206001015461099591906123cf565b6000803373ffffffffffffffffffffffffffffffffffffffff1673ffffffffffffffffffffffffffffffffffffffff16815260200190815260200160002060010160008282546109e59190612379565b925050819055506002600080600560003373ffffffffffffffffffffffffffffffffffffffff1673ffffffffffffffffffffffffffffffffffffffff16815260200190815260200160002060020160019054906101000a900473ffffffffffffffffffffffffffffffffffffffff1673ffffffffffffffffffffffffffffffffffffffff1673ffffffffffffffffffffffffffffffffffffffff16815260200190815260200160002060010154610a9c91906123cf565b600080600560003373ffffffffffffffffffffffffffffffffffffffff1673ffffffffffffffffffffffffffffffffffffffff16815260200190815260200160002060020160019054906101000a900473ffffffffffffffffffffffffffffffffffffffff1673ffffffffffffffffffffffffffffffffffffffff1673ffffffffffffffffffffffffffffffffffffffff168152602001908152602001600020600101819055506000600560003373ffffffffffffffffffffffffffffffffffffffff1673ffffffffffffffffffffffffffffffffffffffff16815260200190815260200160002060020160006101000a81548160ff021916908315150217905550610ef8565b600080600560003373ffffffffffffffffffffffffffffffffffffffff1673ffffffffffffffffffffffffffffffffffffffff16815260200190815260200160002060020160019054906101000a900473ffffffffffffffffffffffffffffffffffffffff1673ffffffffffffffffffffffffffffffffffffffff1673ffffffffffffffffffffffffffffffffffffffff168152602001908152602001600020600101546000803373ffffffffffffffffffffffffffffffffffffffff1673ffffffffffffffffffffffffffffffffffffffff168152602001908152602001600020600101541415610cef576000600560003373ffffffffffffffffffffffffffffffffffffffff1673ffffffffffffffffffffffffffffffffffffffff16815260200190815260200160002060020160006101000a81548160ff021916908315150217905550610ef7565b60026000803373ffffffffffffffffffffffffffffffffffffffff1673ffffffffffffffffffffffffffffffffffffffff16815260200190815260200160002060010154610d3d91906123cf565b600080600560003373ffffffffffffffffffffffffffffffffffffffff1673ffffffffffffffffffffffffffffffffffffffff16815260200190815260200160002060020160019054906101000a900473ffffffffffffffffffffffffffffffffffffffff1673ffffffffffffffffffffffffffffffffffffffff1673ffffffffffffffffffffffffffffffffffffffff1681526020019081526020016000206001016000828254610def9190612379565b9250508190555060026000803373ffffffffffffffffffffffffffffffffffffffff1673ffffffffffffffffffffffffffffffffffffffff16815260200190815260200160002060010154610e4491906123cf565b6000803373ffffffffffffffffffffffffffffffffffffffff1673ffffffffffffffffffffffffffffffffffffffff1681526020019081526020016000206001016000828254610e949190612400565b925050819055506000600560003373ffffffffffffffffffffffffffffffffffffffff1673ffffffffffffffffffffffffffffffffffffffff16815260200190815260200160002060020160006101000a81548160ff0219169083151502179055505b5b50505050565b60405180608001604052808381526020018281526020016001151581526020013373ffffffffffffffffffffffffffffffffffffffff16815250600560008573ffffffffffffffffffffffffffffffffffffffff1673ffffffffffffffffffffffffffffffffffffffff168152602001908152602001600020600082015181600001556020820151816001015560408201518160020160006101000a81548160ff02191690831515021790555060608201518160020160016101000a81548173ffffffffffffffffffffffffffffffffffffffff021916908373ffffffffffffffffffffffffffffffffffffffff16021790555090505060086000803373ffffffffffffffffffffffffffffffffffffffff1673ffffffffffffffffffffffffffffffffffffffff16815260200190815260200160002060010160008282546110479190612400565b92505081905550505050565b60011515600360009054906101000a900473ffffffffffffffffffffffffffffffffffffffff1673ffffffffffffffffffffffffffffffffffffffff166311479fea868686866040518563ffffffff1660e01b81526004016110b89493929190612062565b60206040518083038186803b1580156110d057600080fd5b505afa1580156110e4573d6000803e3d6000fd5b505050506040513d601f19601f820116820180604052508101906111089190611bc5565b15151461114a576040517f08c379a00000000000000000000000000000000000000000000000000000000081526004016111419061217f565b60405180910390fd5b60001515600560003373ffffffffffffffffffffffffffffffffffffffff1673ffffffffffffffffffffffffffffffffffffffff16815260200190815260200160002060020160009054906101000a900460ff161515146111e0576040517f08c379a00000000000000000000000000000000000000000000000000000000081526004016111d79061215f565b60405180910390fd5b60008060003373ffffffffffffffffffffffffffffffffffffffff1673ffffffffffffffffffffffffffffffffffffffff1681526020019081526020016000206040518060800160405290816000820160009054906101000a900473ffffffffffffffffffffffffffffffffffffffff1673ffffffffffffffffffffffffffffffffffffffff1673ffffffffffffffffffffffffffffffffffffffff168152602001600182015481526020016002820154815260200160038201548152505090506008816020015110156112e9576040517f08c379a00000000000000000000000000000000000000000000000000000000081526004016112e0906120ff565b60405180910390fd5b81600060038110611323577f4e487b7100000000000000000000000000000000000000000000000000000000600052603260045260246000fd5b602002015181604001511461136d576040517f08c379a0000000000000000000000000000000000000000000000000000000008152600401611364906120df565b60405180910390fd5b816001600381106113a7577f4e487b7100000000000000000000000000000000000000000000000000000000600052603260045260246000fd5b6020020151816040018181525050816002600381106113ef577f4e487b7100000000000000000000000000000000000000000000000000000000600052603260045260246000fd5b60200201518160600181815250506004816020015161140e9190612400565b8160200181815250505050505050565b600a81565b60011515600260009054906101000a900473ffffffffffffffffffffffffffffffffffffffff1673ffffffffffffffffffffffffffffffffffffffff1663f5c9d69e868686866040518563ffffffff1660e01b8152600401611488949392919061201b565b60206040518083038186803b1580156114a057600080fd5b505afa1580156114b4573d6000803e3d6000fd5b505050506040513d601f19601f820116820180604052508101906114d89190611bc5565b15151461151a576040517f08c379a00000000000000000000000000000000000000000000000000000000081526004016115119061217f565b60405180910390fd5b3373ffffffffffffffffffffffffffffffffffffffff166000803373ffffffffffffffffffffffffffffffffffffffff1673ffffffffffffffffffffffffffffffffffffffff16815260200190815260200160002060000160009054906101000a900473ffffffffffffffffffffffffffffffffffffffff1673ffffffffffffffffffffffffffffffffffffffff1614156115ec57336040517f45ed80e90000000000000000000000000000000000000000000000000000000081526004016115e39190611fbb565b60405180910390fd5b600060405180608001604052803373ffffffffffffffffffffffffffffffffffffffff1681526020016064815260200183600060028110611656577f4e487b7100000000000000000000000000000000000000000000000000000000600052603260045260246000fd5b602002015181526020018360016002811061169a577f4e487b7100000000000000000000000000000000000000000000000000000000600052603260045260246000fd5b60200201518152509050806000803373ffffffffffffffffffffffffffffffffffffffff1673ffffffffffffffffffffffffffffffffffffffff16815260200190815260200160002060008201518160000160006101000a81548173ffffffffffffffffffffffffffffffffffffffff021916908373ffffffffffffffffffffffffffffffffffffffff16021790555060208201518160010155604082015181600201556060820151816003015590505085606a60003373ffffffffffffffffffffffffffffffffffffffff1673ffffffffffffffffffffffffffffffffffffffff16815260200190815260200160002081905550606b339080600181540180825580915050600190039060005260206000200160009091909190916101000a81548173ffffffffffffffffffffffffffffffffffffffff021916908373ffffffffffffffffffffffffffffffffffffffff1602179055503373ffffffffffffffffffffffffffffffffffffffff167fab01b4692bd902b4859dc270e9c93f448cea806bbd1a2d031219e834ccd07554600160405161183991906120a9565b60405180910390a2505050505050565b600460009054906101000a900473ffffffffffffffffffffffffffffffffffffffff1681565b600682600a811061187f57600080fd5b600a020181600a811061189157600080fd5b01600091509150508060000154905081565b60006020528060005260406000206000915090508060000160009054906101000a900473ffffffffffffffffffffffffffffffffffffffff16908060010154908060020154908060030154905084565b606a6020528060005260406000206000915090505481565b600061191e61191984612264565b61223f565b9050808285604086028201111561193457600080fd5b60005b85811015611964578161194a8882611a70565b845260208401935060408301925050600181019050611937565b5050509392505050565b600061198161197c8461228a565b61223f565b9050808285602086028201111561199757600080fd5b60005b858110156119c757816119ad8882611ad3565b84526020840193506020830192505060018101905061199a565b5050509392505050565b60006119e46119df846122b0565b61223f565b905080828560208602820111156119fa57600080fd5b60005b85811015611a2a5781611a108882611ad3565b8452602084019350602083019250506001810190506119fd565b5050509392505050565b600081359050611a43816126b7565b92915050565b600082601f830112611a5a57600080fd5b6002611a6784828561190b565b91505092915050565b600082601f830112611a8157600080fd5b6002611a8e84828561196e565b91505092915050565b600082601f830112611aa857600080fd5b6003611ab58482856119d1565b91505092915050565b600081519050611acd816126ce565b92915050565b600081359050611ae2816126e5565b92915050565b600060208284031215611afa57600080fd5b6000611b0884828501611a34565b91505092915050565b600080600060608486031215611b2657600080fd5b6000611b3486828701611a34565b9350506020611b4586828701611ad3565b9250506040611b5686828701611ad3565b9150509250925092565b6000806000806101608587031215611b7757600080fd5b6000611b8587828801611a70565b9450506040611b9687828801611a49565b93505060c0611ba787828801611a70565b925050610100611bb987828801611a97565b91505092959194509250565b600060208284031215611bd757600080fd5b6000611be584828501611abe565b91505092915050565b600060208284031215611c0057600080fd5b6000611c0e84828501611ad3565b91505092915050565b60008060008060006101608688031215611c3057600080fd5b6000611c3e88828901611ad3565b9550506020611c4f88828901611a70565b9450506060611c6088828901611a49565b93505060e0611c7188828901611a70565b925050610120611c8388828901611a70565b9150509295509295909350565b60008060408385031215611ca357600080fd5b6000611cb185828601611ad3565b9250506020611cc285828601611ad3565b9150509250929050565b6000611cd88383611d62565b60408301905092915050565b6000611cf08383611f9d565b60208301905092915050565b611d0581612434565b82525050565b611d14816122f4565b611d1e818461233c565b9250611d29826122d6565b8060005b83811015611d5a578151611d418782611ccc565b9650611d4c83612315565b925050600181019050611d2d565b505050505050565b611d6b816122ff565b611d758184612347565b9250611d80826122e0565b8060005b83811015611db1578151611d988782611ce4565b9650611da383612322565b925050600181019050611d84565b505050505050565b611dc2816122ff565b611dcc8184612352565b9250611dd7826122e0565b8060005b83811015611e08578151611def8782611ce4565b9650611dfa83612322565b925050600181019050611ddb565b505050505050565b611e198161230a565b611e23818461235d565b9250611e2e826122ea565b8060005b83811015611e5f578151611e468782611ce4565b9650611e518361232f565b925050600181019050611e32565b505050505050565b611e7081612446565b82525050565b611e7f8161247c565b82525050565b6000611e92601083612368565b9150611e9d8261256f565b602082019050919050565b6000611eb5600e83612368565b9150611ec082612598565b602082019050919050565b6000611ed8600b83612368565b9150611ee3826125c1565b602082019050919050565b6000611efb600b83612368565b9150611f06826125ea565b602082019050919050565b6000611f1e600883612368565b9150611f2982612613565b602082019050919050565b6000611f41600d83612368565b9150611f4c8261263c565b602082019050919050565b6000611f64600983612368565b9150611f6f82612665565b602082019050919050565b6000611f87600783612368565b9150611f928261268e565b602082019050919050565b611fa681612472565b82525050565b611fb581612472565b82525050565b6000602082019050611fd06000830184611cfc565b92915050565b6000608082019050611feb6000830187611cfc565b611ff86020830186611fac565b6120056040830185611fac565b6120126060830184611fac565b95945050505050565b6000610140820190506120316000830187611db9565b61203e6040830186611d0b565b61204b60c0830185611db9565b612059610100830184611db9565b95945050505050565b6000610160820190506120786000830187611db9565b6120856040830186611d0b565b61209260c0830185611db9565b6120a0610100830184611e10565b95945050505050565b60006020820190506120be6000830184611e67565b92915050565b60006020820190506120d96000830184611e76565b92915050565b600060208201905081810360008301526120f881611e85565b9050919050565b6000602082019050818103600083015261211881611ea8565b9050919050565b6000602082019050818103600083015261213881611ecb565b9050919050565b6000602082019050818103600083015261215881611eee565b9050919050565b6000602082019050818103600083015261217881611f11565b9050919050565b6000602082019050818103600083015261219881611f34565b9050919050565b600060208201905081810360008301526121b881611f57565b9050919050565b600060208201905081810360008301526121d881611f7a565b9050919050565b60006020820190506121f46000830184611fac565b92915050565b600060808201905061220f6000830187611fac565b61221c6020830186611fac565b6122296040830185611e67565b6122366060830184611cfc565b95945050505050565b600061224961225a565b905061225582826124a0565b919050565b6000604051905090565b600067ffffffffffffffff82111561227f5761227e61252f565b5b602082029050919050565b600067ffffffffffffffff8211156122a5576122a461252f565b5b602082029050919050565b600067ffffffffffffffff8211156122cb576122ca61252f565b5b602082029050919050565b6000819050919050565b6000819050919050565b6000819050919050565b600060029050919050565b600060029050919050565b600060039050919050565b6000602082019050919050565b6000602082019050919050565b6000602082019050919050565b600081905092915050565b600081905092915050565b600081905092915050565b600081905092915050565b600082825260208201905092915050565b600061238482612472565b915061238f83612472565b9250827fffffffffffffffffffffffffffffffffffffffffffffffffffffffffffffffff038211156123c4576123c36124d1565b5b828201905092915050565b60006123da82612472565b91506123e583612472565b9250826123f5576123f4612500565b5b828204905092915050565b600061240b82612472565b915061241683612472565b925082821015612429576124286124d1565b5b828203905092915050565b600061243f82612452565b9050919050565b60008115159050919050565b600073ffffffffffffffffffffffffffffffffffffffff82169050919050565b6000819050919050565b60006124878261248e565b9050919050565b600061249982612452565b9050919050565b6124a98261255e565b810181811067ffffffffffffffff821117156124c8576124c761252f565b5b80604052505050565b7f4e487b7100000000000000000000000000000000000000000000000000000000600052601160045260246000fd5b7f4e487b7100000000000000000000000000000000000000000000000000000000600052601260045260246000fd5b7f4e487b7100000000000000000000000000000000000000000000000000000000600052604160045260246000fd5b6000601f19601f8301169050919050565b7f496e76616c6964206c6f636174696f6e00000000000000000000000000000000600082015250565b7f506c617965722069732064656164000000000000000000000000000000000000600082015250565b7f57726f6e67204775657373000000000000000000000000000000000000000000600082015250565b7f446f6e2774206368656174000000000000000000000000000000000000000000600082015250565b7f446566656e642121000000000000000000000000000000000000000000000000600082015250565b7f496e76616c696420696e70757400000000000000000000000000000000000000600082015250565b7f4e6f2061747461636b0000000000000000000000000000000000000000000000600082015250565b7f496e76616c696400000000000000000000000000000000000000000000000000600082015250565b6126c081612434565b81146126cb57600080fd5b50565b6126d781612446565b81146126e257600080fd5b50565b6126ee81612472565b81146126f957600080fd5b5056fea2646970667358221220986e79945f9d3d43e3b1c6532d08114ae430528c0edb135e2a2984af0456caf664736f6c63430008040033",
  "linkReferences": {},
  "deployedLinkReferences": {}
}