{
  "_format": "hh-sol-artifact-1",
  "contractName": "Footsteps",
  "sourceName": "contracts/Game.sol",
  "abi": [
    {
      "inputs": [
        {
          "internalType": "address",
          "name": "_registerverifier",
          "type": "address"
        },
        {
          "internalType": "address",
          "name": "_moveverifier",
          "type": "address"
        },
        {
          "internalType": "address",
          "name": "_defendverifier",
          "type": "address"
        }
      ],
      "stateMutability": "payable",
      "type": "constructor"
    },
    {
      "inputs": [
        {
          "internalType": "address",
          "name": "player",
          "type": "address"
        }
      ],
      "name": "AlreadyRegistered",
      "type": "error"
    },
    {
      "inputs": [],
      "name": "Cheater",
      "type": "error"
    },
    {
      "inputs": [],
      "name": "Dead",
      "type": "error"
    },
    {
      "inputs": [],
      "name": "DefendFirst",
      "type": "error"
    },
    {
      "inputs": [],
      "name": "InvalidLocation",
      "type": "error"
    },
    {
      "inputs": [],
      "name": "InvalidProof",
      "type": "error"
    },
    {
      "inputs": [],
      "name": "NoAttack",
      "type": "error"
    },
    {
      "inputs": [],
      "name": "WrongGuess",
      "type": "error"
    },
    {
      "anonymous": false,
      "inputs": [
        {
          "indexed": true,
          "internalType": "address",
          "name": "player",
          "type": "address"
        },
        {
          "indexed": false,
          "internalType": "bool",
          "name": "moved",
          "type": "bool"
        }
      ],
      "name": "move",
      "type": "event"
    },
    {
      "anonymous": false,
      "inputs": [
        {
          "indexed": true,
          "internalType": "address",
          "name": "player",
          "type": "address"
        },
        {
          "indexed": false,
          "internalType": "bool",
          "name": "registered",
          "type": "bool"
        }
      ],
      "name": "register",
      "type": "event"
    },
    {
      "inputs": [
        {
          "internalType": "address",
          "name": "player",
          "type": "address"
        },
        {
          "internalType": "uint256",
          "name": "x",
          "type": "uint256"
        },
        {
          "internalType": "uint256",
          "name": "y",
          "type": "uint256"
        }
      ],
      "name": "AttackPlayer",
      "outputs": [],
      "stateMutability": "nonpayable",
      "type": "function"
    },
    {
      "inputs": [
        {
          "internalType": "uint256[2]",
          "name": "a",
          "type": "uint256[2]"
        },
        {
          "internalType": "uint256[2][2]",
          "name": "b",
          "type": "uint256[2][2]"
        },
        {
          "internalType": "uint256[2]",
          "name": "c",
          "type": "uint256[2]"
        },
        {
          "internalType": "uint256[3]",
          "name": "input",
          "type": "uint256[3]"
        }
      ],
      "name": "Defend",
      "outputs": [],
      "stateMutability": "nonpayable",
      "type": "function"
    },
    {
      "inputs": [
        {
          "internalType": "address",
          "name": "",
          "type": "address"
        }
      ],
      "name": "Id",
      "outputs": [
        {
          "internalType": "uint256",
          "name": "",
          "type": "uint256"
        }
      ],
      "stateMutability": "view",
      "type": "function"
    },
    {
      "inputs": [
        {
          "internalType": "uint256[2]",
          "name": "a",
          "type": "uint256[2]"
        },
        {
          "internalType": "uint256[2][2]",
          "name": "b",
          "type": "uint256[2][2]"
        },
        {
          "internalType": "uint256[2]",
          "name": "c",
          "type": "uint256[2]"
        },
        {
          "internalType": "uint256[3]",
          "name": "input",
          "type": "uint256[3]"
        }
      ],
      "name": "Move",
      "outputs": [],
      "stateMutability": "nonpayable",
      "type": "function"
    },
    {
      "inputs": [
        {
          "internalType": "uint256[2]",
          "name": "a",
          "type": "uint256[2]"
        },
        {
          "internalType": "uint256[2][2]",
          "name": "b",
          "type": "uint256[2][2]"
        },
        {
          "internalType": "uint256[2]",
          "name": "c",
          "type": "uint256[2]"
        },
        {
          "internalType": "uint256[2]",
          "name": "input",
          "type": "uint256[2]"
        }
      ],
      "name": "Register",
      "outputs": [],
      "stateMutability": "nonpayable",
      "type": "function"
    },
    {
      "inputs": [
        {
          "internalType": "uint256",
          "name": "",
          "type": "uint256"
        }
      ],
      "name": "activeplayers",
      "outputs": [
        {
          "internalType": "address",
          "name": "",
          "type": "address"
        }
      ],
      "stateMutability": "view",
      "type": "function"
    },
    {
      "inputs": [
        {
          "internalType": "address",
          "name": "",
          "type": "address"
        }
      ],
      "name": "attacks",
      "outputs": [
        {
          "internalType": "uint256",
          "name": "xguess",
          "type": "uint256"
        },
        {
          "internalType": "uint256",
          "name": "yguess",
          "type": "uint256"
        },
        {
          "internalType": "bool",
          "name": "active",
          "type": "bool"
        },
        {
          "internalType": "address",
          "name": "attacker",
          "type": "address"
        }
      ],
      "stateMutability": "view",
      "type": "function"
    },
    {
      "inputs": [],
      "name": "moveverifier",
      "outputs": [
        {
          "internalType": "address",
          "name": "",
          "type": "address"
        }
      ],
      "stateMutability": "view",
      "type": "function"
    },
    {
      "inputs": [],
      "name": "playerid",
      "outputs": [
        {
          "internalType": "uint256",
          "name": "",
          "type": "uint256"
        }
      ],
      "stateMutability": "view",
      "type": "function"
    },
    {
      "inputs": [
        {
          "internalType": "address",
          "name": "",
          "type": "address"
        }
      ],
      "name": "players",
      "outputs": [
        {
          "internalType": "address",
          "name": "player",
          "type": "address"
        },
        {
          "internalType": "uint256",
          "name": "health",
          "type": "uint256"
        },
        {
          "internalType": "uint256",
          "name": "location",
          "type": "uint256"
        },
        {
          "internalType": "uint256",
          "name": "zone",
          "type": "uint256"
        }
      ],
      "stateMutability": "view",
      "type": "function"
    },
    {
      "inputs": [],
      "name": "registerverifier",
      "outputs": [
        {
          "internalType": "address",
          "name": "",
          "type": "address"
        }
      ],
      "stateMutability": "view",
      "type": "function"
    },
    {
      "inputs": [],
      "name": "verifierdefend",
      "outputs": [
        {
          "internalType": "address",
          "name": "",
          "type": "address"
        }
      ],
      "stateMutability": "view",
      "type": "function"
    }
  ],
  "bytecode": "0x60e060405260405162001dcc38038062001dcc8339818101604052810190620000299190620000ee565b8273ffffffffffffffffffffffffffffffffffffffff1660808173ffffffffffffffffffffffffffffffffffffffff1660601b815250508173ffffffffffffffffffffffffffffffffffffffff1660a08173ffffffffffffffffffffffffffffffffffffffff1660601b815250508073ffffffffffffffffffffffffffffffffffffffff1660c08173ffffffffffffffffffffffffffffffffffffffff1660601b8152505050505062000192565b600081519050620000e88162000178565b92915050565b6000806000606084860312156200010457600080fd5b60006200011486828701620000d7565b93505060206200012786828701620000d7565b92505060406200013a86828701620000d7565b9150509250925092565b6000620001518262000158565b9050919050565b600073ffffffffffffffffffffffffffffffffffffffff82169050919050565b620001838162000144565b81146200018f57600080fd5b50565b60805160601c60a05160601c60c05160601c611bec620001e06000396000818161078701526110fb0152600081816102c60152610d8b0152600081816102ea01526103120152611bec6000f3fe608060405234801561001057600080fd5b50600436106100b45760003560e01c80638ce635de116100715780638ce635de146101905780638df07ee4146101ac578063b53c99f6146101c8578063dba93c0f146101e6578063dce41b7e14610216578063e2eb41ff14610234576100b4565b806306e78130146100b95780630e331afa146100ec578063318e8b301461010a5780634081b7721461012857806349ee8387146101445780638b812ae114610174575b600080fd5b6100d360048036038101906100ce9190611368565b610267565b6040516100e394939291906117e8565b60405180910390f35b6100f46102c4565b60405161010191906116c4565b60405180910390f35b6101126102e8565b60405161011f91906116c4565b60405180910390f35b610142600480360381019061013d91906113e0565b61030c565b005b61015e600480360381019061015991906114d3565b610742565b60405161016b91906116c4565b60405180910390f35b61018e60048036038101906101899190611445565b610781565b005b6101aa60048036038101906101a59190611391565b610c2f565b005b6101c660048036038101906101c19190611445565b610d85565b005b6101d06110f9565b6040516101dd91906116c4565b60405180910390f35b61020060048036038101906101fb9190611368565b61111d565b60405161020d91906117cd565b60405180910390f35b61021e611135565b60405161022b91906117cd565b60405180910390f35b61024e60048036038101906102499190611368565b61113b565b60405161025e94939291906116df565b60405180910390f35b60046020528060005260406000206000915090508060000154908060010154908060020160009054906101000a900460ff16908060020160019054906101000a900473ffffffffffffffffffffffffffffffffffffffff16905084565b7f000000000000000000000000000000000000000000000000000000000000000081565b7f000000000000000000000000000000000000000000000000000000000000000081565b600115157f000000000000000000000000000000000000000000000000000000000000000073ffffffffffffffffffffffffffffffffffffffff1663f5c9d69e868686866040518563ffffffff1660e01b815260040161036f9493929190611724565b60206040518083038186803b15801561038757600080fd5b505afa15801561039b573d6000803e3d6000fd5b505050506040513d601f19601f820116820180604052508101906103bf91906114aa565b1515146103f8576040517f09bde33900000000000000000000000000000000000000000000000000000000815260040160405180910390fd5b3373ffffffffffffffffffffffffffffffffffffffff16600360003373ffffffffffffffffffffffffffffffffffffffff1673ffffffffffffffffffffffffffffffffffffffff16815260200190815260200160002060000160009054906101000a900473ffffffffffffffffffffffffffffffffffffffff1673ffffffffffffffffffffffffffffffffffffffff1614156104cb57336040517f45ed80e90000000000000000000000000000000000000000000000000000000081526004016104c291906116c4565b60405180910390fd5b600060405180608001604052803373ffffffffffffffffffffffffffffffffffffffff1681526020016064815260200183600060028110610535577f4e487b7100000000000000000000000000000000000000000000000000000000600052603260045260246000fd5b6020020151815260200183600160028110610579577f4e487b7100000000000000000000000000000000000000000000000000000000600052603260045260246000fd5b6020020151815250905080600360003373ffffffffffffffffffffffffffffffffffffffff1673ffffffffffffffffffffffffffffffffffffffff16815260200190815260200160002060008201518160000160006101000a81548173ffffffffffffffffffffffffffffffffffffffff021916908373ffffffffffffffffffffffffffffffffffffffff160217905550602082015181600101556040820151816002015560608201518160030155905050600154600260003373ffffffffffffffffffffffffffffffffffffffff1673ffffffffffffffffffffffffffffffffffffffff168152602001908152602001600020819055506000339080600181540180825580915050600190039060005260206000200160009091909190916101000a81548173ffffffffffffffffffffffffffffffffffffffff021916908373ffffffffffffffffffffffffffffffffffffffff160217905550600160008154809291906106e790611a8a565b91905055503373ffffffffffffffffffffffffffffffffffffffff167fab01b4692bd902b4859dc270e9c93f448cea806bbd1a2d031219e834ccd07554600160405161073391906117b2565b60405180910390a25050505050565b6000818154811061075257600080fd5b906000526020600020016000915054906101000a900473ffffffffffffffffffffffffffffffffffffffff1681565b600115157f000000000000000000000000000000000000000000000000000000000000000073ffffffffffffffffffffffffffffffffffffffff166311479fea868686866040518563ffffffff1660e01b81526004016107e4949392919061176b565b60206040518083038186803b1580156107fc57600080fd5b505afa158015610810573d6000803e3d6000fd5b505050506040513d601f19601f8201168201806040525081019061083491906114aa565b15151461086d576040517f09bde33900000000000000000000000000000000000000000000000000000000815260040160405180910390fd5b6000600360003373ffffffffffffffffffffffffffffffffffffffff1673ffffffffffffffffffffffffffffffffffffffff16815260200190815260200160002090506000600460003373ffffffffffffffffffffffffffffffffffffffff1673ffffffffffffffffffffffffffffffffffffffff16815260200190815260200160002090506000600360008360020160019054906101000a900473ffffffffffffffffffffffffffffffffffffffff1673ffffffffffffffffffffffffffffffffffffffff1673ffffffffffffffffffffffffffffffffffffffff1681526020019081526020016000209050600015158260020160009054906101000a900460ff16151514156109aa576040517f83df6c5400000000000000000000000000000000000000000000000000000000815260040160405180910390fd5b8260020154846000600381106109e9577f4e487b7100000000000000000000000000000000000000000000000000000000600052603260045260246000fd5b602002015114610a25576040517f0d54d5cf00000000000000000000000000000000000000000000000000000000815260040160405180910390fd5b816000015484600160038110610a64577f4e487b7100000000000000000000000000000000000000000000000000000000600052603260045260246000fd5b602002015114610aa0576040517fe387c80000000000000000000000000000000000000000000000000000000000815260040160405180910390fd5b816001015484600260038110610adf577f4e487b7100000000000000000000000000000000000000000000000000000000600052603260045260246000fd5b602002015114610b1b576040517fe387c80000000000000000000000000000000000000000000000000000000000815260040160405180910390fd5b806001015483600101541115610b915760028160010154610b3c91906119ac565b836001016000828254610b4f9190611956565b9250508190555060028160010154610b6791906119ac565b816001018190555060008260020160006101000a81548160ff021916908315150217905550610c26565b806001015483600101541415610bc35760008260020160006101000a81548160ff021916908315150217905550610c25565b60028360010154610bd491906119ac565b816001016000828254610be79190611956565b9250508190555060028360010154610bff91906119ac565b836001018190555060008260020160006101000a81548160ff0219169083151502179055505b5b50505050505050565b60405180608001604052808381526020018281526020016001151581526020013373ffffffffffffffffffffffffffffffffffffffff16815250600460008573ffffffffffffffffffffffffffffffffffffffff1673ffffffffffffffffffffffffffffffffffffffff168152602001908152602001600020600082015181600001556020820151816001015560408201518160020160006101000a81548160ff02191690831515021790555060608201518160020160016101000a81548173ffffffffffffffffffffffffffffffffffffffff021916908373ffffffffffffffffffffffffffffffffffffffff1602179055509050506008600360003373ffffffffffffffffffffffffffffffffffffffff1673ffffffffffffffffffffffffffffffffffffffff1681526020019081526020016000206001016000828254610d7991906119dd565b92505081905550505050565b600115157f000000000000000000000000000000000000000000000000000000000000000073ffffffffffffffffffffffffffffffffffffffff166311479fea868686866040518563ffffffff1660e01b8152600401610de8949392919061176b565b60206040518083038186803b158015610e0057600080fd5b505afa158015610e14573d6000803e3d6000fd5b505050506040513d601f19601f82011682018060405250810190610e3891906114aa565b151514610e71576040517f09bde33900000000000000000000000000000000000000000000000000000000815260040160405180910390fd5b60011515600460003373ffffffffffffffffffffffffffffffffffffffff1673ffffffffffffffffffffffffffffffffffffffff16815260200190815260200160002060020160009054906101000a900460ff1615151415610eff576040517f7312e43a00000000000000000000000000000000000000000000000000000000815260040160405180910390fd5b6000600360003373ffffffffffffffffffffffffffffffffffffffff1673ffffffffffffffffffffffffffffffffffffffff1681526020019081526020016000209050600881600101541015610f81576040517f82c4767b00000000000000000000000000000000000000000000000000000000815260040160405180910390fd5b81600060038110610fbb577f4e487b7100000000000000000000000000000000000000000000000000000000600052603260045260246000fd5b6020020151816002015414610ffc576040517ff80f144500000000000000000000000000000000000000000000000000000000815260040160405180910390fd5b81600160038110611036577f4e487b7100000000000000000000000000000000000000000000000000000000600052603260045260246000fd5b602002015181600201819055508160026003811061107d577f4e487b7100000000000000000000000000000000000000000000000000000000600052603260045260246000fd5b602002015181600301819055506004816001015461109b91906119dd565b81600101819055503373ffffffffffffffffffffffffffffffffffffffff167fec69a90467aaa43beb6a73755fe1b4c7fbddd7890fb1f7fa700f79289d0ba19460016040516110ea91906117b2565b60405180910390a25050505050565b7f000000000000000000000000000000000000000000000000000000000000000081565b60026020528060005260406000206000915090505481565b60015481565b60036020528060005260406000206000915090508060000160009054906101000a900473ffffffffffffffffffffffffffffffffffffffff16908060010154908060020154908060030154905084565b600061119e61119984611852565b61182d565b905080828560408602820111156111b457600080fd5b60005b858110156111e457816111ca88826112f0565b8452602084019350604083019250506001810190506111b7565b5050509392505050565b60006112016111fc84611878565b61182d565b9050808285602086028201111561121757600080fd5b60005b85811015611247578161122d8882611353565b84526020840193506020830192505060018101905061121a565b5050509392505050565b600061126461125f8461189e565b61182d565b9050808285602086028201111561127a57600080fd5b60005b858110156112aa57816112908882611353565b84526020840193506020830192505060018101905061127d565b5050509392505050565b6000813590506112c381611b71565b92915050565b600082601f8301126112da57600080fd5b60026112e784828561118b565b91505092915050565b600082601f83011261130157600080fd5b600261130e8482856111ee565b91505092915050565b600082601f83011261132857600080fd5b6003611335848285611251565b91505092915050565b60008151905061134d81611b88565b92915050565b60008135905061136281611b9f565b92915050565b60006020828403121561137a57600080fd5b6000611388848285016112b4565b91505092915050565b6000806000606084860312156113a657600080fd5b60006113b4868287016112b4565b93505060206113c586828701611353565b92505060406113d686828701611353565b9150509250925092565b60008060008061014085870312156113f757600080fd5b6000611405878288016112f0565b9450506040611416878288016112c9565b93505060c0611427878288016112f0565b925050610100611439878288016112f0565b91505092959194509250565b600080600080610160858703121561145c57600080fd5b600061146a878288016112f0565b945050604061147b878288016112c9565b93505060c061148c878288016112f0565b92505061010061149e87828801611317565b91505092959194509250565b6000602082840312156114bc57600080fd5b60006114ca8482850161133e565b91505092915050565b6000602082840312156114e557600080fd5b60006114f384828501611353565b91505092915050565b60006115088383611592565b60408301905092915050565b600061152083836116a6565b60208301905092915050565b61153581611a11565b82525050565b611544816118e2565b61154e818461192a565b9250611559826118c4565b8060005b8381101561158a57815161157187826114fc565b965061157c83611903565b92505060018101905061155d565b505050505050565b61159b816118ed565b6115a58184611935565b92506115b0826118ce565b8060005b838110156115e15781516115c88782611514565b96506115d383611910565b9250506001810190506115b4565b505050505050565b6115f2816118ed565b6115fc8184611940565b9250611607826118ce565b8060005b8381101561163857815161161f8782611514565b965061162a83611910565b92505060018101905061160b565b505050505050565b611649816118f8565b611653818461194b565b925061165e826118d8565b8060005b8381101561168f5781516116768782611514565b96506116818361191d565b925050600181019050611662565b505050505050565b6116a081611a23565b82525050565b6116af81611a4f565b82525050565b6116be81611a4f565b82525050565b60006020820190506116d9600083018461152c565b92915050565b60006080820190506116f4600083018761152c565b61170160208301866116b5565b61170e60408301856116b5565b61171b60608301846116b5565b95945050505050565b60006101408201905061173a60008301876115e9565b611747604083018661153b565b61175460c08301856115e9565b6117626101008301846115e9565b95945050505050565b60006101608201905061178160008301876115e9565b61178e604083018661153b565b61179b60c08301856115e9565b6117a9610100830184611640565b95945050505050565b60006020820190506117c76000830184611697565b92915050565b60006020820190506117e260008301846116b5565b92915050565b60006080820190506117fd60008301876116b5565b61180a60208301866116b5565b6118176040830185611697565b611824606083018461152c565b95945050505050565b6000611837611848565b90506118438282611a59565b919050565b6000604051905090565b600067ffffffffffffffff82111561186d5761186c611b31565b5b602082029050919050565b600067ffffffffffffffff82111561189357611892611b31565b5b602082029050919050565b600067ffffffffffffffff8211156118b9576118b8611b31565b5b602082029050919050565b6000819050919050565b6000819050919050565b6000819050919050565b600060029050919050565b600060029050919050565b600060039050919050565b6000602082019050919050565b6000602082019050919050565b6000602082019050919050565b600081905092915050565b600081905092915050565b600081905092915050565b600081905092915050565b600061196182611a4f565b915061196c83611a4f565b9250827fffffffffffffffffffffffffffffffffffffffffffffffffffffffffffffffff038211156119a1576119a0611ad3565b5b828201905092915050565b60006119b782611a4f565b91506119c283611a4f565b9250826119d2576119d1611b02565b5b828204905092915050565b60006119e882611a4f565b91506119f383611a4f565b925082821015611a0657611a05611ad3565b5b828203905092915050565b6000611a1c82611a2f565b9050919050565b60008115159050919050565b600073ffffffffffffffffffffffffffffffffffffffff82169050919050565b6000819050919050565b611a6282611b60565b810181811067ffffffffffffffff82111715611a8157611a80611b31565b5b80604052505050565b6000611a9582611a4f565b91507fffffffffffffffffffffffffffffffffffffffffffffffffffffffffffffffff821415611ac857611ac7611ad3565b5b600182019050919050565b7f4e487b7100000000000000000000000000000000000000000000000000000000600052601160045260246000fd5b7f4e487b7100000000000000000000000000000000000000000000000000000000600052601260045260246000fd5b7f4e487b7100000000000000000000000000000000000000000000000000000000600052604160045260246000fd5b6000601f19601f8301169050919050565b611b7a81611a11565b8114611b8557600080fd5b50565b611b9181611a23565b8114611b9c57600080fd5b50565b611ba881611a4f565b8114611bb357600080fd5b5056fea2646970667358221220ceee3d687510d0dd46963f5d7a38be2a5a16747b72574b1393d483f0e5c264ca64736f6c63430008040033",
  "linkReferences": {},
  "deployedLinkReferences": {}
}