{
  "_format": "hh-sol-artifact-1",
  "contractName": "Footsteps",
  "sourceName": "contracts/Game.sol",
  "abi": [
    {
      "inputs": [
        {
          "internalType": "address",
          "name": "_registerverifier",
          "type": "address"
        },
        {
          "internalType": "address",
          "name": "_moveverifier",
          "type": "address"
        },
        {
          "internalType": "address",
          "name": "_defendverifier",
          "type": "address"
        }
      ],
      "stateMutability": "payable",
      "type": "constructor"
    },
    {
      "inputs": [
        {
          "internalType": "address",
          "name": "player",
          "type": "address"
        }
      ],
      "name": "AlreadyRegistered",
      "type": "error"
    },
    {
      "inputs": [],
      "name": "Cheater",
      "type": "error"
    },
    {
      "inputs": [],
      "name": "Dead",
      "type": "error"
    },
    {
      "inputs": [],
      "name": "DefendFirst",
      "type": "error"
    },
    {
      "inputs": [],
      "name": "InvalidLocation",
      "type": "error"
    },
    {
      "inputs": [],
      "name": "InvalidProof",
      "type": "error"
    },
    {
      "inputs": [],
      "name": "NoAttack",
      "type": "error"
    },
    {
      "inputs": [],
      "name": "WrongGuess",
      "type": "error"
    },
    {
      "inputs": [],
      "name": "ZombiesNotAllowed",
      "type": "error"
    },
    {
      "anonymous": false,
      "inputs": [
        {
          "indexed": true,
          "internalType": "address",
          "name": "attacker",
          "type": "address"
        },
        {
          "indexed": true,
          "internalType": "address",
          "name": "victim",
          "type": "address"
        }
      ],
      "name": "attack",
      "type": "event"
    },
    {
      "anonymous": false,
      "inputs": [
        {
          "indexed": true,
          "internalType": "address",
          "name": "player",
          "type": "address"
        },
        {
          "indexed": true,
          "internalType": "bool",
          "name": "deadornot",
          "type": "bool"
        }
      ],
      "name": "dead",
      "type": "event"
    },
    {
      "anonymous": false,
      "inputs": [
        {
          "indexed": true,
          "internalType": "address",
          "name": "gained",
          "type": "address"
        }
      ],
      "name": "defend",
      "type": "event"
    },
    {
      "anonymous": false,
      "inputs": [
        {
          "indexed": true,
          "internalType": "address",
          "name": "player",
          "type": "address"
        },
        {
          "indexed": true,
          "internalType": "bool",
          "name": "moved",
          "type": "bool"
        }
      ],
      "name": "move",
      "type": "event"
    },
    {
      "anonymous": false,
      "inputs": [
        {
          "indexed": true,
          "internalType": "address",
          "name": "player",
          "type": "address"
        },
        {
          "indexed": true,
          "internalType": "bool",
          "name": "registered",
          "type": "bool"
        }
      ],
      "name": "register",
      "type": "event"
    },
    {
      "inputs": [
        {
          "internalType": "address",
          "name": "player",
          "type": "address"
        },
        {
          "internalType": "uint256",
          "name": "x",
          "type": "uint256"
        },
        {
          "internalType": "uint256",
          "name": "y",
          "type": "uint256"
        }
      ],
      "name": "AttackPlayer",
      "outputs": [],
      "stateMutability": "nonpayable",
      "type": "function"
    },
    {
      "inputs": [
        {
          "internalType": "uint256[2]",
          "name": "a",
          "type": "uint256[2]"
        },
        {
          "internalType": "uint256[2][2]",
          "name": "b",
          "type": "uint256[2][2]"
        },
        {
          "internalType": "uint256[2]",
          "name": "c",
          "type": "uint256[2]"
        },
        {
          "internalType": "uint256[3]",
          "name": "input",
          "type": "uint256[3]"
        }
      ],
      "name": "Defend",
      "outputs": [],
      "stateMutability": "nonpayable",
      "type": "function"
    },
    {
      "inputs": [
        {
          "internalType": "address",
          "name": "",
          "type": "address"
        }
      ],
      "name": "Id",
      "outputs": [
        {
          "internalType": "uint256",
          "name": "",
          "type": "uint256"
        }
      ],
      "stateMutability": "view",
      "type": "function"
    },
    {
      "inputs": [
        {
          "internalType": "uint256[2]",
          "name": "a",
          "type": "uint256[2]"
        },
        {
          "internalType": "uint256[2][2]",
          "name": "b",
          "type": "uint256[2][2]"
        },
        {
          "internalType": "uint256[2]",
          "name": "c",
          "type": "uint256[2]"
        },
        {
          "internalType": "uint256[3]",
          "name": "input",
          "type": "uint256[3]"
        }
      ],
      "name": "Move",
      "outputs": [],
      "stateMutability": "nonpayable",
      "type": "function"
    },
    {
      "inputs": [
        {
          "internalType": "uint256[2]",
          "name": "a",
          "type": "uint256[2]"
        },
        {
          "internalType": "uint256[2][2]",
          "name": "b",
          "type": "uint256[2][2]"
        },
        {
          "internalType": "uint256[2]",
          "name": "c",
          "type": "uint256[2]"
        },
        {
          "internalType": "uint256[2]",
          "name": "input",
          "type": "uint256[2]"
        }
      ],
      "name": "Register",
      "outputs": [],
      "stateMutability": "nonpayable",
      "type": "function"
    },
    {
      "inputs": [],
      "name": "TotalPlayers",
      "outputs": [
        {
          "internalType": "uint256",
          "name": "",
          "type": "uint256"
        }
      ],
      "stateMutability": "view",
      "type": "function"
    },
    {
      "inputs": [
        {
          "internalType": "uint256",
          "name": "",
          "type": "uint256"
        }
      ],
      "name": "activeplayers",
      "outputs": [
        {
          "internalType": "address",
          "name": "",
          "type": "address"
        }
      ],
      "stateMutability": "view",
      "type": "function"
    },
    {
      "inputs": [
        {
          "internalType": "address",
          "name": "",
          "type": "address"
        }
      ],
      "name": "attacks",
      "outputs": [
        {
          "internalType": "uint256",
          "name": "xguess",
          "type": "uint256"
        },
        {
          "internalType": "uint256",
          "name": "yguess",
          "type": "uint256"
        },
        {
          "internalType": "bool",
          "name": "active",
          "type": "bool"
        },
        {
          "internalType": "address",
          "name": "attacker",
          "type": "address"
        }
      ],
      "stateMutability": "view",
      "type": "function"
    },
    {
      "inputs": [],
      "name": "moveverifier",
      "outputs": [
        {
          "internalType": "address",
          "name": "",
          "type": "address"
        }
      ],
      "stateMutability": "view",
      "type": "function"
    },
    {
      "inputs": [],
      "name": "playerid",
      "outputs": [
        {
          "internalType": "uint256",
          "name": "",
          "type": "uint256"
        }
      ],
      "stateMutability": "view",
      "type": "function"
    },
    {
      "inputs": [
        {
          "internalType": "address",
          "name": "",
          "type": "address"
        }
      ],
      "name": "players",
      "outputs": [
        {
          "internalType": "address",
          "name": "player",
          "type": "address"
        },
        {
          "internalType": "uint256",
          "name": "health",
          "type": "uint256"
        },
        {
          "internalType": "uint256",
          "name": "location",
          "type": "uint256"
        },
        {
          "internalType": "uint256",
          "name": "zone",
          "type": "uint256"
        },
        {
          "internalType": "bool",
          "name": "alive",
          "type": "bool"
        }
      ],
      "stateMutability": "view",
      "type": "function"
    },
    {
      "inputs": [],
      "name": "registerverifier",
      "outputs": [
        {
          "internalType": "address",
          "name": "",
          "type": "address"
        }
      ],
      "stateMutability": "view",
      "type": "function"
    },
    {
      "inputs": [],
      "name": "verifierdefend",
      "outputs": [
        {
          "internalType": "address",
          "name": "",
          "type": "address"
        }
      ],
      "stateMutability": "view",
      "type": "function"
    }
  ],
  "bytecode": "0x60e060405260018055604051620027503803806200275083398181016040528101906200002d9190620000f2565b8273ffffffffffffffffffffffffffffffffffffffff1660808173ffffffffffffffffffffffffffffffffffffffff1660601b815250508173ffffffffffffffffffffffffffffffffffffffff1660a08173ffffffffffffffffffffffffffffffffffffffff1660601b815250508073ffffffffffffffffffffffffffffffffffffffff1660c08173ffffffffffffffffffffffffffffffffffffffff1660601b8152505050505062000196565b600081519050620000ec816200017c565b92915050565b6000806000606084860312156200010857600080fd5b60006200011886828701620000db565b93505060206200012b86828701620000db565b92505060406200013e86828701620000db565b9150509250925092565b600062000155826200015c565b9050919050565b600073ffffffffffffffffffffffffffffffffffffffff82169050919050565b620001878162000148565b81146200019357600080fd5b50565b60805160601c60a05160601c60c05160601c61256c620001e46000396000818161090c01526115a40152600081816103000152611222015260008181610324015261034c015261256c6000f3fe608060405234801561001057600080fd5b50600436106100cf5760003560e01c80638ce635de1161008c578063d1d0086611610066578063d1d0086614610201578063dba93c0f1461021f578063dce41b7e1461024f578063e2eb41ff1461026d576100cf565b80638ce635de146101ab5780638df07ee4146101c7578063b53c99f6146101e3576100cf565b806306e78130146100d45780630e331afa14610107578063318e8b30146101255780634081b7721461014357806349ee83871461015f5780638b812ae11461018f575b600080fd5b6100ee60048036038101906100e99190611c1e565b6102a1565b6040516100fe94939291906120d4565b60405180910390f35b61010f6102fe565b60405161011c9190611f9d565b60405180910390f35b61012d610322565b60405161013a9190611f9d565b60405180910390f35b61015d60048036038101906101589190611c96565b610346565b005b61017960048036038101906101749190611d89565b6108c7565b6040516101869190611f9d565b60405180910390f35b6101a960048036038101906101a49190611cfb565b610906565b005b6101c560048036038101906101c09190611c47565b610f1d565b005b6101e160048036038101906101dc9190611cfb565b61121c565b005b6101eb6115a2565b6040516101f89190611f9d565b60405180910390f35b6102096115c6565b60405161021691906120b9565b60405180910390f35b61023960048036038101906102349190611c1e565b6115d2565b60405161024691906120b9565b60405180910390f35b6102576115ea565b60405161026491906120b9565b60405180910390f35b61028760048036038101906102829190611c1e565b6115f0565b604051610298959493929190611fb8565b60405180910390f35b60046020528060005260406000206000915090508060000154908060010154908060020160009054906101000a900460ff16908060020160019054906101000a900473ffffffffffffffffffffffffffffffffffffffff16905084565b7f000000000000000000000000000000000000000000000000000000000000000081565b7f000000000000000000000000000000000000000000000000000000000000000081565b600115157f000000000000000000000000000000000000000000000000000000000000000073ffffffffffffffffffffffffffffffffffffffff1663f5c9d69e868686866040518563ffffffff1660e01b81526004016103a9949392919061200b565b60206040518083038186803b1580156103c157600080fd5b505afa1580156103d5573d6000803e3d6000fd5b505050506040513d601f19601f820116820180604052508101906103f99190611d60565b151514610432576040517f09bde33900000000000000000000000000000000000000000000000000000000815260040160405180910390fd5b6000600360003373ffffffffffffffffffffffffffffffffffffffff1673ffffffffffffffffffffffffffffffffffffffff1681526020019081526020016000206040518060a00160405290816000820160009054906101000a900473ffffffffffffffffffffffffffffffffffffffff1673ffffffffffffffffffffffffffffffffffffffff1673ffffffffffffffffffffffffffffffffffffffff1681526020016001820154815260200160028201548152602001600382015481526020016004820160009054906101000a900460ff16151515158152505090503373ffffffffffffffffffffffffffffffffffffffff16816000015173ffffffffffffffffffffffffffffffffffffffff1614801561055357506008816020015110155b1561059557336040517f45ed80e900000000000000000000000000000000000000000000000000000000815260040161058c9190611f9d565b60405180910390fd5b3373ffffffffffffffffffffffffffffffffffffffff16816000015173ffffffffffffffffffffffffffffffffffffffff161480156105d8575060088160200151105b156105e7576105e633611653565b5b60006040518060a001604052803373ffffffffffffffffffffffffffffffffffffffff1681526020016064815260200184600060028110610651577f4e487b7100000000000000000000000000000000000000000000000000000000600052603260045260246000fd5b6020020151815260200184600160028110610695577f4e487b7100000000000000000000000000000000000000000000000000000000600052603260045260246000fd5b6020020151815260200160011515815250905080600360003373ffffffffffffffffffffffffffffffffffffffff1673ffffffffffffffffffffffffffffffffffffffff16815260200190815260200160002060008201518160000160006101000a81548173ffffffffffffffffffffffffffffffffffffffff021916908373ffffffffffffffffffffffffffffffffffffffff16021790555060208201518160010155604082015181600201556060820151816003015560808201518160040160006101000a81548160ff021916908315150217905550905050600154600260003373ffffffffffffffffffffffffffffffffffffffff1673ffffffffffffffffffffffffffffffffffffffff168152602001908152602001600020819055506000339080600181540180825580915050600190039060005260206000200160009091909190916101000a81548173ffffffffffffffffffffffffffffffffffffffff021916908373ffffffffffffffffffffffffffffffffffffffff1602179055506000808054905011610860576040517f08c379a000000000000000000000000000000000000000000000000000000000815260040161085790612099565b60405180910390fd5b60016000815480929190610873906123e1565b9190505550600115153373ffffffffffffffffffffffffffffffffffffffff167fab01b4692bd902b4859dc270e9c93f448cea806bbd1a2d031219e834ccd0755460405160405180910390a3505050505050565b600081815481106108d757600080fd5b906000526020600020016000915054906101000a900473ffffffffffffffffffffffffffffffffffffffff1681565b600115157f000000000000000000000000000000000000000000000000000000000000000073ffffffffffffffffffffffffffffffffffffffff166311479fea868686866040518563ffffffff1660e01b81526004016109699493929190612052565b60206040518083038186803b15801561098157600080fd5b505afa158015610995573d6000803e3d6000fd5b505050506040513d601f19601f820116820180604052508101906109b99190611d60565b1515146109f2576040517f09bde33900000000000000000000000000000000000000000000000000000000815260040160405180910390fd5b6008600360003373ffffffffffffffffffffffffffffffffffffffff1673ffffffffffffffffffffffffffffffffffffffff168152602001908152602001600020600101541015610a6f576040517f82c4767b00000000000000000000000000000000000000000000000000000000815260040160405180910390fd5b6000600360003373ffffffffffffffffffffffffffffffffffffffff1673ffffffffffffffffffffffffffffffffffffffff16815260200190815260200160002090506000600460003373ffffffffffffffffffffffffffffffffffffffff1673ffffffffffffffffffffffffffffffffffffffff16815260200190815260200160002090506000600360008360020160019054906101000a900473ffffffffffffffffffffffffffffffffffffffff1673ffffffffffffffffffffffffffffffffffffffff1673ffffffffffffffffffffffffffffffffffffffff1681526020019081526020016000209050600015158260020160009054906101000a900460ff1615151415610bac576040517f83df6c5400000000000000000000000000000000000000000000000000000000815260040160405180910390fd5b826002015484600060038110610beb577f4e487b7100000000000000000000000000000000000000000000000000000000600052603260045260246000fd5b602002015114610c27576040517f0d54d5cf00000000000000000000000000000000000000000000000000000000815260040160405180910390fd5b816000015484600160038110610c66577f4e487b7100000000000000000000000000000000000000000000000000000000600052603260045260246000fd5b602002015114610ca2576040517fe387c80000000000000000000000000000000000000000000000000000000000815260040160405180910390fd5b816001015484600260038110610ce1577f4e487b7100000000000000000000000000000000000000000000000000000000600052603260045260246000fd5b602002015114610d1d576040517fe387c80000000000000000000000000000000000000000000000000000000000815260040160405180910390fd5b600115158260020160009054906101000a900460ff1615151415610efd57806001015483600101541115610e005760058160010154610d5c91906122a9565b836001016000828254610d6f9190612253565b92505081905550600460058260010154610d8991906122a9565b610d9391906122da565b816001018190555060008260020160006101000a81548160ff0219169083151502179055503373ffffffffffffffffffffffffffffffffffffffff167fa63f44fcd523408034594e29915d3d6c5c388867dca5295ddce796dd892b7f9560405160405180910390a2610efc565b806001015483600101541415610e325760008260020160006101000a81548160ff021916908315150217905550610efb565b60028360010154610e4391906122a9565b816001016000828254610e569190612253565b9250508190555060028360010154610e6e91906122a9565b836001018190555060008260020160006101000a81548160ff0219169083151502179055508060000160009054906101000a900473ffffffffffffffffffffffffffffffffffffffff1673ffffffffffffffffffffffffffffffffffffffff167fa63f44fcd523408034594e29915d3d6c5c388867dca5295ddce796dd892b7f9560405160405180910390a25b5b5b600883600101541015610f1457610f1333611653565b5b50505050505050565b6008600360003373ffffffffffffffffffffffffffffffffffffffff1673ffffffffffffffffffffffffffffffffffffffff168152602001908152602001600020600101541015610f9a576040517f82c4767b00000000000000000000000000000000000000000000000000000000815260040160405180910390fd5b6008600360008573ffffffffffffffffffffffffffffffffffffffff1673ffffffffffffffffffffffffffffffffffffffff168152602001908152602001600020600101541015611017576040517f42a900fa00000000000000000000000000000000000000000000000000000000815260040160405180910390fd5b60405180608001604052808381526020018281526020016001151581526020013373ffffffffffffffffffffffffffffffffffffffff16815250600460008573ffffffffffffffffffffffffffffffffffffffff1673ffffffffffffffffffffffffffffffffffffffff168152602001908152602001600020600082015181600001556020820151816001015560408201518160020160006101000a81548160ff02191690831515021790555060608201518160020160016101000a81548173ffffffffffffffffffffffffffffffffffffffff021916908373ffffffffffffffffffffffffffffffffffffffff1602179055509050506008600360003373ffffffffffffffffffffffffffffffffffffffff1673ffffffffffffffffffffffffffffffffffffffff16815260200190815260200160002060010160008282546111619190612334565b925050819055506008600360003373ffffffffffffffffffffffffffffffffffffffff1673ffffffffffffffffffffffffffffffffffffffff1681526020019081526020016000206001015410156111bd576111bc33611653565b5b8273ffffffffffffffffffffffffffffffffffffffff163373ffffffffffffffffffffffffffffffffffffffff167f3c48664cb6fd3ecd632fdd260eb37601c11dc687890c2457b67aedb8a46c051e60405160405180910390a3505050565b600115157f000000000000000000000000000000000000000000000000000000000000000073ffffffffffffffffffffffffffffffffffffffff166311479fea868686866040518563ffffffff1660e01b815260040161127f9493929190612052565b60206040518083038186803b15801561129757600080fd5b505afa1580156112ab573d6000803e3d6000fd5b505050506040513d601f19601f820116820180604052508101906112cf9190611d60565b151514611308576040517f09bde33900000000000000000000000000000000000000000000000000000000815260040160405180910390fd5b60011515600460003373ffffffffffffffffffffffffffffffffffffffff1673ffffffffffffffffffffffffffffffffffffffff16815260200190815260200160002060020160009054906101000a900460ff1615151415611396576040517f7312e43a00000000000000000000000000000000000000000000000000000000815260040160405180910390fd5b6000600360003373ffffffffffffffffffffffffffffffffffffffff1673ffffffffffffffffffffffffffffffffffffffff1681526020019081526020016000209050600881600101541015611418576040517f82c4767b00000000000000000000000000000000000000000000000000000000815260040160405180910390fd5b81600060038110611452577f4e487b7100000000000000000000000000000000000000000000000000000000600052603260045260246000fd5b6020020151816002015414611493576040517ff80f144500000000000000000000000000000000000000000000000000000000815260040160405180910390fd5b816001600381106114cd577f4e487b7100000000000000000000000000000000000000000000000000000000600052603260045260246000fd5b6020020151816002018190555081600260038110611514577f4e487b7100000000000000000000000000000000000000000000000000000000600052603260045260246000fd5b6020020151816003018190555060048160010160008282546115369190612334565b925050819055506008816001015410156115545761155333611653565b5b600115153373ffffffffffffffffffffffffffffffffffffffff167fec69a90467aaa43beb6a73755fe1b4c7fbddd7890fb1f7fa700f79289d0ba19460405160405180910390a35050505050565b7f000000000000000000000000000000000000000000000000000000000000000081565b60008080549050905090565b60026020528060005260406000206000915090505481565b60015481565b60036020528060005260406000206000915090508060000160009054906101000a900473ffffffffffffffffffffffffffffffffffffffff16908060010154908060020154908060030154908060040160009054906101000a900460ff16905085565b60011515600360008373ffffffffffffffffffffffffffffffffffffffff1673ffffffffffffffffffffffffffffffffffffffff16815260200190815260200160002060040160009054906101000a900460ff1615151415611a3e57600060016000805490506116c39190612334565b815481106116fa577f4e487b7100000000000000000000000000000000000000000000000000000000600052603260045260246000fd5b9060005260206000200160009054906101000a900473ffffffffffffffffffffffffffffffffffffffff1660006001600260008573ffffffffffffffffffffffffffffffffffffffff1673ffffffffffffffffffffffffffffffffffffffff168152602001908152602001600020546117739190612334565b815481106117aa577f4e487b7100000000000000000000000000000000000000000000000000000000600052603260045260246000fd5b9060005260206000200160006101000a81548173ffffffffffffffffffffffffffffffffffffffff021916908373ffffffffffffffffffffffffffffffffffffffff160217905550600260008273ffffffffffffffffffffffffffffffffffffffff1673ffffffffffffffffffffffffffffffffffffffff16815260200190815260200160002054600260008060016000805490506118499190612334565b81548110611880577f4e487b7100000000000000000000000000000000000000000000000000000000600052603260045260246000fd5b9060005260206000200160009054906101000a900473ffffffffffffffffffffffffffffffffffffffff1673ffffffffffffffffffffffffffffffffffffffff1673ffffffffffffffffffffffffffffffffffffffff168152602001908152602001600020819055506000805480611921577f4e487b7100000000000000000000000000000000000000000000000000000000600052603160045260246000fd5b6001900381819060005260206000200160006101000a81549073ffffffffffffffffffffffffffffffffffffffff021916905590556000600260008373ffffffffffffffffffffffffffffffffffffffff1673ffffffffffffffffffffffffffffffffffffffff168152602001908152602001600020819055506000600360008373ffffffffffffffffffffffffffffffffffffffff1673ffffffffffffffffffffffffffffffffffffffff16815260200190815260200160002060040160006101000a81548160ff021916908315150217905550600115158173ffffffffffffffffffffffffffffffffffffffff167faf49dd0a67bbfaa0c41e857276401ad0e77d435e19c85cfa21ffafcbb11f7a6b60405160405180910390a35b50565b6000611a54611a4f8461213e565b612119565b90508082856040860282011115611a6a57600080fd5b60005b85811015611a9a5781611a808882611ba6565b845260208401935060408301925050600181019050611a6d565b5050509392505050565b6000611ab7611ab284612164565b612119565b90508082856020860282011115611acd57600080fd5b60005b85811015611afd5781611ae38882611c09565b845260208401935060208301925050600181019050611ad0565b5050509392505050565b6000611b1a611b158461218a565b612119565b90508082856020860282011115611b3057600080fd5b60005b85811015611b605781611b468882611c09565b845260208401935060208301925050600181019050611b33565b5050509392505050565b600081359050611b79816124f1565b92915050565b600082601f830112611b9057600080fd5b6002611b9d848285611a41565b91505092915050565b600082601f830112611bb757600080fd5b6002611bc4848285611aa4565b91505092915050565b600082601f830112611bde57600080fd5b6003611beb848285611b07565b91505092915050565b600081519050611c0381612508565b92915050565b600081359050611c188161251f565b92915050565b600060208284031215611c3057600080fd5b6000611c3e84828501611b6a565b91505092915050565b600080600060608486031215611c5c57600080fd5b6000611c6a86828701611b6a565b9350506020611c7b86828701611c09565b9250506040611c8c86828701611c09565b9150509250925092565b6000806000806101408587031215611cad57600080fd5b6000611cbb87828801611ba6565b9450506040611ccc87828801611b7f565b93505060c0611cdd87828801611ba6565b925050610100611cef87828801611ba6565b91505092959194509250565b6000806000806101608587031215611d1257600080fd5b6000611d2087828801611ba6565b9450506040611d3187828801611b7f565b93505060c0611d4287828801611ba6565b925050610100611d5487828801611bcd565b91505092959194509250565b600060208284031215611d7257600080fd5b6000611d8084828501611bf4565b91505092915050565b600060208284031215611d9b57600080fd5b6000611da984828501611c09565b91505092915050565b6000611dbe8383611e48565b60408301905092915050565b6000611dd68383611f7f565b60208301905092915050565b611deb81612368565b82525050565b611dfa816121ce565b611e048184612216565b9250611e0f826121b0565b8060005b83811015611e40578151611e278782611db2565b9650611e32836121ef565b925050600181019050611e13565b505050505050565b611e51816121d9565b611e5b8184612221565b9250611e66826121ba565b8060005b83811015611e97578151611e7e8782611dca565b9650611e89836121fc565b925050600181019050611e6a565b505050505050565b611ea8816121d9565b611eb2818461222c565b9250611ebd826121ba565b8060005b83811015611eee578151611ed58782611dca565b9650611ee0836121fc565b925050600181019050611ec1565b505050505050565b611eff816121e4565b611f098184612237565b9250611f14826121c4565b8060005b83811015611f45578151611f2c8782611dca565b9650611f3783612209565b925050600181019050611f18565b505050505050565b611f568161237a565b82525050565b6000611f69601283612242565b9150611f74826124c8565b602082019050919050565b611f88816123a6565b82525050565b611f97816123a6565b82525050565b6000602082019050611fb26000830184611de2565b92915050565b600060a082019050611fcd6000830188611de2565b611fda6020830187611f8e565b611fe76040830186611f8e565b611ff46060830185611f8e565b6120016080830184611f4d565b9695505050505050565b6000610140820190506120216000830187611e9f565b61202e6040830186611df1565b61203b60c0830185611e9f565b612049610100830184611e9f565b95945050505050565b6000610160820190506120686000830187611e9f565b6120756040830186611df1565b61208260c0830185611e9f565b612090610100830184611ef6565b95945050505050565b600060208201905081810360008301526120b281611f5c565b9050919050565b60006020820190506120ce6000830184611f8e565b92915050565b60006080820190506120e96000830187611f8e565b6120f66020830186611f8e565b6121036040830185611f4d565b6121106060830184611de2565b95945050505050565b6000612123612134565b905061212f82826123b0565b919050565b6000604051905090565b600067ffffffffffffffff82111561215957612158612488565b5b602082029050919050565b600067ffffffffffffffff82111561217f5761217e612488565b5b602082029050919050565b600067ffffffffffffffff8211156121a5576121a4612488565b5b602082029050919050565b6000819050919050565b6000819050919050565b6000819050919050565b600060029050919050565b600060029050919050565b600060039050919050565b6000602082019050919050565b6000602082019050919050565b6000602082019050919050565b600081905092915050565b600081905092915050565b600081905092915050565b600081905092915050565b600082825260208201905092915050565b600061225e826123a6565b9150612269836123a6565b9250827fffffffffffffffffffffffffffffffffffffffffffffffffffffffffffffffff0382111561229e5761229d61242a565b5b828201905092915050565b60006122b4826123a6565b91506122bf836123a6565b9250826122cf576122ce612459565b5b828204905092915050565b60006122e5826123a6565b91506122f0836123a6565b9250817fffffffffffffffffffffffffffffffffffffffffffffffffffffffffffffffff04831182151516156123295761232861242a565b5b828202905092915050565b600061233f826123a6565b915061234a836123a6565b92508282101561235d5761235c61242a565b5b828203905092915050565b600061237382612386565b9050919050565b60008115159050919050565b600073ffffffffffffffffffffffffffffffffffffffff82169050919050565b6000819050919050565b6123b9826124b7565b810181811067ffffffffffffffff821117156123d8576123d7612488565b5b80604052505050565b60006123ec826123a6565b91507fffffffffffffffffffffffffffffffffffffffffffffffffffffffffffffffff82141561241f5761241e61242a565b5b600182019050919050565b7f4e487b7100000000000000000000000000000000000000000000000000000000600052601160045260246000fd5b7f4e487b7100000000000000000000000000000000000000000000000000000000600052601260045260246000fd5b7f4e487b7100000000000000000000000000000000000000000000000000000000600052604160045260246000fd5b6000601f19601f8301169050919050565b7f4e6f7420656e6f75676820706c61796572730000000000000000000000000000600082015250565b6124fa81612368565b811461250557600080fd5b50565b6125118161237a565b811461251c57600080fd5b50565b612528816123a6565b811461253357600080fd5b5056fea26469706673582212202605e1a9e2d2304d169c425007b2456bba74a94c89b776c53f928947351b7d0d64736f6c63430008040033",
  "linkReferences": {},
  "deployedLinkReferences": {}
}