{
  "_format": "hh-sol-artifact-1",
  "contractName": "Footsteps",
  "sourceName": "contracts/Game.sol",
  "abi": [
    {
      "inputs": [
        {
          "internalType": "address",
          "name": "_registerverifier",
          "type": "address"
        },
        {
          "internalType": "address",
          "name": "_moveverifier",
          "type": "address"
        },
        {
          "internalType": "address",
          "name": "_defendverifier",
          "type": "address"
        }
      ],
      "stateMutability": "payable",
      "type": "constructor"
    },
    {
      "inputs": [
        {
          "internalType": "address",
          "name": "player",
          "type": "address"
        }
      ],
      "name": "AlreadyRegistered",
      "type": "error"
    },
    {
      "inputs": [],
      "name": "InvalidProof",
      "type": "error"
    },
    {
      "inputs": [
        {
          "internalType": "uint256",
          "name": "",
          "type": "uint256"
        },
        {
          "internalType": "uint256",
          "name": "",
          "type": "uint256"
        }
      ],
      "name": "Area",
      "outputs": [
        {
          "internalType": "uint256",
          "name": "position",
          "type": "uint256"
        }
      ],
      "stateMutability": "view",
      "type": "function"
    },
    {
      "inputs": [
        {
          "internalType": "address",
          "name": "player",
          "type": "address"
        },
        {
          "internalType": "uint256",
          "name": "x",
          "type": "uint256"
        },
        {
          "internalType": "uint256",
          "name": "y",
          "type": "uint256"
        }
      ],
      "name": "AttackPlayer",
      "outputs": [],
      "stateMutability": "nonpayable",
      "type": "function"
    },
    {
      "inputs": [
        {
          "internalType": "uint256[2]",
          "name": "a",
          "type": "uint256[2]"
        },
        {
          "internalType": "uint256[2][2]",
          "name": "b",
          "type": "uint256[2][2]"
        },
        {
          "internalType": "uint256[2]",
          "name": "c",
          "type": "uint256[2]"
        },
        {
          "internalType": "uint256[3]",
          "name": "input",
          "type": "uint256[3]"
        }
      ],
      "name": "Defend",
      "outputs": [],
      "stateMutability": "nonpayable",
      "type": "function"
    },
    {
      "inputs": [
        {
          "internalType": "uint256[2]",
          "name": "a",
          "type": "uint256[2]"
        },
        {
          "internalType": "uint256[2][2]",
          "name": "b",
          "type": "uint256[2][2]"
        },
        {
          "internalType": "uint256[2]",
          "name": "c",
          "type": "uint256[2]"
        },
        {
          "internalType": "uint256[3]",
          "name": "input",
          "type": "uint256[3]"
        }
      ],
      "name": "Move",
      "outputs": [],
      "stateMutability": "nonpayable",
      "type": "function"
    },
    {
      "inputs": [
        {
          "internalType": "uint256",
          "name": "LoogieId",
          "type": "uint256"
        },
        {
          "internalType": "uint256[2]",
          "name": "a",
          "type": "uint256[2]"
        },
        {
          "internalType": "uint256[2][2]",
          "name": "b",
          "type": "uint256[2][2]"
        },
        {
          "internalType": "uint256[2]",
          "name": "c",
          "type": "uint256[2]"
        },
        {
          "internalType": "uint256[2]",
          "name": "input",
          "type": "uint256[2]"
        }
      ],
      "name": "Register",
      "outputs": [],
      "stateMutability": "nonpayable",
      "type": "function"
    },
    {
      "inputs": [
        {
          "internalType": "uint256",
          "name": "",
          "type": "uint256"
        }
      ],
      "name": "activeplayers",
      "outputs": [
        {
          "internalType": "address",
          "name": "",
          "type": "address"
        }
      ],
      "stateMutability": "view",
      "type": "function"
    },
    {
      "inputs": [
        {
          "internalType": "address",
          "name": "",
          "type": "address"
        }
      ],
      "name": "attacks",
      "outputs": [
        {
          "internalType": "uint256",
          "name": "xguess",
          "type": "uint256"
        },
        {
          "internalType": "uint256",
          "name": "yguess",
          "type": "uint256"
        },
        {
          "internalType": "bool",
          "name": "active",
          "type": "bool"
        },
        {
          "internalType": "address",
          "name": "attacker",
          "type": "address"
        }
      ],
      "stateMutability": "view",
      "type": "function"
    },
    {
      "inputs": [],
      "name": "defendverifier",
      "outputs": [
        {
          "internalType": "address",
          "name": "",
          "type": "address"
        }
      ],
      "stateMutability": "view",
      "type": "function"
    },
    {
      "inputs": [],
      "name": "height",
      "outputs": [
        {
          "internalType": "uint256",
          "name": "",
          "type": "uint256"
        }
      ],
      "stateMutability": "view",
      "type": "function"
    },
    {
      "inputs": [
        {
          "internalType": "address",
          "name": "",
          "type": "address"
        }
      ],
      "name": "loogies",
      "outputs": [
        {
          "internalType": "uint256",
          "name": "",
          "type": "uint256"
        }
      ],
      "stateMutability": "view",
      "type": "function"
    },
    {
      "inputs": [],
      "name": "loogiescontract",
      "outputs": [
        {
          "internalType": "contract LoogiesContract",
          "name": "",
          "type": "address"
        }
      ],
      "stateMutability": "view",
      "type": "function"
    },
    {
      "inputs": [],
      "name": "moveverifier",
      "outputs": [
        {
          "internalType": "address",
          "name": "",
          "type": "address"
        }
      ],
      "stateMutability": "view",
      "type": "function"
    },
    {
      "inputs": [
        {
          "internalType": "address",
          "name": "",
          "type": "address"
        }
      ],
      "name": "players",
      "outputs": [
        {
          "internalType": "address",
          "name": "player",
          "type": "address"
        },
        {
          "internalType": "uint256",
          "name": "health",
          "type": "uint256"
        },
        {
          "internalType": "uint256",
          "name": "location",
          "type": "uint256"
        },
        {
          "internalType": "uint256",
          "name": "zone",
          "type": "uint256"
        }
      ],
      "stateMutability": "view",
      "type": "function"
    },
    {
      "inputs": [],
      "name": "registerverifier",
      "outputs": [
        {
          "internalType": "address",
          "name": "",
          "type": "address"
        }
      ],
      "stateMutability": "view",
      "type": "function"
    },
    {
      "inputs": [],
      "name": "width",
      "outputs": [
        {
          "internalType": "uint256",
          "name": "",
          "type": "uint256"
        }
      ],
      "stateMutability": "view",
      "type": "function"
    }
  ],
  "bytecode": "0x6080604052604051620028883803806200288883398181016040528101906200002991906200010c565b82600260006101000a81548173ffffffffffffffffffffffffffffffffffffffff021916908373ffffffffffffffffffffffffffffffffffffffff16021790555081600360006101000a81548173ffffffffffffffffffffffffffffffffffffffff021916908373ffffffffffffffffffffffffffffffffffffffff16021790555080600460006101000a81548173ffffffffffffffffffffffffffffffffffffffff021916908373ffffffffffffffffffffffffffffffffffffffff160217905550505050620001b0565b600081519050620001068162000196565b92915050565b6000806000606084860312156200012257600080fd5b60006200013286828701620000f5565b93505060206200014586828701620000f5565b92505060406200015886828701620000f5565b9150509250925092565b60006200016f8262000176565b9050919050565b600073ffffffffffffffffffffffffffffffffffffffff82169050919050565b620001a18162000162565b8114620001ad57600080fd5b50565b6126c880620001c06000396000f3fe608060405234801561001057600080fd5b50600436106100f55760003560e01c80638ce635de11610097578063c026506011610066578063c026506014610263578063d28b8f2814610293578063e2eb41ff146102b1578063e4342fa0146102e4576100f5565b80638ce635de146101f15780638df07ee41461020d5780639ededf7714610229578063ac641e0c14610247576100f5565b8063318e8b30116100d3578063318e8b301461016957806349ee838714610187578063800958a5146101b75780638b812ae1146101d5576100f5565b806306e78130146100fa5780630e331afa1461012d5780630ef267431461014b575b600080fd5b610114600480360381019061010f9190611a99565b610314565b6040516101249493929190612190565b60405180910390f35b610135610371565b6040516101429190611f6c565b60405180910390f35b610153610397565b6040516101609190612175565b60405180910390f35b61017161039c565b60405161017e9190611f6c565b60405180910390f35b6101a1600480360381019061019c9190611b9f565b6103c2565b6040516101ae9190611f6c565b60405180910390f35b6101bf610401565b6040516101cc919061205a565b60405180910390f35b6101ef60048036038101906101ea9190611b11565b610427565b005b61020b60048036038101906102069190611ac2565b610efe565b005b61022760048036038101906102229190611b11565b611053565b005b61023161141e565b60405161023e9190612175565b60405180910390f35b610261600480360381019061025c9190611bc8565b611423565b005b61027d60048036038101906102789190611c41565b6117fa565b60405161028a9190612175565b60405180910390f35b61029b61182e565b6040516102a89190611f6c565b60405180910390f35b6102cb60048036038101906102c69190611a99565b611854565b6040516102db9493929190611f87565b60405180910390f35b6102fe60048036038101906102f99190611a99565b6118a4565b60405161030b9190612175565b60405180910390f35b60056020528060005260406000206000915090508060000154908060010154908060020160009054906101000a900460ff16908060020160019054906101000a900473ffffffffffffffffffffffffffffffffffffffff16905084565b600360009054906101000a900473ffffffffffffffffffffffffffffffffffffffff1681565b600a81565b600260009054906101000a900473ffffffffffffffffffffffffffffffffffffffff1681565b606b81815481106103d257600080fd5b906000526020600020016000915054906101000a900473ffffffffffffffffffffffffffffffffffffffff1681565b600160009054906101000a900473ffffffffffffffffffffffffffffffffffffffff1681565b60011515600460009054906101000a900473ffffffffffffffffffffffffffffffffffffffff1673ffffffffffffffffffffffffffffffffffffffff166311479fea868686866040518563ffffffff1660e01b815260040161048c9493929190612013565b60206040518083038186803b1580156104a457600080fd5b505afa1580156104b8573d6000803e3d6000fd5b505050506040513d601f19601f820116820180604052508101906104dc9190611b76565b15151461051e576040517f08c379a000000000000000000000000000000000000000000000000000000000815260040161051590612155565b60405180910390fd5b60011515600560003373ffffffffffffffffffffffffffffffffffffffff1673ffffffffffffffffffffffffffffffffffffffff16815260200190815260200160002060020160009054906101000a900460ff161515146105b4576040517f08c379a00000000000000000000000000000000000000000000000000000000081526004016105ab90612135565b60405180910390fd5b6000803373ffffffffffffffffffffffffffffffffffffffff1673ffffffffffffffffffffffffffffffffffffffff1681526020019081526020016000206002015481600060038110610630577f4e487b7100000000000000000000000000000000000000000000000000000000600052603260045260246000fd5b602002015114610675576040517f08c379a000000000000000000000000000000000000000000000000000000000815260040161066c906120b5565b60405180910390fd5b600560003373ffffffffffffffffffffffffffffffffffffffff1673ffffffffffffffffffffffffffffffffffffffff16815260200190815260200160002060000154816001600381106106f2577f4e487b7100000000000000000000000000000000000000000000000000000000600052603260045260246000fd5b602002015114610737576040517f08c379a000000000000000000000000000000000000000000000000000000000815260040161072e906120d5565b60405180910390fd5b600560003373ffffffffffffffffffffffffffffffffffffffff1673ffffffffffffffffffffffffffffffffffffffff16815260200190815260200160002060010154816002600381106107b4577f4e487b7100000000000000000000000000000000000000000000000000000000600052603260045260246000fd5b6020020151146107f9576040517f08c379a00000000000000000000000000000000000000000000000000000000081526004016107f0906120d5565b60405180910390fd5b600080600560003373ffffffffffffffffffffffffffffffffffffffff1673ffffffffffffffffffffffffffffffffffffffff16815260200190815260200160002060020160019054906101000a900473ffffffffffffffffffffffffffffffffffffffff1673ffffffffffffffffffffffffffffffffffffffff1673ffffffffffffffffffffffffffffffffffffffff168152602001908152602001600020600101546000803373ffffffffffffffffffffffffffffffffffffffff1673ffffffffffffffffffffffffffffffffffffffff168152602001908152602001600020600101541115610ba3576002600080600560003373ffffffffffffffffffffffffffffffffffffffff1673ffffffffffffffffffffffffffffffffffffffff16815260200190815260200160002060020160019054906101000a900473ffffffffffffffffffffffffffffffffffffffff1673ffffffffffffffffffffffffffffffffffffffff1673ffffffffffffffffffffffffffffffffffffffff168152602001908152602001600020600101546109959190612365565b6000803373ffffffffffffffffffffffffffffffffffffffff1673ffffffffffffffffffffffffffffffffffffffff16815260200190815260200160002060010160008282546109e5919061230f565b925050819055506002600080600560003373ffffffffffffffffffffffffffffffffffffffff1673ffffffffffffffffffffffffffffffffffffffff16815260200190815260200160002060020160019054906101000a900473ffffffffffffffffffffffffffffffffffffffff1673ffffffffffffffffffffffffffffffffffffffff1673ffffffffffffffffffffffffffffffffffffffff16815260200190815260200160002060010154610a9c9190612365565b600080600560003373ffffffffffffffffffffffffffffffffffffffff1673ffffffffffffffffffffffffffffffffffffffff16815260200190815260200160002060020160019054906101000a900473ffffffffffffffffffffffffffffffffffffffff1673ffffffffffffffffffffffffffffffffffffffff1673ffffffffffffffffffffffffffffffffffffffff168152602001908152602001600020600101819055506000600560003373ffffffffffffffffffffffffffffffffffffffff1673ffffffffffffffffffffffffffffffffffffffff16815260200190815260200160002060020160006101000a81548160ff021916908315150217905550610ef8565b600080600560003373ffffffffffffffffffffffffffffffffffffffff1673ffffffffffffffffffffffffffffffffffffffff16815260200190815260200160002060020160019054906101000a900473ffffffffffffffffffffffffffffffffffffffff1673ffffffffffffffffffffffffffffffffffffffff1673ffffffffffffffffffffffffffffffffffffffff168152602001908152602001600020600101546000803373ffffffffffffffffffffffffffffffffffffffff1673ffffffffffffffffffffffffffffffffffffffff168152602001908152602001600020600101541415610cef576000600560003373ffffffffffffffffffffffffffffffffffffffff1673ffffffffffffffffffffffffffffffffffffffff16815260200190815260200160002060020160006101000a81548160ff021916908315150217905550610ef7565b60026000803373ffffffffffffffffffffffffffffffffffffffff1673ffffffffffffffffffffffffffffffffffffffff16815260200190815260200160002060010154610d3d9190612365565b600080600560003373ffffffffffffffffffffffffffffffffffffffff1673ffffffffffffffffffffffffffffffffffffffff16815260200190815260200160002060020160019054906101000a900473ffffffffffffffffffffffffffffffffffffffff1673ffffffffffffffffffffffffffffffffffffffff1673ffffffffffffffffffffffffffffffffffffffff1681526020019081526020016000206001016000828254610def919061230f565b9250508190555060026000803373ffffffffffffffffffffffffffffffffffffffff1673ffffffffffffffffffffffffffffffffffffffff16815260200190815260200160002060010154610e449190612365565b6000803373ffffffffffffffffffffffffffffffffffffffff1673ffffffffffffffffffffffffffffffffffffffff1681526020019081526020016000206001016000828254610e949190612396565b925050819055506000600560003373ffffffffffffffffffffffffffffffffffffffff1673ffffffffffffffffffffffffffffffffffffffff16815260200190815260200160002060020160006101000a81548160ff0219169083151502179055505b5b50505050565b60405180608001604052808381526020018281526020016001151581526020013373ffffffffffffffffffffffffffffffffffffffff16815250600560008573ffffffffffffffffffffffffffffffffffffffff1673ffffffffffffffffffffffffffffffffffffffff168152602001908152602001600020600082015181600001556020820151816001015560408201518160020160006101000a81548160ff02191690831515021790555060608201518160020160016101000a81548173ffffffffffffffffffffffffffffffffffffffff021916908373ffffffffffffffffffffffffffffffffffffffff16021790555090505060086000803373ffffffffffffffffffffffffffffffffffffffff1673ffffffffffffffffffffffffffffffffffffffff16815260200190815260200160002060010160008282546110479190612396565b92505081905550505050565b60011515600360009054906101000a900473ffffffffffffffffffffffffffffffffffffffff1673ffffffffffffffffffffffffffffffffffffffff166311479fea868686866040518563ffffffff1660e01b81526004016110b89493929190612013565b60206040518083038186803b1580156110d057600080fd5b505afa1580156110e4573d6000803e3d6000fd5b505050506040513d601f19601f820116820180604052508101906111089190611b76565b15151461114a576040517f08c379a000000000000000000000000000000000000000000000000000000000815260040161114190612115565b60405180910390fd5b60001515600560003373ffffffffffffffffffffffffffffffffffffffff1673ffffffffffffffffffffffffffffffffffffffff16815260200190815260200160002060020160009054906101000a900460ff161515146111e0576040517f08c379a00000000000000000000000000000000000000000000000000000000081526004016111d7906120f5565b60405180910390fd5b60008060003373ffffffffffffffffffffffffffffffffffffffff1673ffffffffffffffffffffffffffffffffffffffff1681526020019081526020016000206040518060800160405290816000820160009054906101000a900473ffffffffffffffffffffffffffffffffffffffff1673ffffffffffffffffffffffffffffffffffffffff1673ffffffffffffffffffffffffffffffffffffffff168152602001600182015481526020016002820154815260200160038201548152505090506008816020015110156112e9576040517f08c379a00000000000000000000000000000000000000000000000000000000081526004016112e090612095565b60405180910390fd5b81600060038110611323577f4e487b7100000000000000000000000000000000000000000000000000000000600052603260045260246000fd5b602002015181604001511461136d576040517f08c379a000000000000000000000000000000000000000000000000000000000815260040161136490612075565b60405180910390fd5b816001600381106113a7577f4e487b7100000000000000000000000000000000000000000000000000000000600052603260045260246000fd5b6020020151816040018181525050816002600381106113ef577f4e487b7100000000000000000000000000000000000000000000000000000000600052603260045260246000fd5b60200201518160600181815250506004816020015161140e9190612396565b8160200181815250505050505050565b600a81565b60011515600260009054906101000a900473ffffffffffffffffffffffffffffffffffffffff1673ffffffffffffffffffffffffffffffffffffffff1663f5c9d69e868686866040518563ffffffff1660e01b81526004016114889493929190611fcc565b60206040518083038186803b1580156114a057600080fd5b505afa1580156114b4573d6000803e3d6000fd5b505050506040513d601f19601f820116820180604052508101906114d89190611b76565b15151461151a576040517f08c379a000000000000000000000000000000000000000000000000000000000815260040161151190612115565b60405180910390fd5b3373ffffffffffffffffffffffffffffffffffffffff166000803373ffffffffffffffffffffffffffffffffffffffff1673ffffffffffffffffffffffffffffffffffffffff16815260200190815260200160002060000160009054906101000a900473ffffffffffffffffffffffffffffffffffffffff1673ffffffffffffffffffffffffffffffffffffffff1614156115ec57336040517f45ed80e90000000000000000000000000000000000000000000000000000000081526004016115e39190611f6c565b60405180910390fd5b600060405180608001604052803373ffffffffffffffffffffffffffffffffffffffff1681526020016064815260200183600060028110611656577f4e487b7100000000000000000000000000000000000000000000000000000000600052603260045260246000fd5b602002015181526020018360016002811061169a577f4e487b7100000000000000000000000000000000000000000000000000000000600052603260045260246000fd5b60200201518152509050806000803373ffffffffffffffffffffffffffffffffffffffff1673ffffffffffffffffffffffffffffffffffffffff16815260200190815260200160002060008201518160000160006101000a81548173ffffffffffffffffffffffffffffffffffffffff021916908373ffffffffffffffffffffffffffffffffffffffff16021790555060208201518160010155604082015181600201556060820151816003015590505085606a60003373ffffffffffffffffffffffffffffffffffffffff1673ffffffffffffffffffffffffffffffffffffffff16815260200190815260200160002081905550606b339080600181540180825580915050600190039060005260206000200160009091909190916101000a81548173ffffffffffffffffffffffffffffffffffffffff021916908373ffffffffffffffffffffffffffffffffffffffff160217905550505050505050565b600682600a811061180a57600080fd5b600a020181600a811061181c57600080fd5b01600091509150508060000154905081565b600460009054906101000a900473ffffffffffffffffffffffffffffffffffffffff1681565b60006020528060005260406000206000915090508060000160009054906101000a900473ffffffffffffffffffffffffffffffffffffffff16908060010154908060020154908060030154905084565b606a6020528060005260406000206000915090505481565b60006118cf6118ca846121fa565b6121d5565b905080828560408602820111156118e557600080fd5b60005b8581101561191557816118fb8882611a21565b8452602084019350604083019250506001810190506118e8565b5050509392505050565b600061193261192d84612220565b6121d5565b9050808285602086028201111561194857600080fd5b60005b85811015611978578161195e8882611a84565b84526020840193506020830192505060018101905061194b565b5050509392505050565b600061199561199084612246565b6121d5565b905080828560208602820111156119ab57600080fd5b60005b858110156119db57816119c18882611a84565b8452602084019350602083019250506001810190506119ae565b5050509392505050565b6000813590506119f48161264d565b92915050565b600082601f830112611a0b57600080fd5b6002611a188482856118bc565b91505092915050565b600082601f830112611a3257600080fd5b6002611a3f84828561191f565b91505092915050565b600082601f830112611a5957600080fd5b6003611a66848285611982565b91505092915050565b600081519050611a7e81612664565b92915050565b600081359050611a938161267b565b92915050565b600060208284031215611aab57600080fd5b6000611ab9848285016119e5565b91505092915050565b600080600060608486031215611ad757600080fd5b6000611ae5868287016119e5565b9350506020611af686828701611a84565b9250506040611b0786828701611a84565b9150509250925092565b6000806000806101608587031215611b2857600080fd5b6000611b3687828801611a21565b9450506040611b47878288016119fa565b93505060c0611b5887828801611a21565b925050610100611b6a87828801611a48565b91505092959194509250565b600060208284031215611b8857600080fd5b6000611b9684828501611a6f565b91505092915050565b600060208284031215611bb157600080fd5b6000611bbf84828501611a84565b91505092915050565b60008060008060006101608688031215611be157600080fd5b6000611bef88828901611a84565b9550506020611c0088828901611a21565b9450506060611c11888289016119fa565b93505060e0611c2288828901611a21565b925050610120611c3488828901611a21565b9150509295509295909350565b60008060408385031215611c5457600080fd5b6000611c6285828601611a84565b9250506020611c7385828601611a84565b9150509250929050565b6000611c898383611d13565b60408301905092915050565b6000611ca18383611f4e565b60208301905092915050565b611cb6816123ca565b82525050565b611cc58161228a565b611ccf81846122d2565b9250611cda8261226c565b8060005b83811015611d0b578151611cf28782611c7d565b9650611cfd836122ab565b925050600181019050611cde565b505050505050565b611d1c81612295565b611d2681846122dd565b9250611d3182612276565b8060005b83811015611d62578151611d498782611c95565b9650611d54836122b8565b925050600181019050611d35565b505050505050565b611d7381612295565b611d7d81846122e8565b9250611d8882612276565b8060005b83811015611db9578151611da08782611c95565b9650611dab836122b8565b925050600181019050611d8c565b505050505050565b611dca816122a0565b611dd481846122f3565b9250611ddf82612280565b8060005b83811015611e10578151611df78782611c95565b9650611e02836122c5565b925050600181019050611de3565b505050505050565b611e21816123dc565b82525050565b611e3081612412565b82525050565b6000611e436010836122fe565b9150611e4e82612505565b602082019050919050565b6000611e66600e836122fe565b9150611e718261252e565b602082019050919050565b6000611e89600b836122fe565b9150611e9482612557565b602082019050919050565b6000611eac600b836122fe565b9150611eb782612580565b602082019050919050565b6000611ecf6008836122fe565b9150611eda826125a9565b602082019050919050565b6000611ef2600d836122fe565b9150611efd826125d2565b602082019050919050565b6000611f156009836122fe565b9150611f20826125fb565b602082019050919050565b6000611f38600d836122fe565b9150611f4382612624565b602082019050919050565b611f5781612408565b82525050565b611f6681612408565b82525050565b6000602082019050611f816000830184611cad565b92915050565b6000608082019050611f9c6000830187611cad565b611fa96020830186611f5d565b611fb66040830185611f5d565b611fc36060830184611f5d565b95945050505050565b600061014082019050611fe26000830187611d6a565b611fef6040830186611cbc565b611ffc60c0830185611d6a565b61200a610100830184611d6a565b95945050505050565b6000610160820190506120296000830187611d6a565b6120366040830186611cbc565b61204360c0830185611d6a565b612051610100830184611dc1565b95945050505050565b600060208201905061206f6000830184611e27565b92915050565b6000602082019050818103600083015261208e81611e36565b9050919050565b600060208201905081810360008301526120ae81611e59565b9050919050565b600060208201905081810360008301526120ce81611e7c565b9050919050565b600060208201905081810360008301526120ee81611e9f565b9050919050565b6000602082019050818103600083015261210e81611ec2565b9050919050565b6000602082019050818103600083015261212e81611ee5565b9050919050565b6000602082019050818103600083015261214e81611f08565b9050919050565b6000602082019050818103600083015261216e81611f2b565b9050919050565b600060208201905061218a6000830184611f5d565b92915050565b60006080820190506121a56000830187611f5d565b6121b26020830186611f5d565b6121bf6040830185611e18565b6121cc6060830184611cad565b95945050505050565b60006121df6121f0565b90506121eb8282612436565b919050565b6000604051905090565b600067ffffffffffffffff821115612215576122146124c5565b5b602082029050919050565b600067ffffffffffffffff82111561223b5761223a6124c5565b5b602082029050919050565b600067ffffffffffffffff821115612261576122606124c5565b5b602082029050919050565b6000819050919050565b6000819050919050565b6000819050919050565b600060029050919050565b600060029050919050565b600060039050919050565b6000602082019050919050565b6000602082019050919050565b6000602082019050919050565b600081905092915050565b600081905092915050565b600081905092915050565b600081905092915050565b600082825260208201905092915050565b600061231a82612408565b915061232583612408565b9250827fffffffffffffffffffffffffffffffffffffffffffffffffffffffffffffffff0382111561235a57612359612467565b5b828201905092915050565b600061237082612408565b915061237b83612408565b92508261238b5761238a612496565b5b828204905092915050565b60006123a182612408565b91506123ac83612408565b9250828210156123bf576123be612467565b5b828203905092915050565b60006123d5826123e8565b9050919050565b60008115159050919050565b600073ffffffffffffffffffffffffffffffffffffffff82169050919050565b6000819050919050565b600061241d82612424565b9050919050565b600061242f826123e8565b9050919050565b61243f826124f4565b810181811067ffffffffffffffff8211171561245e5761245d6124c5565b5b80604052505050565b7f4e487b7100000000000000000000000000000000000000000000000000000000600052601160045260246000fd5b7f4e487b7100000000000000000000000000000000000000000000000000000000600052601260045260246000fd5b7f4e487b7100000000000000000000000000000000000000000000000000000000600052604160045260246000fd5b6000601f19601f8301169050919050565b7f496e76616c6964206c6f636174696f6e00000000000000000000000000000000600082015250565b7f506c617965722069732064656164000000000000000000000000000000000000600082015250565b7f57726f6e67204775657373000000000000000000000000000000000000000000600082015250565b7f446f6e2774206368656174000000000000000000000000000000000000000000600082015250565b7f446566656e642121000000000000000000000000000000000000000000000000600082015250565b7f496e76616c696420696e70757400000000000000000000000000000000000000600082015250565b7f4e6f2061747461636b0000000000000000000000000000000000000000000000600082015250565b7f496e76616c69642050726f6f6600000000000000000000000000000000000000600082015250565b612656816123ca565b811461266157600080fd5b50565b61266d816123dc565b811461267857600080fd5b50565b61268481612408565b811461268f57600080fd5b5056fea2646970667358221220d498bafebc2f3bb5c347d8c5122493756710a7da6f45c701bb725dea2e88487964736f6c63430008040033",
  "linkReferences": {},
  "deployedLinkReferences": {}
}