{
  "_format": "hh-sol-artifact-1",
  "contractName": "Footsteps",
  "sourceName": "contracts/Game.sol",
  "abi": [
    {
      "inputs": [
        {
          "internalType": "address",
          "name": "_verifier",
          "type": "address"
        }
      ],
      "stateMutability": "payable",
      "type": "constructor"
    },
    {
      "inputs": [
        {
          "internalType": "address",
          "name": "player",
          "type": "address"
        }
      ],
      "name": "AlreadyRegistered",
      "type": "error"
    },
    {
      "inputs": [],
      "name": "InvalidProof",
      "type": "error"
    },
    {
      "inputs": [
        {
          "internalType": "uint256",
          "name": "",
          "type": "uint256"
        },
        {
          "internalType": "uint256",
          "name": "",
          "type": "uint256"
        }
      ],
      "name": "Area",
      "outputs": [
        {
          "internalType": "uint256",
          "name": "position",
          "type": "uint256"
        }
      ],
      "stateMutability": "view",
      "type": "function"
    },
    {
      "inputs": [
        {
          "internalType": "uint256",
          "name": "LoogieId",
          "type": "uint256"
        },
        {
          "internalType": "uint256[2]",
          "name": "a",
          "type": "uint256[2]"
        },
        {
          "internalType": "uint256[2][2]",
          "name": "b",
          "type": "uint256[2][2]"
        },
        {
          "internalType": "uint256[2]",
          "name": "c",
          "type": "uint256[2]"
        },
        {
          "internalType": "uint256[2]",
          "name": "input",
          "type": "uint256[2]"
        }
      ],
      "name": "Register",
      "outputs": [],
      "stateMutability": "nonpayable",
      "type": "function"
    },
    {
      "inputs": [
        {
          "internalType": "address",
          "name": "",
          "type": "address"
        }
      ],
      "name": "bal",
      "outputs": [
        {
          "internalType": "uint256",
          "name": "",
          "type": "uint256"
        }
      ],
      "stateMutability": "view",
      "type": "function"
    },
    {
      "inputs": [],
      "name": "getpayment",
      "outputs": [],
      "stateMutability": "payable",
      "type": "function"
    },
    {
      "inputs": [],
      "name": "height",
      "outputs": [
        {
          "internalType": "uint256",
          "name": "",
          "type": "uint256"
        }
      ],
      "stateMutability": "view",
      "type": "function"
    },
    {
      "inputs": [
        {
          "internalType": "address",
          "name": "",
          "type": "address"
        }
      ],
      "name": "loogies",
      "outputs": [
        {
          "internalType": "uint256",
          "name": "",
          "type": "uint256"
        }
      ],
      "stateMutability": "view",
      "type": "function"
    },
    {
      "inputs": [],
      "name": "loogiescontract",
      "outputs": [
        {
          "internalType": "contract LoogiesContract",
          "name": "",
          "type": "address"
        }
      ],
      "stateMutability": "view",
      "type": "function"
    },
    {
      "inputs": [
        {
          "internalType": "uint256",
          "name": "",
          "type": "uint256"
        }
      ],
      "name": "players",
      "outputs": [
        {
          "internalType": "address",
          "name": "player",
          "type": "address"
        },
        {
          "internalType": "uint256",
          "name": "health",
          "type": "uint256"
        },
        {
          "internalType": "uint256",
          "name": "location",
          "type": "uint256"
        },
        {
          "internalType": "uint256",
          "name": "zone",
          "type": "uint256"
        }
      ],
      "stateMutability": "view",
      "type": "function"
    },
    {
      "inputs": [],
      "name": "verifier",
      "outputs": [
        {
          "internalType": "address",
          "name": "",
          "type": "address"
        }
      ],
      "stateMutability": "view",
      "type": "function"
    },
    {
      "inputs": [],
      "name": "width",
      "outputs": [
        {
          "internalType": "uint256",
          "name": "",
          "type": "uint256"
        }
      ],
      "stateMutability": "view",
      "type": "function"
    }
  ],
  "bytecode": "0x6080604052604051610f50380380610f5083398181016040528101906100259190610065565b600260009054906101000a900473ffffffffffffffffffffffffffffffffffffffff169050506100d7565b60008151905061005f816100c0565b92915050565b60006020828403121561007757600080fd5b600061008584828501610050565b91505092915050565b6000610099826100a0565b9050919050565b600073ffffffffffffffffffffffffffffffffffffffff82169050919050565b6100c98161008e565b81146100d457600080fd5b50565b610e6a806100e66000396000f3fe6080604052600436106100915760003560e01c80639ededf77116100595780639ededf771461015e578063ac641e0c14610189578063c0265060146101b2578063e4342fa0146101ef578063f71d96cb1461022c57610091565b80630ef26743146100965780632b7ac3f3146100c15780635580f72a146100ec578063800958a5146101295780639300ec5814610154575b600080fd5b3480156100a257600080fd5b506100ab61026c565b6040516100b89190610b9c565b60405180910390f35b3480156100cd57600080fd5b506100d6610271565b6040516100e39190610ada565b60405180910390f35b3480156100f857600080fd5b50610113600480360381019061010e9190610839565b610297565b6040516101209190610b9c565b60405180910390f35b34801561013557600080fd5b5061013e6102af565b60405161014b9190610b81565b60405180910390f35b61015c6102d5565b005b34801561016a57600080fd5b5061017361032c565b6040516101809190610b9c565b60405180910390f35b34801561019557600080fd5b506101b060048036038101906101ab91906108b4565b610331565b005b3480156101be57600080fd5b506101d960048036038101906101d4919061092d565b61063a565b6040516101e69190610b9c565b60405180910390f35b3480156101fb57600080fd5b5061021660048036038101906102119190610839565b61066e565b6040516102239190610b9c565b60405180910390f35b34801561023857600080fd5b50610253600480360381019061024e919061088b565b610686565b6040516102639493929190610af5565b60405180910390f35b600a81565b600260009054906101000a900473ffffffffffffffffffffffffffffffffffffffff1681565b60006020528060005260406000206000915090505481565b600160009054906101000a900473ffffffffffffffffffffffffffffffffffffffff1681565b346000803373ffffffffffffffffffffffffffffffffffffffff1673ffffffffffffffffffffffffffffffffffffffff16815260200190815260200160002060008282546103239190610c8d565b92505081905550565b600a81565b60011515600260009054906101000a900473ffffffffffffffffffffffffffffffffffffffff1673ffffffffffffffffffffffffffffffffffffffff1663f5c9d69e868686866040518563ffffffff1660e01b81526004016103969493929190610b3a565b60206040518083038186803b1580156103ae57600080fd5b505afa1580156103c2573d6000803e3d6000fd5b505050506040513d601f19601f820116820180604052508101906103e69190610862565b15151461041f576040517f09bde33900000000000000000000000000000000000000000000000000000000815260040160405180910390fd5b6000606860003373ffffffffffffffffffffffffffffffffffffffff1673ffffffffffffffffffffffffffffffffffffffff16815260200190815260200160002054146104a357336040517f45ed80e900000000000000000000000000000000000000000000000000000000815260040161049a9190610ada565b60405180910390fd5b600060405180608001604052803373ffffffffffffffffffffffffffffffffffffffff168152602001606481526020018360006002811061050d577f4e487b7100000000000000000000000000000000000000000000000000000000600052603260045260246000fd5b6020020151815260200183600160028110610551577f4e487b7100000000000000000000000000000000000000000000000000000000600052603260045260246000fd5b60200201518152509050606781908060018154018082558091505060019003906000526020600020906004020160009091909190915060008201518160000160006101000a81548173ffffffffffffffffffffffffffffffffffffffff021916908373ffffffffffffffffffffffffffffffffffffffff160217905550602082015181600101556040820151816002015560608201518160030155505085606860003373ffffffffffffffffffffffffffffffffffffffff1673ffffffffffffffffffffffffffffffffffffffff16815260200190815260200160002081905550505050505050565b600382600a811061064a57600080fd5b600a020181600a811061065c57600080fd5b01600091509150508060000154905081565b60686020528060005260406000206000915090505481565b6067818154811061069657600080fd5b90600052602060002090600402016000915090508060000160009054906101000a900473ffffffffffffffffffffffffffffffffffffffff16908060010154908060020154908060030154905084565b60006106f96106f484610bdc565b610bb7565b9050808285604086028201111561070f57600080fd5b60005b8581101561073f578161072588826107e8565b845260208401935060408301925050600181019050610712565b5050509392505050565b600061075c61075784610c02565b610bb7565b9050808285602086028201111561077257600080fd5b60005b858110156107a257816107888882610824565b845260208401935060208301925050600181019050610775565b5050509392505050565b6000813590506107bb81610def565b92915050565b600082601f8301126107d257600080fd5b60026107df8482856106e6565b91505092915050565b600082601f8301126107f957600080fd5b6002610806848285610749565b91505092915050565b60008151905061081e81610e06565b92915050565b60008135905061083381610e1d565b92915050565b60006020828403121561084b57600080fd5b6000610859848285016107ac565b91505092915050565b60006020828403121561087457600080fd5b60006108828482850161080f565b91505092915050565b60006020828403121561089d57600080fd5b60006108ab84828501610824565b91505092915050565b600080600080600061016086880312156108cd57600080fd5b60006108db88828901610824565b95505060206108ec888289016107e8565b94505060606108fd888289016107c1565b93505060e061090e888289016107e8565b925050610120610920888289016107e8565b9150509295509295909350565b6000806040838503121561094057600080fd5b600061094e85828601610824565b925050602061095f85828601610824565b9150509250929050565b600061097583836109ff565b60408301905092915050565b600061098d8383610abc565b60208301905092915050565b6109a281610ce3565b82525050565b6109b181610c3c565b6109bb8184610c6c565b92506109c682610c28565b8060005b838110156109f75781516109de8782610969565b96506109e983610c52565b9250506001810190506109ca565b505050505050565b610a0881610c47565b610a128184610c77565b9250610a1d82610c32565b8060005b83811015610a4e578151610a358782610981565b9650610a4083610c5f565b925050600181019050610a21565b505050505050565b610a5f81610c47565b610a698184610c82565b9250610a7482610c32565b8060005b83811015610aa5578151610a8c8782610981565b9650610a9783610c5f565b925050600181019050610a78565b505050505050565b610ab681610d2b565b82525050565b610ac581610d21565b82525050565b610ad481610d21565b82525050565b6000602082019050610aef6000830184610999565b92915050565b6000608082019050610b0a6000830187610999565b610b176020830186610acb565b610b246040830185610acb565b610b316060830184610acb565b95945050505050565b600061014082019050610b506000830187610a56565b610b5d60408301866109a8565b610b6a60c0830185610a56565b610b78610100830184610a56565b95945050505050565b6000602082019050610b966000830184610aad565b92915050565b6000602082019050610bb16000830184610acb565b92915050565b6000610bc1610bd2565b9050610bcd8282610d4f565b919050565b6000604051905090565b600067ffffffffffffffff821115610bf757610bf6610daf565b5b602082029050919050565b600067ffffffffffffffff821115610c1d57610c1c610daf565b5b602082029050919050565b6000819050919050565b6000819050919050565b600060029050919050565b600060029050919050565b6000602082019050919050565b6000602082019050919050565b600081905092915050565b600081905092915050565b600081905092915050565b6000610c9882610d21565b9150610ca383610d21565b9250827fffffffffffffffffffffffffffffffffffffffffffffffffffffffffffffffff03821115610cd857610cd7610d80565b5b828201905092915050565b6000610cee82610d01565b9050919050565b60008115159050919050565b600073ffffffffffffffffffffffffffffffffffffffff82169050919050565b6000819050919050565b6000610d3682610d3d565b9050919050565b6000610d4882610d01565b9050919050565b610d5882610dde565b810181811067ffffffffffffffff82111715610d7757610d76610daf565b5b80604052505050565b7f4e487b7100000000000000000000000000000000000000000000000000000000600052601160045260246000fd5b7f4e487b7100000000000000000000000000000000000000000000000000000000600052604160045260246000fd5b6000601f19601f8301169050919050565b610df881610ce3565b8114610e0357600080fd5b50565b610e0f81610cf5565b8114610e1a57600080fd5b50565b610e2681610d21565b8114610e3157600080fd5b5056fea2646970667358221220c29d12103b0619df569731008b7f87868c4d43dde86f468249063d1c4887957564736f6c63430008040033",
  "linkReferences": {},
  "deployedLinkReferences": {}
}