{
  "_format": "hh-sol-artifact-1",
  "contractName": "Footsteps",
  "sourceName": "contracts/Game.sol",
  "abi": [
    {
      "inputs": [
        {
          "internalType": "address",
          "name": "_registerverifier",
          "type": "address"
        },
        {
          "internalType": "address",
          "name": "_moveverifier",
          "type": "address"
        },
        {
          "internalType": "address",
          "name": "_defendverifier",
          "type": "address"
        }
      ],
      "stateMutability": "payable",
      "type": "constructor"
    },
    {
      "inputs": [
        {
          "internalType": "address",
          "name": "player",
          "type": "address"
        }
      ],
      "name": "AlreadyRegistered",
      "type": "error"
    },
    {
      "inputs": [],
      "name": "Cheater",
      "type": "error"
    },
    {
      "inputs": [],
      "name": "Dead",
      "type": "error"
    },
    {
      "inputs": [],
      "name": "DefendFirst",
      "type": "error"
    },
    {
      "inputs": [],
      "name": "InvalidLocation",
      "type": "error"
    },
    {
      "inputs": [],
      "name": "InvalidProof",
      "type": "error"
    },
    {
      "inputs": [],
      "name": "NoAttack",
      "type": "error"
    },
    {
      "inputs": [],
      "name": "WrongGuess",
      "type": "error"
    },
    {
      "inputs": [],
      "name": "ZombiesNotAllowed",
      "type": "error"
    },
    {
      "anonymous": false,
      "inputs": [
        {
          "indexed": true,
          "internalType": "address",
          "name": "player",
          "type": "address"
        },
        {
          "indexed": true,
          "internalType": "bool",
          "name": "deadornot",
          "type": "bool"
        }
      ],
      "name": "dead",
      "type": "event"
    },
    {
      "anonymous": false,
      "inputs": [
        {
          "indexed": true,
          "internalType": "address",
          "name": "player",
          "type": "address"
        },
        {
          "indexed": true,
          "internalType": "bool",
          "name": "moved",
          "type": "bool"
        }
      ],
      "name": "move",
      "type": "event"
    },
    {
      "anonymous": false,
      "inputs": [
        {
          "indexed": true,
          "internalType": "address",
          "name": "player",
          "type": "address"
        },
        {
          "indexed": true,
          "internalType": "bool",
          "name": "registered",
          "type": "bool"
        }
      ],
      "name": "register",
      "type": "event"
    },
    {
      "inputs": [
        {
          "internalType": "address",
          "name": "player",
          "type": "address"
        },
        {
          "internalType": "uint256",
          "name": "x",
          "type": "uint256"
        },
        {
          "internalType": "uint256",
          "name": "y",
          "type": "uint256"
        }
      ],
      "name": "AttackPlayer",
      "outputs": [],
      "stateMutability": "nonpayable",
      "type": "function"
    },
    {
      "inputs": [
        {
          "internalType": "uint256[2]",
          "name": "a",
          "type": "uint256[2]"
        },
        {
          "internalType": "uint256[2][2]",
          "name": "b",
          "type": "uint256[2][2]"
        },
        {
          "internalType": "uint256[2]",
          "name": "c",
          "type": "uint256[2]"
        },
        {
          "internalType": "uint256[3]",
          "name": "input",
          "type": "uint256[3]"
        }
      ],
      "name": "Defend",
      "outputs": [],
      "stateMutability": "nonpayable",
      "type": "function"
    },
    {
      "inputs": [
        {
          "internalType": "address",
          "name": "",
          "type": "address"
        }
      ],
      "name": "Id",
      "outputs": [
        {
          "internalType": "uint256",
          "name": "",
          "type": "uint256"
        }
      ],
      "stateMutability": "view",
      "type": "function"
    },
    {
      "inputs": [
        {
          "internalType": "uint256[2]",
          "name": "a",
          "type": "uint256[2]"
        },
        {
          "internalType": "uint256[2][2]",
          "name": "b",
          "type": "uint256[2][2]"
        },
        {
          "internalType": "uint256[2]",
          "name": "c",
          "type": "uint256[2]"
        },
        {
          "internalType": "uint256[3]",
          "name": "input",
          "type": "uint256[3]"
        }
      ],
      "name": "Move",
      "outputs": [],
      "stateMutability": "nonpayable",
      "type": "function"
    },
    {
      "inputs": [
        {
          "internalType": "uint256[2]",
          "name": "a",
          "type": "uint256[2]"
        },
        {
          "internalType": "uint256[2][2]",
          "name": "b",
          "type": "uint256[2][2]"
        },
        {
          "internalType": "uint256[2]",
          "name": "c",
          "type": "uint256[2]"
        },
        {
          "internalType": "uint256[2]",
          "name": "input",
          "type": "uint256[2]"
        }
      ],
      "name": "Register",
      "outputs": [],
      "stateMutability": "nonpayable",
      "type": "function"
    },
    {
      "inputs": [],
      "name": "TotalPlayers",
      "outputs": [
        {
          "internalType": "uint256",
          "name": "",
          "type": "uint256"
        }
      ],
      "stateMutability": "view",
      "type": "function"
    },
    {
      "inputs": [
        {
          "internalType": "uint256",
          "name": "",
          "type": "uint256"
        }
      ],
      "name": "activeplayers",
      "outputs": [
        {
          "internalType": "address",
          "name": "",
          "type": "address"
        }
      ],
      "stateMutability": "view",
      "type": "function"
    },
    {
      "inputs": [
        {
          "internalType": "address",
          "name": "",
          "type": "address"
        }
      ],
      "name": "attacks",
      "outputs": [
        {
          "internalType": "uint256",
          "name": "xguess",
          "type": "uint256"
        },
        {
          "internalType": "uint256",
          "name": "yguess",
          "type": "uint256"
        },
        {
          "internalType": "bool",
          "name": "active",
          "type": "bool"
        },
        {
          "internalType": "address",
          "name": "attacker",
          "type": "address"
        }
      ],
      "stateMutability": "view",
      "type": "function"
    },
    {
      "inputs": [],
      "name": "moveverifier",
      "outputs": [
        {
          "internalType": "address",
          "name": "",
          "type": "address"
        }
      ],
      "stateMutability": "view",
      "type": "function"
    },
    {
      "inputs": [],
      "name": "playerid",
      "outputs": [
        {
          "internalType": "uint256",
          "name": "",
          "type": "uint256"
        }
      ],
      "stateMutability": "view",
      "type": "function"
    },
    {
      "inputs": [
        {
          "internalType": "address",
          "name": "",
          "type": "address"
        }
      ],
      "name": "players",
      "outputs": [
        {
          "internalType": "address",
          "name": "player",
          "type": "address"
        },
        {
          "internalType": "uint256",
          "name": "health",
          "type": "uint256"
        },
        {
          "internalType": "uint256",
          "name": "location",
          "type": "uint256"
        },
        {
          "internalType": "uint256",
          "name": "zone",
          "type": "uint256"
        },
        {
          "internalType": "bool",
          "name": "alive",
          "type": "bool"
        }
      ],
      "stateMutability": "view",
      "type": "function"
    },
    {
      "inputs": [],
      "name": "registerverifier",
      "outputs": [
        {
          "internalType": "address",
          "name": "",
          "type": "address"
        }
      ],
      "stateMutability": "view",
      "type": "function"
    },
    {
      "inputs": [],
      "name": "verifierdefend",
      "outputs": [
        {
          "internalType": "address",
          "name": "",
          "type": "address"
        }
      ],
      "stateMutability": "view",
      "type": "function"
    }
  ],
  "bytecode": "0x60e0604052600180556040516200262d3803806200262d83398181016040528101906200002d9190620000f2565b8273ffffffffffffffffffffffffffffffffffffffff1660808173ffffffffffffffffffffffffffffffffffffffff1660601b815250508173ffffffffffffffffffffffffffffffffffffffff1660a08173ffffffffffffffffffffffffffffffffffffffff1660601b815250508073ffffffffffffffffffffffffffffffffffffffff1660c08173ffffffffffffffffffffffffffffffffffffffff1660601b8152505050505062000196565b600081519050620000ec816200017c565b92915050565b6000806000606084860312156200010857600080fd5b60006200011886828701620000db565b93505060206200012b86828701620000db565b92505060406200013e86828701620000db565b9150509250925092565b600062000155826200015c565b9050919050565b600073ffffffffffffffffffffffffffffffffffffffff82169050919050565b620001878162000148565b81146200019357600080fd5b50565b60805160601c60a05160601c60c05160601c612449620001e46000396000818161090c015261148101526000818161030001526110ff015260008181610324015261034c01526124496000f3fe608060405234801561001057600080fd5b50600436106100cf5760003560e01c80638ce635de1161008c578063d1d0086611610066578063d1d0086614610201578063dba93c0f1461021f578063dce41b7e1461024f578063e2eb41ff1461026d576100cf565b80638ce635de146101ab5780638df07ee4146101c7578063b53c99f6146101e3576100cf565b806306e78130146100d45780630e331afa14610107578063318e8b30146101255780634081b7721461014357806349ee83871461015f5780638b812ae11461018f575b600080fd5b6100ee60048036038101906100e99190611afb565b6102a1565b6040516100fe9493929190611fb1565b60405180910390f35b61010f6102fe565b60405161011c9190611e7a565b60405180910390f35b61012d610322565b60405161013a9190611e7a565b60405180910390f35b61015d60048036038101906101589190611b73565b610346565b005b61017960048036038101906101749190611c66565b6108c7565b6040516101869190611e7a565b60405180910390f35b6101a960048036038101906101a49190611bd8565b610906565b005b6101c560048036038101906101c09190611b24565b610e54565b005b6101e160048036038101906101dc9190611bd8565b6110f9565b005b6101eb61147f565b6040516101f89190611e7a565b60405180910390f35b6102096114a3565b6040516102169190611f96565b60405180910390f35b61023960048036038101906102349190611afb565b6114af565b6040516102469190611f96565b60405180910390f35b6102576114c7565b6040516102649190611f96565b60405180910390f35b61028760048036038101906102829190611afb565b6114cd565b604051610298959493929190611e95565b60405180910390f35b60046020528060005260406000206000915090508060000154908060010154908060020160009054906101000a900460ff16908060020160019054906101000a900473ffffffffffffffffffffffffffffffffffffffff16905084565b7f000000000000000000000000000000000000000000000000000000000000000081565b7f000000000000000000000000000000000000000000000000000000000000000081565b600115157f000000000000000000000000000000000000000000000000000000000000000073ffffffffffffffffffffffffffffffffffffffff1663f5c9d69e868686866040518563ffffffff1660e01b81526004016103a99493929190611ee8565b60206040518083038186803b1580156103c157600080fd5b505afa1580156103d5573d6000803e3d6000fd5b505050506040513d601f19601f820116820180604052508101906103f99190611c3d565b151514610432576040517f09bde33900000000000000000000000000000000000000000000000000000000815260040160405180910390fd5b6000600360003373ffffffffffffffffffffffffffffffffffffffff1673ffffffffffffffffffffffffffffffffffffffff1681526020019081526020016000206040518060a00160405290816000820160009054906101000a900473ffffffffffffffffffffffffffffffffffffffff1673ffffffffffffffffffffffffffffffffffffffff1673ffffffffffffffffffffffffffffffffffffffff1681526020016001820154815260200160028201548152602001600382015481526020016004820160009054906101000a900460ff16151515158152505090503373ffffffffffffffffffffffffffffffffffffffff16816000015173ffffffffffffffffffffffffffffffffffffffff1614801561055357506008816020015110155b1561059557336040517f45ed80e900000000000000000000000000000000000000000000000000000000815260040161058c9190611e7a565b60405180910390fd5b3373ffffffffffffffffffffffffffffffffffffffff16816000015173ffffffffffffffffffffffffffffffffffffffff161480156105d8575060088160200151105b156105e7576105e633611530565b5b60006040518060a001604052803373ffffffffffffffffffffffffffffffffffffffff1681526020016064815260200184600060028110610651577f4e487b7100000000000000000000000000000000000000000000000000000000600052603260045260246000fd5b6020020151815260200184600160028110610695577f4e487b7100000000000000000000000000000000000000000000000000000000600052603260045260246000fd5b6020020151815260200160011515815250905080600360003373ffffffffffffffffffffffffffffffffffffffff1673ffffffffffffffffffffffffffffffffffffffff16815260200190815260200160002060008201518160000160006101000a81548173ffffffffffffffffffffffffffffffffffffffff021916908373ffffffffffffffffffffffffffffffffffffffff16021790555060208201518160010155604082015181600201556060820151816003015560808201518160040160006101000a81548160ff021916908315150217905550905050600154600260003373ffffffffffffffffffffffffffffffffffffffff1673ffffffffffffffffffffffffffffffffffffffff168152602001908152602001600020819055506000339080600181540180825580915050600190039060005260206000200160009091909190916101000a81548173ffffffffffffffffffffffffffffffffffffffff021916908373ffffffffffffffffffffffffffffffffffffffff1602179055506000808054905011610860576040517f08c379a000000000000000000000000000000000000000000000000000000000815260040161085790611f76565b60405180910390fd5b60016000815480929190610873906122be565b9190505550600115153373ffffffffffffffffffffffffffffffffffffffff167fab01b4692bd902b4859dc270e9c93f448cea806bbd1a2d031219e834ccd0755460405160405180910390a3505050505050565b600081815481106108d757600080fd5b906000526020600020016000915054906101000a900473ffffffffffffffffffffffffffffffffffffffff1681565b600115157f000000000000000000000000000000000000000000000000000000000000000073ffffffffffffffffffffffffffffffffffffffff166311479fea868686866040518563ffffffff1660e01b81526004016109699493929190611f2f565b60206040518083038186803b15801561098157600080fd5b505afa158015610995573d6000803e3d6000fd5b505050506040513d601f19601f820116820180604052508101906109b99190611c3d565b1515146109f2576040517f09bde33900000000000000000000000000000000000000000000000000000000815260040160405180910390fd5b6008600360003373ffffffffffffffffffffffffffffffffffffffff1673ffffffffffffffffffffffffffffffffffffffff168152602001908152602001600020600101541015610a6f576040517f82c4767b00000000000000000000000000000000000000000000000000000000815260040160405180910390fd5b6000600360003373ffffffffffffffffffffffffffffffffffffffff1673ffffffffffffffffffffffffffffffffffffffff16815260200190815260200160002090506000600460003373ffffffffffffffffffffffffffffffffffffffff1673ffffffffffffffffffffffffffffffffffffffff16815260200190815260200160002090506000600360008360020160019054906101000a900473ffffffffffffffffffffffffffffffffffffffff1673ffffffffffffffffffffffffffffffffffffffff1673ffffffffffffffffffffffffffffffffffffffff1681526020019081526020016000209050600015158260020160009054906101000a900460ff1615151415610bac576040517f83df6c5400000000000000000000000000000000000000000000000000000000815260040160405180910390fd5b826002015484600060038110610beb577f4e487b7100000000000000000000000000000000000000000000000000000000600052603260045260246000fd5b602002015114610c27576040517f0d54d5cf00000000000000000000000000000000000000000000000000000000815260040160405180910390fd5b816000015484600160038110610c66577f4e487b7100000000000000000000000000000000000000000000000000000000600052603260045260246000fd5b602002015114610ca2576040517fe387c80000000000000000000000000000000000000000000000000000000000815260040160405180910390fd5b816001015484600260038110610ce1577f4e487b7100000000000000000000000000000000000000000000000000000000600052603260045260246000fd5b602002015114610d1d576040517fe387c80000000000000000000000000000000000000000000000000000000000815260040160405180910390fd5b806001015483600101541115610d9f5760058160010154610d3e9190612186565b836001016000828254610d519190612130565b92505081905550600460058260010154610d6b9190612186565b610d7591906121b7565b816001018190555060008260020160006101000a81548160ff021916908315150217905550610e34565b806001015483600101541415610dd15760008260020160006101000a81548160ff021916908315150217905550610e33565b60028360010154610de29190612186565b816001016000828254610df59190612130565b9250508190555060028360010154610e0d9190612186565b836001018190555060008260020160006101000a81548160ff0219169083151502179055505b5b600883600101541015610e4b57610e4a33611530565b5b50505050505050565b6008600360003373ffffffffffffffffffffffffffffffffffffffff1673ffffffffffffffffffffffffffffffffffffffff168152602001908152602001600020600101541015610ed1576040517f82c4767b00000000000000000000000000000000000000000000000000000000815260040160405180910390fd5b6008600360008573ffffffffffffffffffffffffffffffffffffffff1673ffffffffffffffffffffffffffffffffffffffff168152602001908152602001600020600101541015610f4e576040517f42a900fa00000000000000000000000000000000000000000000000000000000815260040160405180910390fd5b60405180608001604052808381526020018281526020016001151581526020013373ffffffffffffffffffffffffffffffffffffffff16815250600460008573ffffffffffffffffffffffffffffffffffffffff1673ffffffffffffffffffffffffffffffffffffffff168152602001908152602001600020600082015181600001556020820151816001015560408201518160020160006101000a81548160ff02191690831515021790555060608201518160020160016101000a81548173ffffffffffffffffffffffffffffffffffffffff021916908373ffffffffffffffffffffffffffffffffffffffff1602179055509050506008600360003373ffffffffffffffffffffffffffffffffffffffff1673ffffffffffffffffffffffffffffffffffffffff16815260200190815260200160002060010160008282546110989190612211565b925050819055506008600360003373ffffffffffffffffffffffffffffffffffffffff1673ffffffffffffffffffffffffffffffffffffffff1681526020019081526020016000206001015410156110f4576110f333611530565b5b505050565b600115157f000000000000000000000000000000000000000000000000000000000000000073ffffffffffffffffffffffffffffffffffffffff166311479fea868686866040518563ffffffff1660e01b815260040161115c9493929190611f2f565b60206040518083038186803b15801561117457600080fd5b505afa158015611188573d6000803e3d6000fd5b505050506040513d601f19601f820116820180604052508101906111ac9190611c3d565b1515146111e5576040517f09bde33900000000000000000000000000000000000000000000000000000000815260040160405180910390fd5b60011515600460003373ffffffffffffffffffffffffffffffffffffffff1673ffffffffffffffffffffffffffffffffffffffff16815260200190815260200160002060020160009054906101000a900460ff1615151415611273576040517f7312e43a00000000000000000000000000000000000000000000000000000000815260040160405180910390fd5b6000600360003373ffffffffffffffffffffffffffffffffffffffff1673ffffffffffffffffffffffffffffffffffffffff16815260200190815260200160002090506008816001015410156112f5576040517f82c4767b00000000000000000000000000000000000000000000000000000000815260040160405180910390fd5b8160006003811061132f577f4e487b7100000000000000000000000000000000000000000000000000000000600052603260045260246000fd5b6020020151816002015414611370576040517ff80f144500000000000000000000000000000000000000000000000000000000815260040160405180910390fd5b816001600381106113aa577f4e487b7100000000000000000000000000000000000000000000000000000000600052603260045260246000fd5b60200201518160020181905550816002600381106113f1577f4e487b7100000000000000000000000000000000000000000000000000000000600052603260045260246000fd5b6020020151816003018190555060048160010160008282546114139190612211565b925050819055506008816001015410156114315761143033611530565b5b600115153373ffffffffffffffffffffffffffffffffffffffff167fec69a90467aaa43beb6a73755fe1b4c7fbddd7890fb1f7fa700f79289d0ba19460405160405180910390a35050505050565b7f000000000000000000000000000000000000000000000000000000000000000081565b60008080549050905090565b60026020528060005260406000206000915090505481565b60015481565b60036020528060005260406000206000915090508060000160009054906101000a900473ffffffffffffffffffffffffffffffffffffffff16908060010154908060020154908060030154908060040160009054906101000a900460ff16905085565b60011515600360008373ffffffffffffffffffffffffffffffffffffffff1673ffffffffffffffffffffffffffffffffffffffff16815260200190815260200160002060040160009054906101000a900460ff161515141561191b57600060016000805490506115a09190612211565b815481106115d7577f4e487b7100000000000000000000000000000000000000000000000000000000600052603260045260246000fd5b9060005260206000200160009054906101000a900473ffffffffffffffffffffffffffffffffffffffff1660006001600260008573ffffffffffffffffffffffffffffffffffffffff1673ffffffffffffffffffffffffffffffffffffffff168152602001908152602001600020546116509190612211565b81548110611687577f4e487b7100000000000000000000000000000000000000000000000000000000600052603260045260246000fd5b9060005260206000200160006101000a81548173ffffffffffffffffffffffffffffffffffffffff021916908373ffffffffffffffffffffffffffffffffffffffff160217905550600260008273ffffffffffffffffffffffffffffffffffffffff1673ffffffffffffffffffffffffffffffffffffffff16815260200190815260200160002054600260008060016000805490506117269190612211565b8154811061175d577f4e487b7100000000000000000000000000000000000000000000000000000000600052603260045260246000fd5b9060005260206000200160009054906101000a900473ffffffffffffffffffffffffffffffffffffffff1673ffffffffffffffffffffffffffffffffffffffff1673ffffffffffffffffffffffffffffffffffffffff1681526020019081526020016000208190555060008054806117fe577f4e487b7100000000000000000000000000000000000000000000000000000000600052603160045260246000fd5b6001900381819060005260206000200160006101000a81549073ffffffffffffffffffffffffffffffffffffffff021916905590556000600260008373ffffffffffffffffffffffffffffffffffffffff1673ffffffffffffffffffffffffffffffffffffffff168152602001908152602001600020819055506000600360008373ffffffffffffffffffffffffffffffffffffffff1673ffffffffffffffffffffffffffffffffffffffff16815260200190815260200160002060040160006101000a81548160ff021916908315150217905550600115158173ffffffffffffffffffffffffffffffffffffffff167faf49dd0a67bbfaa0c41e857276401ad0e77d435e19c85cfa21ffafcbb11f7a6b60405160405180910390a35b50565b600061193161192c8461201b565b611ff6565b9050808285604086028201111561194757600080fd5b60005b85811015611977578161195d8882611a83565b84526020840193506040830192505060018101905061194a565b5050509392505050565b600061199461198f84612041565b611ff6565b905080828560208602820111156119aa57600080fd5b60005b858110156119da57816119c08882611ae6565b8452602084019350602083019250506001810190506119ad565b5050509392505050565b60006119f76119f284612067565b611ff6565b90508082856020860282011115611a0d57600080fd5b60005b85811015611a3d5781611a238882611ae6565b845260208401935060208301925050600181019050611a10565b5050509392505050565b600081359050611a56816123ce565b92915050565b600082601f830112611a6d57600080fd5b6002611a7a84828561191e565b91505092915050565b600082601f830112611a9457600080fd5b6002611aa1848285611981565b91505092915050565b600082601f830112611abb57600080fd5b6003611ac88482856119e4565b91505092915050565b600081519050611ae0816123e5565b92915050565b600081359050611af5816123fc565b92915050565b600060208284031215611b0d57600080fd5b6000611b1b84828501611a47565b91505092915050565b600080600060608486031215611b3957600080fd5b6000611b4786828701611a47565b9350506020611b5886828701611ae6565b9250506040611b6986828701611ae6565b9150509250925092565b6000806000806101408587031215611b8a57600080fd5b6000611b9887828801611a83565b9450506040611ba987828801611a5c565b93505060c0611bba87828801611a83565b925050610100611bcc87828801611a83565b91505092959194509250565b6000806000806101608587031215611bef57600080fd5b6000611bfd87828801611a83565b9450506040611c0e87828801611a5c565b93505060c0611c1f87828801611a83565b925050610100611c3187828801611aaa565b91505092959194509250565b600060208284031215611c4f57600080fd5b6000611c5d84828501611ad1565b91505092915050565b600060208284031215611c7857600080fd5b6000611c8684828501611ae6565b91505092915050565b6000611c9b8383611d25565b60408301905092915050565b6000611cb38383611e5c565b60208301905092915050565b611cc881612245565b82525050565b611cd7816120ab565b611ce181846120f3565b9250611cec8261208d565b8060005b83811015611d1d578151611d048782611c8f565b9650611d0f836120cc565b925050600181019050611cf0565b505050505050565b611d2e816120b6565b611d3881846120fe565b9250611d4382612097565b8060005b83811015611d74578151611d5b8782611ca7565b9650611d66836120d9565b925050600181019050611d47565b505050505050565b611d85816120b6565b611d8f8184612109565b9250611d9a82612097565b8060005b83811015611dcb578151611db28782611ca7565b9650611dbd836120d9565b925050600181019050611d9e565b505050505050565b611ddc816120c1565b611de68184612114565b9250611df1826120a1565b8060005b83811015611e22578151611e098782611ca7565b9650611e14836120e6565b925050600181019050611df5565b505050505050565b611e3381612257565b82525050565b6000611e4660128361211f565b9150611e51826123a5565b602082019050919050565b611e6581612283565b82525050565b611e7481612283565b82525050565b6000602082019050611e8f6000830184611cbf565b92915050565b600060a082019050611eaa6000830188611cbf565b611eb76020830187611e6b565b611ec46040830186611e6b565b611ed16060830185611e6b565b611ede6080830184611e2a565b9695505050505050565b600061014082019050611efe6000830187611d7c565b611f0b6040830186611cce565b611f1860c0830185611d7c565b611f26610100830184611d7c565b95945050505050565b600061016082019050611f456000830187611d7c565b611f526040830186611cce565b611f5f60c0830185611d7c565b611f6d610100830184611dd3565b95945050505050565b60006020820190508181036000830152611f8f81611e39565b9050919050565b6000602082019050611fab6000830184611e6b565b92915050565b6000608082019050611fc66000830187611e6b565b611fd36020830186611e6b565b611fe06040830185611e2a565b611fed6060830184611cbf565b95945050505050565b6000612000612011565b905061200c828261228d565b919050565b6000604051905090565b600067ffffffffffffffff82111561203657612035612365565b5b602082029050919050565b600067ffffffffffffffff82111561205c5761205b612365565b5b602082029050919050565b600067ffffffffffffffff82111561208257612081612365565b5b602082029050919050565b6000819050919050565b6000819050919050565b6000819050919050565b600060029050919050565b600060029050919050565b600060039050919050565b6000602082019050919050565b6000602082019050919050565b6000602082019050919050565b600081905092915050565b600081905092915050565b600081905092915050565b600081905092915050565b600082825260208201905092915050565b600061213b82612283565b915061214683612283565b9250827fffffffffffffffffffffffffffffffffffffffffffffffffffffffffffffffff0382111561217b5761217a612307565b5b828201905092915050565b600061219182612283565b915061219c83612283565b9250826121ac576121ab612336565b5b828204905092915050565b60006121c282612283565b91506121cd83612283565b9250817fffffffffffffffffffffffffffffffffffffffffffffffffffffffffffffffff048311821515161561220657612205612307565b5b828202905092915050565b600061221c82612283565b915061222783612283565b92508282101561223a57612239612307565b5b828203905092915050565b600061225082612263565b9050919050565b60008115159050919050565b600073ffffffffffffffffffffffffffffffffffffffff82169050919050565b6000819050919050565b61229682612394565b810181811067ffffffffffffffff821117156122b5576122b4612365565b5b80604052505050565b60006122c982612283565b91507fffffffffffffffffffffffffffffffffffffffffffffffffffffffffffffffff8214156122fc576122fb612307565b5b600182019050919050565b7f4e487b7100000000000000000000000000000000000000000000000000000000600052601160045260246000fd5b7f4e487b7100000000000000000000000000000000000000000000000000000000600052601260045260246000fd5b7f4e487b7100000000000000000000000000000000000000000000000000000000600052604160045260246000fd5b6000601f19601f8301169050919050565b7f4e6f7420656e6f75676820706c61796572730000000000000000000000000000600082015250565b6123d781612245565b81146123e257600080fd5b50565b6123ee81612257565b81146123f957600080fd5b50565b61240581612283565b811461241057600080fd5b5056fea2646970667358221220fb2967c54ae2227b636901497eefdf16a671590acef1c05d5df6d8bea4fc7d9c64736f6c63430008040033",
  "linkReferences": {},
  "deployedLinkReferences": {}
}