{
  "_format": "hh-sol-artifact-1",
  "contractName": "Footsteps",
  "sourceName": "contracts/Game.sol",
  "abi": [
    {
      "inputs": [
        {
          "internalType": "address",
          "name": "_registerverifier",
          "type": "address"
        },
        {
          "internalType": "address",
          "name": "_moveverifier",
          "type": "address"
        },
        {
          "internalType": "address",
          "name": "_defendverifier",
          "type": "address"
        }
      ],
      "stateMutability": "payable",
      "type": "constructor"
    },
    {
      "inputs": [
        {
          "internalType": "address",
          "name": "player",
          "type": "address"
        }
      ],
      "name": "AlreadyRegistered",
      "type": "error"
    },
    {
      "inputs": [],
      "name": "Cheater",
      "type": "error"
    },
    {
      "inputs": [],
      "name": "Dead",
      "type": "error"
    },
    {
      "inputs": [],
      "name": "DefendFirst",
      "type": "error"
    },
    {
      "inputs": [],
      "name": "InvalidLocation",
      "type": "error"
    },
    {
      "inputs": [],
      "name": "InvalidProof",
      "type": "error"
    },
    {
      "inputs": [],
      "name": "NoAttack",
      "type": "error"
    },
    {
      "inputs": [],
      "name": "WrongGuess",
      "type": "error"
    },
    {
      "inputs": [],
      "name": "ZombiesNotAllowed",
      "type": "error"
    },
    {
      "anonymous": false,
      "inputs": [
        {
          "indexed": true,
          "internalType": "address",
          "name": "player",
          "type": "address"
        },
        {
          "indexed": true,
          "internalType": "bool",
          "name": "deadornot",
          "type": "bool"
        }
      ],
      "name": "dead",
      "type": "event"
    },
    {
      "anonymous": false,
      "inputs": [
        {
          "indexed": true,
          "internalType": "address",
          "name": "player",
          "type": "address"
        },
        {
          "indexed": true,
          "internalType": "bool",
          "name": "moved",
          "type": "bool"
        }
      ],
      "name": "move",
      "type": "event"
    },
    {
      "anonymous": false,
      "inputs": [
        {
          "indexed": true,
          "internalType": "address",
          "name": "player",
          "type": "address"
        },
        {
          "indexed": true,
          "internalType": "bool",
          "name": "registered",
          "type": "bool"
        }
      ],
      "name": "register",
      "type": "event"
    },
    {
      "inputs": [
        {
          "internalType": "address",
          "name": "player",
          "type": "address"
        },
        {
          "internalType": "uint256",
          "name": "x",
          "type": "uint256"
        },
        {
          "internalType": "uint256",
          "name": "y",
          "type": "uint256"
        }
      ],
      "name": "AttackPlayer",
      "outputs": [],
      "stateMutability": "nonpayable",
      "type": "function"
    },
    {
      "inputs": [
        {
          "internalType": "uint256[2]",
          "name": "a",
          "type": "uint256[2]"
        },
        {
          "internalType": "uint256[2][2]",
          "name": "b",
          "type": "uint256[2][2]"
        },
        {
          "internalType": "uint256[2]",
          "name": "c",
          "type": "uint256[2]"
        },
        {
          "internalType": "uint256[3]",
          "name": "input",
          "type": "uint256[3]"
        }
      ],
      "name": "Defend",
      "outputs": [],
      "stateMutability": "nonpayable",
      "type": "function"
    },
    {
      "inputs": [
        {
          "internalType": "address",
          "name": "",
          "type": "address"
        }
      ],
      "name": "Id",
      "outputs": [
        {
          "internalType": "uint256",
          "name": "",
          "type": "uint256"
        }
      ],
      "stateMutability": "view",
      "type": "function"
    },
    {
      "inputs": [
        {
          "internalType": "uint256[2]",
          "name": "a",
          "type": "uint256[2]"
        },
        {
          "internalType": "uint256[2][2]",
          "name": "b",
          "type": "uint256[2][2]"
        },
        {
          "internalType": "uint256[2]",
          "name": "c",
          "type": "uint256[2]"
        },
        {
          "internalType": "uint256[3]",
          "name": "input",
          "type": "uint256[3]"
        }
      ],
      "name": "Move",
      "outputs": [],
      "stateMutability": "nonpayable",
      "type": "function"
    },
    {
      "inputs": [
        {
          "internalType": "uint256[2]",
          "name": "a",
          "type": "uint256[2]"
        },
        {
          "internalType": "uint256[2][2]",
          "name": "b",
          "type": "uint256[2][2]"
        },
        {
          "internalType": "uint256[2]",
          "name": "c",
          "type": "uint256[2]"
        },
        {
          "internalType": "uint256[2]",
          "name": "input",
          "type": "uint256[2]"
        }
      ],
      "name": "Register",
      "outputs": [],
      "stateMutability": "nonpayable",
      "type": "function"
    },
    {
      "inputs": [
        {
          "internalType": "uint256",
          "name": "",
          "type": "uint256"
        }
      ],
      "name": "activeplayers",
      "outputs": [
        {
          "internalType": "address",
          "name": "",
          "type": "address"
        }
      ],
      "stateMutability": "view",
      "type": "function"
    },
    {
      "inputs": [
        {
          "internalType": "address",
          "name": "",
          "type": "address"
        }
      ],
      "name": "attacks",
      "outputs": [
        {
          "internalType": "uint256",
          "name": "xguess",
          "type": "uint256"
        },
        {
          "internalType": "uint256",
          "name": "yguess",
          "type": "uint256"
        },
        {
          "internalType": "bool",
          "name": "active",
          "type": "bool"
        },
        {
          "internalType": "address",
          "name": "attacker",
          "type": "address"
        }
      ],
      "stateMutability": "view",
      "type": "function"
    },
    {
      "inputs": [],
      "name": "moveverifier",
      "outputs": [
        {
          "internalType": "address",
          "name": "",
          "type": "address"
        }
      ],
      "stateMutability": "view",
      "type": "function"
    },
    {
      "inputs": [],
      "name": "playerid",
      "outputs": [
        {
          "internalType": "uint256",
          "name": "",
          "type": "uint256"
        }
      ],
      "stateMutability": "view",
      "type": "function"
    },
    {
      "inputs": [
        {
          "internalType": "address",
          "name": "",
          "type": "address"
        }
      ],
      "name": "players",
      "outputs": [
        {
          "internalType": "address",
          "name": "player",
          "type": "address"
        },
        {
          "internalType": "uint256",
          "name": "health",
          "type": "uint256"
        },
        {
          "internalType": "uint256",
          "name": "location",
          "type": "uint256"
        },
        {
          "internalType": "uint256",
          "name": "zone",
          "type": "uint256"
        },
        {
          "internalType": "bool",
          "name": "alive",
          "type": "bool"
        }
      ],
      "stateMutability": "view",
      "type": "function"
    },
    {
      "inputs": [],
      "name": "registerverifier",
      "outputs": [
        {
          "internalType": "address",
          "name": "",
          "type": "address"
        }
      ],
      "stateMutability": "view",
      "type": "function"
    },
    {
      "inputs": [],
      "name": "verifierdefend",
      "outputs": [
        {
          "internalType": "address",
          "name": "",
          "type": "address"
        }
      ],
      "stateMutability": "view",
      "type": "function"
    }
  ],
  "bytecode": "0x60e060405260018055604051620025e8380380620025e883398181016040528101906200002d9190620000f2565b8273ffffffffffffffffffffffffffffffffffffffff1660808173ffffffffffffffffffffffffffffffffffffffff1660601b815250508173ffffffffffffffffffffffffffffffffffffffff1660a08173ffffffffffffffffffffffffffffffffffffffff1660601b815250508073ffffffffffffffffffffffffffffffffffffffff1660c08173ffffffffffffffffffffffffffffffffffffffff1660601b8152505050505062000196565b600081519050620000ec816200017c565b92915050565b6000806000606084860312156200010857600080fd5b60006200011886828701620000db565b93505060206200012b86828701620000db565b92505060406200013e86828701620000db565b9150509250925092565b600062000155826200015c565b9050919050565b600073ffffffffffffffffffffffffffffffffffffffff82169050919050565b620001878162000148565b81146200019357600080fd5b50565b60805160601c60a05160601c60c05160601c612404620001e4600039600081816108d301526114480152600081816102c701526110c60152600081816102eb015261031301526124046000f3fe608060405234801561001057600080fd5b50600436106100b45760003560e01c80638ce635de116100715780638ce635de146101905780638df07ee4146101ac578063b53c99f6146101c8578063dba93c0f146101e6578063dce41b7e14610216578063e2eb41ff14610234576100b4565b806306e78130146100b95780630e331afa146100ec578063318e8b301461010a5780634081b7721461012857806349ee8387146101445780638b812ae114610174575b600080fd5b6100d360048036038101906100ce9190611ab6565b610268565b6040516100e39493929190611f6c565b60405180910390f35b6100f46102c5565b6040516101019190611e35565b60405180910390f35b6101126102e9565b60405161011f9190611e35565b60405180910390f35b610142600480360381019061013d9190611b2e565b61030d565b005b61015e60048036038101906101599190611c21565b61088e565b60405161016b9190611e35565b60405180910390f35b61018e60048036038101906101899190611b93565b6108cd565b005b6101aa60048036038101906101a59190611adf565b610e1b565b005b6101c660048036038101906101c19190611b93565b6110c0565b005b6101d0611446565b6040516101dd9190611e35565b60405180910390f35b61020060048036038101906101fb9190611ab6565b61146a565b60405161020d9190611f51565b60405180910390f35b61021e611482565b60405161022b9190611f51565b60405180910390f35b61024e60048036038101906102499190611ab6565b611488565b60405161025f959493929190611e50565b60405180910390f35b60046020528060005260406000206000915090508060000154908060010154908060020160009054906101000a900460ff16908060020160019054906101000a900473ffffffffffffffffffffffffffffffffffffffff16905084565b7f000000000000000000000000000000000000000000000000000000000000000081565b7f000000000000000000000000000000000000000000000000000000000000000081565b600115157f000000000000000000000000000000000000000000000000000000000000000073ffffffffffffffffffffffffffffffffffffffff1663f5c9d69e868686866040518563ffffffff1660e01b81526004016103709493929190611ea3565b60206040518083038186803b15801561038857600080fd5b505afa15801561039c573d6000803e3d6000fd5b505050506040513d601f19601f820116820180604052508101906103c09190611bf8565b1515146103f9576040517f09bde33900000000000000000000000000000000000000000000000000000000815260040160405180910390fd5b6000600360003373ffffffffffffffffffffffffffffffffffffffff1673ffffffffffffffffffffffffffffffffffffffff1681526020019081526020016000206040518060a00160405290816000820160009054906101000a900473ffffffffffffffffffffffffffffffffffffffff1673ffffffffffffffffffffffffffffffffffffffff1673ffffffffffffffffffffffffffffffffffffffff1681526020016001820154815260200160028201548152602001600382015481526020016004820160009054906101000a900460ff16151515158152505090503373ffffffffffffffffffffffffffffffffffffffff16816000015173ffffffffffffffffffffffffffffffffffffffff1614801561051a57506008816020015110155b1561055c57336040517f45ed80e90000000000000000000000000000000000000000000000000000000081526004016105539190611e35565b60405180910390fd5b3373ffffffffffffffffffffffffffffffffffffffff16816000015173ffffffffffffffffffffffffffffffffffffffff1614801561059f575060088160200151105b156105ae576105ad336114eb565b5b60006040518060a001604052803373ffffffffffffffffffffffffffffffffffffffff1681526020016064815260200184600060028110610618577f4e487b7100000000000000000000000000000000000000000000000000000000600052603260045260246000fd5b602002015181526020018460016002811061065c577f4e487b7100000000000000000000000000000000000000000000000000000000600052603260045260246000fd5b6020020151815260200160011515815250905080600360003373ffffffffffffffffffffffffffffffffffffffff1673ffffffffffffffffffffffffffffffffffffffff16815260200190815260200160002060008201518160000160006101000a81548173ffffffffffffffffffffffffffffffffffffffff021916908373ffffffffffffffffffffffffffffffffffffffff16021790555060208201518160010155604082015181600201556060820151816003015560808201518160040160006101000a81548160ff021916908315150217905550905050600154600260003373ffffffffffffffffffffffffffffffffffffffff1673ffffffffffffffffffffffffffffffffffffffff168152602001908152602001600020819055506000339080600181540180825580915050600190039060005260206000200160009091909190916101000a81548173ffffffffffffffffffffffffffffffffffffffff021916908373ffffffffffffffffffffffffffffffffffffffff1602179055506000808054905011610827576040517f08c379a000000000000000000000000000000000000000000000000000000000815260040161081e90611f31565b60405180910390fd5b6001600081548092919061083a90612279565b9190505550600115153373ffffffffffffffffffffffffffffffffffffffff167fab01b4692bd902b4859dc270e9c93f448cea806bbd1a2d031219e834ccd0755460405160405180910390a3505050505050565b6000818154811061089e57600080fd5b906000526020600020016000915054906101000a900473ffffffffffffffffffffffffffffffffffffffff1681565b600115157f000000000000000000000000000000000000000000000000000000000000000073ffffffffffffffffffffffffffffffffffffffff166311479fea868686866040518563ffffffff1660e01b81526004016109309493929190611eea565b60206040518083038186803b15801561094857600080fd5b505afa15801561095c573d6000803e3d6000fd5b505050506040513d601f19601f820116820180604052508101906109809190611bf8565b1515146109b9576040517f09bde33900000000000000000000000000000000000000000000000000000000815260040160405180910390fd5b6008600360003373ffffffffffffffffffffffffffffffffffffffff1673ffffffffffffffffffffffffffffffffffffffff168152602001908152602001600020600101541015610a36576040517f82c4767b00000000000000000000000000000000000000000000000000000000815260040160405180910390fd5b6000600360003373ffffffffffffffffffffffffffffffffffffffff1673ffffffffffffffffffffffffffffffffffffffff16815260200190815260200160002090506000600460003373ffffffffffffffffffffffffffffffffffffffff1673ffffffffffffffffffffffffffffffffffffffff16815260200190815260200160002090506000600360008360020160019054906101000a900473ffffffffffffffffffffffffffffffffffffffff1673ffffffffffffffffffffffffffffffffffffffff1673ffffffffffffffffffffffffffffffffffffffff1681526020019081526020016000209050600015158260020160009054906101000a900460ff1615151415610b73576040517f83df6c5400000000000000000000000000000000000000000000000000000000815260040160405180910390fd5b826002015484600060038110610bb2577f4e487b7100000000000000000000000000000000000000000000000000000000600052603260045260246000fd5b602002015114610bee576040517f0d54d5cf00000000000000000000000000000000000000000000000000000000815260040160405180910390fd5b816000015484600160038110610c2d577f4e487b7100000000000000000000000000000000000000000000000000000000600052603260045260246000fd5b602002015114610c69576040517fe387c80000000000000000000000000000000000000000000000000000000000815260040160405180910390fd5b816001015484600260038110610ca8577f4e487b7100000000000000000000000000000000000000000000000000000000600052603260045260246000fd5b602002015114610ce4576040517fe387c80000000000000000000000000000000000000000000000000000000000815260040160405180910390fd5b806001015483600101541115610d665760058160010154610d059190612141565b836001016000828254610d1891906120eb565b92505081905550600460058260010154610d329190612141565b610d3c9190612172565b816001018190555060008260020160006101000a81548160ff021916908315150217905550610dfb565b806001015483600101541415610d985760008260020160006101000a81548160ff021916908315150217905550610dfa565b60028360010154610da99190612141565b816001016000828254610dbc91906120eb565b9250508190555060028360010154610dd49190612141565b836001018190555060008260020160006101000a81548160ff0219169083151502179055505b5b600883600101541015610e1257610e11336114eb565b5b50505050505050565b6008600360003373ffffffffffffffffffffffffffffffffffffffff1673ffffffffffffffffffffffffffffffffffffffff168152602001908152602001600020600101541015610e98576040517f82c4767b00000000000000000000000000000000000000000000000000000000815260040160405180910390fd5b6008600360008573ffffffffffffffffffffffffffffffffffffffff1673ffffffffffffffffffffffffffffffffffffffff168152602001908152602001600020600101541015610f15576040517f42a900fa00000000000000000000000000000000000000000000000000000000815260040160405180910390fd5b60405180608001604052808381526020018281526020016001151581526020013373ffffffffffffffffffffffffffffffffffffffff16815250600460008573ffffffffffffffffffffffffffffffffffffffff1673ffffffffffffffffffffffffffffffffffffffff168152602001908152602001600020600082015181600001556020820151816001015560408201518160020160006101000a81548160ff02191690831515021790555060608201518160020160016101000a81548173ffffffffffffffffffffffffffffffffffffffff021916908373ffffffffffffffffffffffffffffffffffffffff1602179055509050506008600360003373ffffffffffffffffffffffffffffffffffffffff1673ffffffffffffffffffffffffffffffffffffffff168152602001908152602001600020600101600082825461105f91906121cc565b925050819055506008600360003373ffffffffffffffffffffffffffffffffffffffff1673ffffffffffffffffffffffffffffffffffffffff1681526020019081526020016000206001015410156110bb576110ba336114eb565b5b505050565b600115157f000000000000000000000000000000000000000000000000000000000000000073ffffffffffffffffffffffffffffffffffffffff166311479fea868686866040518563ffffffff1660e01b81526004016111239493929190611eea565b60206040518083038186803b15801561113b57600080fd5b505afa15801561114f573d6000803e3d6000fd5b505050506040513d601f19601f820116820180604052508101906111739190611bf8565b1515146111ac576040517f09bde33900000000000000000000000000000000000000000000000000000000815260040160405180910390fd5b60011515600460003373ffffffffffffffffffffffffffffffffffffffff1673ffffffffffffffffffffffffffffffffffffffff16815260200190815260200160002060020160009054906101000a900460ff161515141561123a576040517f7312e43a00000000000000000000000000000000000000000000000000000000815260040160405180910390fd5b6000600360003373ffffffffffffffffffffffffffffffffffffffff1673ffffffffffffffffffffffffffffffffffffffff16815260200190815260200160002090506008816001015410156112bc576040517f82c4767b00000000000000000000000000000000000000000000000000000000815260040160405180910390fd5b816000600381106112f6577f4e487b7100000000000000000000000000000000000000000000000000000000600052603260045260246000fd5b6020020151816002015414611337576040517ff80f144500000000000000000000000000000000000000000000000000000000815260040160405180910390fd5b81600160038110611371577f4e487b7100000000000000000000000000000000000000000000000000000000600052603260045260246000fd5b60200201518160020181905550816002600381106113b8577f4e487b7100000000000000000000000000000000000000000000000000000000600052603260045260246000fd5b6020020151816003018190555060048160010160008282546113da91906121cc565b925050819055506008816001015410156113f8576113f7336114eb565b5b600115153373ffffffffffffffffffffffffffffffffffffffff167fec69a90467aaa43beb6a73755fe1b4c7fbddd7890fb1f7fa700f79289d0ba19460405160405180910390a35050505050565b7f000000000000000000000000000000000000000000000000000000000000000081565b60026020528060005260406000206000915090505481565b60015481565b60036020528060005260406000206000915090508060000160009054906101000a900473ffffffffffffffffffffffffffffffffffffffff16908060010154908060020154908060030154908060040160009054906101000a900460ff16905085565b60011515600360008373ffffffffffffffffffffffffffffffffffffffff1673ffffffffffffffffffffffffffffffffffffffff16815260200190815260200160002060040160009054906101000a900460ff16151514156118d6576000600160008054905061155b91906121cc565b81548110611592577f4e487b7100000000000000000000000000000000000000000000000000000000600052603260045260246000fd5b9060005260206000200160009054906101000a900473ffffffffffffffffffffffffffffffffffffffff1660006001600260008573ffffffffffffffffffffffffffffffffffffffff1673ffffffffffffffffffffffffffffffffffffffff1681526020019081526020016000205461160b91906121cc565b81548110611642577f4e487b7100000000000000000000000000000000000000000000000000000000600052603260045260246000fd5b9060005260206000200160006101000a81548173ffffffffffffffffffffffffffffffffffffffff021916908373ffffffffffffffffffffffffffffffffffffffff160217905550600260008273ffffffffffffffffffffffffffffffffffffffff1673ffffffffffffffffffffffffffffffffffffffff16815260200190815260200160002054600260008060016000805490506116e191906121cc565b81548110611718577f4e487b7100000000000000000000000000000000000000000000000000000000600052603260045260246000fd5b9060005260206000200160009054906101000a900473ffffffffffffffffffffffffffffffffffffffff1673ffffffffffffffffffffffffffffffffffffffff1673ffffffffffffffffffffffffffffffffffffffff1681526020019081526020016000208190555060008054806117b9577f4e487b7100000000000000000000000000000000000000000000000000000000600052603160045260246000fd5b6001900381819060005260206000200160006101000a81549073ffffffffffffffffffffffffffffffffffffffff021916905590556000600260008373ffffffffffffffffffffffffffffffffffffffff1673ffffffffffffffffffffffffffffffffffffffff168152602001908152602001600020819055506000600360008373ffffffffffffffffffffffffffffffffffffffff1673ffffffffffffffffffffffffffffffffffffffff16815260200190815260200160002060040160006101000a81548160ff021916908315150217905550600115158173ffffffffffffffffffffffffffffffffffffffff167faf49dd0a67bbfaa0c41e857276401ad0e77d435e19c85cfa21ffafcbb11f7a6b60405160405180910390a35b50565b60006118ec6118e784611fd6565b611fb1565b9050808285604086028201111561190257600080fd5b60005b8581101561193257816119188882611a3e565b845260208401935060408301925050600181019050611905565b5050509392505050565b600061194f61194a84611ffc565b611fb1565b9050808285602086028201111561196557600080fd5b60005b85811015611995578161197b8882611aa1565b845260208401935060208301925050600181019050611968565b5050509392505050565b60006119b26119ad84612022565b611fb1565b905080828560208602820111156119c857600080fd5b60005b858110156119f857816119de8882611aa1565b8452602084019350602083019250506001810190506119cb565b5050509392505050565b600081359050611a1181612389565b92915050565b600082601f830112611a2857600080fd5b6002611a358482856118d9565b91505092915050565b600082601f830112611a4f57600080fd5b6002611a5c84828561193c565b91505092915050565b600082601f830112611a7657600080fd5b6003611a8384828561199f565b91505092915050565b600081519050611a9b816123a0565b92915050565b600081359050611ab0816123b7565b92915050565b600060208284031215611ac857600080fd5b6000611ad684828501611a02565b91505092915050565b600080600060608486031215611af457600080fd5b6000611b0286828701611a02565b9350506020611b1386828701611aa1565b9250506040611b2486828701611aa1565b9150509250925092565b6000806000806101408587031215611b4557600080fd5b6000611b5387828801611a3e565b9450506040611b6487828801611a17565b93505060c0611b7587828801611a3e565b925050610100611b8787828801611a3e565b91505092959194509250565b6000806000806101608587031215611baa57600080fd5b6000611bb887828801611a3e565b9450506040611bc987828801611a17565b93505060c0611bda87828801611a3e565b925050610100611bec87828801611a65565b91505092959194509250565b600060208284031215611c0a57600080fd5b6000611c1884828501611a8c565b91505092915050565b600060208284031215611c3357600080fd5b6000611c4184828501611aa1565b91505092915050565b6000611c568383611ce0565b60408301905092915050565b6000611c6e8383611e17565b60208301905092915050565b611c8381612200565b82525050565b611c9281612066565b611c9c81846120ae565b9250611ca782612048565b8060005b83811015611cd8578151611cbf8782611c4a565b9650611cca83612087565b925050600181019050611cab565b505050505050565b611ce981612071565b611cf381846120b9565b9250611cfe82612052565b8060005b83811015611d2f578151611d168782611c62565b9650611d2183612094565b925050600181019050611d02565b505050505050565b611d4081612071565b611d4a81846120c4565b9250611d5582612052565b8060005b83811015611d86578151611d6d8782611c62565b9650611d7883612094565b925050600181019050611d59565b505050505050565b611d978161207c565b611da181846120cf565b9250611dac8261205c565b8060005b83811015611ddd578151611dc48782611c62565b9650611dcf836120a1565b925050600181019050611db0565b505050505050565b611dee81612212565b82525050565b6000611e016012836120da565b9150611e0c82612360565b602082019050919050565b611e208161223e565b82525050565b611e2f8161223e565b82525050565b6000602082019050611e4a6000830184611c7a565b92915050565b600060a082019050611e656000830188611c7a565b611e726020830187611e26565b611e7f6040830186611e26565b611e8c6060830185611e26565b611e996080830184611de5565b9695505050505050565b600061014082019050611eb96000830187611d37565b611ec66040830186611c89565b611ed360c0830185611d37565b611ee1610100830184611d37565b95945050505050565b600061016082019050611f006000830187611d37565b611f0d6040830186611c89565b611f1a60c0830185611d37565b611f28610100830184611d8e565b95945050505050565b60006020820190508181036000830152611f4a81611df4565b9050919050565b6000602082019050611f666000830184611e26565b92915050565b6000608082019050611f816000830187611e26565b611f8e6020830186611e26565b611f9b6040830185611de5565b611fa86060830184611c7a565b95945050505050565b6000611fbb611fcc565b9050611fc78282612248565b919050565b6000604051905090565b600067ffffffffffffffff821115611ff157611ff0612320565b5b602082029050919050565b600067ffffffffffffffff82111561201757612016612320565b5b602082029050919050565b600067ffffffffffffffff82111561203d5761203c612320565b5b602082029050919050565b6000819050919050565b6000819050919050565b6000819050919050565b600060029050919050565b600060029050919050565b600060039050919050565b6000602082019050919050565b6000602082019050919050565b6000602082019050919050565b600081905092915050565b600081905092915050565b600081905092915050565b600081905092915050565b600082825260208201905092915050565b60006120f68261223e565b91506121018361223e565b9250827fffffffffffffffffffffffffffffffffffffffffffffffffffffffffffffffff03821115612136576121356122c2565b5b828201905092915050565b600061214c8261223e565b91506121578361223e565b925082612167576121666122f1565b5b828204905092915050565b600061217d8261223e565b91506121888361223e565b9250817fffffffffffffffffffffffffffffffffffffffffffffffffffffffffffffffff04831182151516156121c1576121c06122c2565b5b828202905092915050565b60006121d78261223e565b91506121e28361223e565b9250828210156121f5576121f46122c2565b5b828203905092915050565b600061220b8261221e565b9050919050565b60008115159050919050565b600073ffffffffffffffffffffffffffffffffffffffff82169050919050565b6000819050919050565b6122518261234f565b810181811067ffffffffffffffff821117156122705761226f612320565b5b80604052505050565b60006122848261223e565b91507fffffffffffffffffffffffffffffffffffffffffffffffffffffffffffffffff8214156122b7576122b66122c2565b5b600182019050919050565b7f4e487b7100000000000000000000000000000000000000000000000000000000600052601160045260246000fd5b7f4e487b7100000000000000000000000000000000000000000000000000000000600052601260045260246000fd5b7f4e487b7100000000000000000000000000000000000000000000000000000000600052604160045260246000fd5b6000601f19601f8301169050919050565b7f4e6f7420656e6f75676820706c61796572730000000000000000000000000000600082015250565b61239281612200565b811461239d57600080fd5b50565b6123a981612212565b81146123b457600080fd5b50565b6123c08161223e565b81146123cb57600080fd5b5056fea2646970667358221220f83e504c54a2f8214de1b79ec3aeda86a3ab53dd321ecd149a67030f1e19e1e564736f6c63430008040033",
  "linkReferences": {},
  "deployedLinkReferences": {}
}