{
  "_format": "hh-sol-artifact-1",
  "contractName": "Footsteps",
  "sourceName": "contracts/Game.sol",
  "abi": [
    {
      "inputs": [
        {
          "internalType": "address",
          "name": "_registerverifier",
          "type": "address"
        },
        {
          "internalType": "address",
          "name": "_moveverifier",
          "type": "address"
        },
        {
          "internalType": "address",
          "name": "_defendverifier",
          "type": "address"
        }
      ],
      "stateMutability": "payable",
      "type": "constructor"
    },
    {
      "inputs": [
        {
          "internalType": "address",
          "name": "player",
          "type": "address"
        }
      ],
      "name": "AlreadyRegistered",
      "type": "error"
    },
    {
      "inputs": [],
      "name": "Cheater",
      "type": "error"
    },
    {
      "inputs": [],
      "name": "Dead",
      "type": "error"
    },
    {
      "inputs": [],
      "name": "DefendFirst",
      "type": "error"
    },
    {
      "inputs": [],
      "name": "InvalidLocation",
      "type": "error"
    },
    {
      "inputs": [],
      "name": "InvalidProof",
      "type": "error"
    },
    {
      "inputs": [],
      "name": "NoAttack",
      "type": "error"
    },
    {
      "inputs": [],
      "name": "WrongGuess",
      "type": "error"
    },
    {
      "inputs": [],
      "name": "ZombiesNotAllowed",
      "type": "error"
    },
    {
      "anonymous": false,
      "inputs": [
        {
          "indexed": true,
          "internalType": "address",
          "name": "attacker",
          "type": "address"
        },
        {
          "indexed": true,
          "internalType": "address",
          "name": "victim",
          "type": "address"
        }
      ],
      "name": "attack",
      "type": "event"
    },
    {
      "anonymous": false,
      "inputs": [
        {
          "indexed": true,
          "internalType": "address",
          "name": "player",
          "type": "address"
        },
        {
          "indexed": true,
          "internalType": "bool",
          "name": "deadornot",
          "type": "bool"
        }
      ],
      "name": "dead",
      "type": "event"
    },
    {
      "anonymous": false,
      "inputs": [
        {
          "indexed": true,
          "internalType": "address",
          "name": "gained",
          "type": "address"
        }
      ],
      "name": "defend",
      "type": "event"
    },
    {
      "anonymous": false,
      "inputs": [
        {
          "indexed": true,
          "internalType": "address",
          "name": "player",
          "type": "address"
        },
        {
          "indexed": true,
          "internalType": "bool",
          "name": "moved",
          "type": "bool"
        }
      ],
      "name": "move",
      "type": "event"
    },
    {
      "anonymous": false,
      "inputs": [
        {
          "indexed": true,
          "internalType": "address",
          "name": "player",
          "type": "address"
        },
        {
          "indexed": true,
          "internalType": "bool",
          "name": "registered",
          "type": "bool"
        }
      ],
      "name": "register",
      "type": "event"
    },
    {
      "inputs": [
        {
          "internalType": "address",
          "name": "player",
          "type": "address"
        },
        {
          "internalType": "uint256",
          "name": "x",
          "type": "uint256"
        },
        {
          "internalType": "uint256",
          "name": "y",
          "type": "uint256"
        }
      ],
      "name": "AttackPlayer",
      "outputs": [],
      "stateMutability": "nonpayable",
      "type": "function"
    },
    {
      "inputs": [
        {
          "internalType": "uint256[2]",
          "name": "a",
          "type": "uint256[2]"
        },
        {
          "internalType": "uint256[2][2]",
          "name": "b",
          "type": "uint256[2][2]"
        },
        {
          "internalType": "uint256[2]",
          "name": "c",
          "type": "uint256[2]"
        },
        {
          "internalType": "uint256[3]",
          "name": "input",
          "type": "uint256[3]"
        }
      ],
      "name": "Defend",
      "outputs": [],
      "stateMutability": "nonpayable",
      "type": "function"
    },
    {
      "inputs": [
        {
          "internalType": "address",
          "name": "",
          "type": "address"
        }
      ],
      "name": "Id",
      "outputs": [
        {
          "internalType": "uint256",
          "name": "",
          "type": "uint256"
        }
      ],
      "stateMutability": "view",
      "type": "function"
    },
    {
      "inputs": [
        {
          "internalType": "uint256[2]",
          "name": "a",
          "type": "uint256[2]"
        },
        {
          "internalType": "uint256[2][2]",
          "name": "b",
          "type": "uint256[2][2]"
        },
        {
          "internalType": "uint256[2]",
          "name": "c",
          "type": "uint256[2]"
        },
        {
          "internalType": "uint256[3]",
          "name": "input",
          "type": "uint256[3]"
        }
      ],
      "name": "Move",
      "outputs": [],
      "stateMutability": "nonpayable",
      "type": "function"
    },
    {
      "inputs": [],
      "name": "Quit",
      "outputs": [],
      "stateMutability": "nonpayable",
      "type": "function"
    },
    {
      "inputs": [
        {
          "internalType": "uint256[2]",
          "name": "a",
          "type": "uint256[2]"
        },
        {
          "internalType": "uint256[2][2]",
          "name": "b",
          "type": "uint256[2][2]"
        },
        {
          "internalType": "uint256[2]",
          "name": "c",
          "type": "uint256[2]"
        },
        {
          "internalType": "uint256[2]",
          "name": "input",
          "type": "uint256[2]"
        }
      ],
      "name": "Register",
      "outputs": [],
      "stateMutability": "nonpayable",
      "type": "function"
    },
    {
      "inputs": [],
      "name": "TotalPlayers",
      "outputs": [
        {
          "internalType": "uint256",
          "name": "",
          "type": "uint256"
        }
      ],
      "stateMutability": "view",
      "type": "function"
    },
    {
      "inputs": [
        {
          "internalType": "uint256",
          "name": "",
          "type": "uint256"
        }
      ],
      "name": "activeplayers",
      "outputs": [
        {
          "internalType": "address",
          "name": "",
          "type": "address"
        }
      ],
      "stateMutability": "view",
      "type": "function"
    },
    {
      "inputs": [
        {
          "internalType": "address",
          "name": "",
          "type": "address"
        }
      ],
      "name": "attacks",
      "outputs": [
        {
          "internalType": "uint256",
          "name": "xguess",
          "type": "uint256"
        },
        {
          "internalType": "uint256",
          "name": "yguess",
          "type": "uint256"
        },
        {
          "internalType": "bool",
          "name": "active",
          "type": "bool"
        },
        {
          "internalType": "address",
          "name": "attacker",
          "type": "address"
        }
      ],
      "stateMutability": "view",
      "type": "function"
    },
    {
      "inputs": [],
      "name": "moveverifier",
      "outputs": [
        {
          "internalType": "address",
          "name": "",
          "type": "address"
        }
      ],
      "stateMutability": "view",
      "type": "function"
    },
    {
      "inputs": [
        {
          "internalType": "address",
          "name": "",
          "type": "address"
        }
      ],
      "name": "players",
      "outputs": [
        {
          "internalType": "address",
          "name": "player",
          "type": "address"
        },
        {
          "internalType": "uint256",
          "name": "health",
          "type": "uint256"
        },
        {
          "internalType": "uint256",
          "name": "location",
          "type": "uint256"
        },
        {
          "internalType": "uint256",
          "name": "zone",
          "type": "uint256"
        },
        {
          "internalType": "bool",
          "name": "alive",
          "type": "bool"
        }
      ],
      "stateMutability": "view",
      "type": "function"
    },
    {
      "inputs": [],
      "name": "registerverifier",
      "outputs": [
        {
          "internalType": "address",
          "name": "",
          "type": "address"
        }
      ],
      "stateMutability": "view",
      "type": "function"
    },
    {
      "inputs": [],
      "name": "verifierdefend",
      "outputs": [
        {
          "internalType": "address",
          "name": "",
          "type": "address"
        }
      ],
      "stateMutability": "view",
      "type": "function"
    }
  ],
  "bytecode": "0x60e06040526040516200269d3803806200269d8339818101604052810190620000299190620000ee565b8273ffffffffffffffffffffffffffffffffffffffff1660808173ffffffffffffffffffffffffffffffffffffffff1660601b815250508173ffffffffffffffffffffffffffffffffffffffff1660a08173ffffffffffffffffffffffffffffffffffffffff1660601b815250508073ffffffffffffffffffffffffffffffffffffffff1660c08173ffffffffffffffffffffffffffffffffffffffff1660601b8152505050505062000192565b600081519050620000e88162000178565b92915050565b6000806000606084860312156200010457600080fd5b60006200011486828701620000d7565b93505060206200012786828701620000d7565b92505060406200013a86828701620000d7565b9150509250925092565b6000620001518262000158565b9050919050565b600073ffffffffffffffffffffffffffffffffffffffff82169050919050565b620001838162000144565b81146200018f57600080fd5b50565b60805160601c60a05160601c60c05160601c6124bd620001e0600039600081816108ef01526115670152600081816102ec01526111d40152600081816103b201526103da01526124bd6000f3fe608060405234801561001057600080fd5b50600436106100cf5760003560e01c80638b812ae11161008c578063b53c99f611610066578063b53c99f6146101ed578063d1d008661461020b578063dba93c0f14610229578063e2eb41ff14610259576100cf565b80638b812ae1146101995780638ce635de146101b55780638df07ee4146101d1576100cf565b806306e78130146100d45780630e331afa146101075780630f1bbc0f14610125578063318e8b301461012f5780634081b7721461014d57806349ee838714610169575b600080fd5b6100ee60048036038101906100e99190611c35565b61028d565b6040516100fe94939291906120a8565b60405180910390f35b61010f6102ea565b60405161011c9190611f91565b60405180910390f35b61012d61030e565b005b6101376103b0565b6040516101449190611f91565b60405180910390f35b61016760048036038101906101629190611cad565b6103d4565b005b610183600480360381019061017e9190611da0565b6108aa565b6040516101909190611f91565b60405180910390f35b6101b360048036038101906101ae9190611d12565b6108e9565b005b6101cf60048036038101906101ca9190611c5e565b610ead565b005b6101eb60048036038101906101e69190611d12565b6111ce565b005b6101f5611565565b6040516102029190611f91565b60405180910390f35b610213611589565b604051610220919061208d565b60405180910390f35b610243600480360381019061023e9190611c35565b611595565b604051610250919061208d565b60405180910390f35b610273600480360381019061026e9190611c35565b6115ad565b604051610284959493929190611fac565b60405180910390f35b60036020528060005260406000206000915090508060000154908060010154908060020160009054906101000a900460ff16908060020160019054906101000a900473ffffffffffffffffffffffffffffffffffffffff16905084565b7f000000000000000000000000000000000000000000000000000000000000000081565b600260003373ffffffffffffffffffffffffffffffffffffffff1673ffffffffffffffffffffffffffffffffffffffff16815260200190815260200160002060000160009054906101000a900473ffffffffffffffffffffffffffffffffffffffff1673ffffffffffffffffffffffffffffffffffffffff163373ffffffffffffffffffffffffffffffffffffffff1614156103ae576103ad33611610565b5b565b7f000000000000000000000000000000000000000000000000000000000000000081565b600115157f000000000000000000000000000000000000000000000000000000000000000073ffffffffffffffffffffffffffffffffffffffff1663f5c9d69e868686866040518563ffffffff1660e01b81526004016104379493929190611fff565b60206040518083038186803b15801561044f57600080fd5b505afa158015610463573d6000803e3d6000fd5b505050506040513d601f19601f820116820180604052508101906104879190611d77565b1515146104c0576040517f09bde33900000000000000000000000000000000000000000000000000000000815260040160405180910390fd5b6000600260003373ffffffffffffffffffffffffffffffffffffffff1673ffffffffffffffffffffffffffffffffffffffff1681526020019081526020016000206040518060a00160405290816000820160009054906101000a900473ffffffffffffffffffffffffffffffffffffffff1673ffffffffffffffffffffffffffffffffffffffff1673ffffffffffffffffffffffffffffffffffffffff1681526020016001820154815260200160028201548152602001600382015481526020016004820160009054906101000a900460ff16151515158152505090503373ffffffffffffffffffffffffffffffffffffffff16816000015173ffffffffffffffffffffffffffffffffffffffff161480156105e457506001151581608001511515145b1561062657336040517f45ed80e900000000000000000000000000000000000000000000000000000000815260040161061d9190611f91565b60405180910390fd5b60006040518060a001604052803373ffffffffffffffffffffffffffffffffffffffff1681526020016064815260200184600060028110610690577f4e487b7100000000000000000000000000000000000000000000000000000000600052603260045260246000fd5b60200201518152602001846001600281106106d4577f4e487b7100000000000000000000000000000000000000000000000000000000600052603260045260246000fd5b6020020151815260200160011515815250905080600260003373ffffffffffffffffffffffffffffffffffffffff1673ffffffffffffffffffffffffffffffffffffffff16815260200190815260200160002060008201518160000160006101000a81548173ffffffffffffffffffffffffffffffffffffffff021916908373ffffffffffffffffffffffffffffffffffffffff16021790555060208201518160010155604082015181600201556060820151816003015560808201518160040160006101000a81548160ff0219169083151502179055509050506000339080600181540180825580915050600190039060005260206000200160009091909190916101000a81548173ffffffffffffffffffffffffffffffffffffffff021916908373ffffffffffffffffffffffffffffffffffffffff160217905550600080549050600160003373ffffffffffffffffffffffffffffffffffffffff1673ffffffffffffffffffffffffffffffffffffffff16815260200190815260200160002081905550600115153373ffffffffffffffffffffffffffffffffffffffff167fab01b4692bd902b4859dc270e9c93f448cea806bbd1a2d031219e834ccd0755460405160405180910390a3505050505050565b600081815481106108ba57600080fd5b906000526020600020016000915054906101000a900473ffffffffffffffffffffffffffffffffffffffff1681565b600115157f000000000000000000000000000000000000000000000000000000000000000073ffffffffffffffffffffffffffffffffffffffff166311479fea868686866040518563ffffffff1660e01b815260040161094c9493929190612046565b60206040518083038186803b15801561096457600080fd5b505afa158015610978573d6000803e3d6000fd5b505050506040513d601f19601f8201168201806040525081019061099c9190611d77565b1515146109d5576040517f09bde33900000000000000000000000000000000000000000000000000000000815260040160405180910390fd5b6008600260003373ffffffffffffffffffffffffffffffffffffffff1673ffffffffffffffffffffffffffffffffffffffff168152602001908152602001600020600101541015610a52576040517f82c4767b00000000000000000000000000000000000000000000000000000000815260040160405180910390fd5b6000600260003373ffffffffffffffffffffffffffffffffffffffff1673ffffffffffffffffffffffffffffffffffffffff16815260200190815260200160002090506000600360003373ffffffffffffffffffffffffffffffffffffffff1673ffffffffffffffffffffffffffffffffffffffff16815260200190815260200160002090506000600260008360020160019054906101000a900473ffffffffffffffffffffffffffffffffffffffff1673ffffffffffffffffffffffffffffffffffffffff1673ffffffffffffffffffffffffffffffffffffffff1681526020019081526020016000209050600015158260020160009054906101000a900460ff1615151415610b8f576040517f83df6c5400000000000000000000000000000000000000000000000000000000815260040160405180910390fd5b816000015484600160038110610bce577f4e487b7100000000000000000000000000000000000000000000000000000000600052603260045260246000fd5b602002015114610c0a576040517fe387c80000000000000000000000000000000000000000000000000000000000815260040160405180910390fd5b816001015484600260038110610c49577f4e487b7100000000000000000000000000000000000000000000000000000000600052603260045260246000fd5b602002015114610c85576040517fe387c80000000000000000000000000000000000000000000000000000000000815260040160405180910390fd5b60008260020160006101000a81548160ff021916908315150217905550826002015484600060038110610ce1577f4e487b7100000000000000000000000000000000000000000000000000000000600052603260045260246000fd5b60200201511415610e5257806001015483600101541115610d945760058160010154610d0d919061226c565b836001016000828254610d209190612216565b92505081905550600460058260010154610d3a919061226c565b610d44919061229d565b81600101819055503373ffffffffffffffffffffffffffffffffffffffff167fa63f44fcd523408034594e29915d3d6c5c388867dca5295ddce796dd892b7f9560405160405180910390a2610e51565b806001015483600101541015610e505760028360010154610db5919061226c565b816001016000828254610dc89190612216565b9250508190555060028360010154610de0919061226c565b83600101819055508060000160009054906101000a900473ffffffffffffffffffffffffffffffffffffffff1673ffffffffffffffffffffffffffffffffffffffff167fa63f44fcd523408034594e29915d3d6c5c388867dca5295ddce796dd892b7f9560405160405180910390a25b5b5b600883600101541015610e6957610e6833611610565b5b600881600101541015610ea457610ea38260020160019054906101000a900473ffffffffffffffffffffffffffffffffffffffff16611610565b5b50505050505050565b60001515600260003373ffffffffffffffffffffffffffffffffffffffff1673ffffffffffffffffffffffffffffffffffffffff16815260200190815260200160002060040160009054906101000a900460ff1615151415610f3b576040517f82c4767b00000000000000000000000000000000000000000000000000000000815260040160405180910390fd5b60001515600260008573ffffffffffffffffffffffffffffffffffffffff1673ffffffffffffffffffffffffffffffffffffffff16815260200190815260200160002060040160009054906101000a900460ff1615151415610fc9576040517f42a900fa00000000000000000000000000000000000000000000000000000000815260040160405180910390fd5b60405180608001604052808381526020018281526020016001151581526020013373ffffffffffffffffffffffffffffffffffffffff16815250600360008573ffffffffffffffffffffffffffffffffffffffff1673ffffffffffffffffffffffffffffffffffffffff168152602001908152602001600020600082015181600001556020820151816001015560408201518160020160006101000a81548160ff02191690831515021790555060608201518160020160016101000a81548173ffffffffffffffffffffffffffffffffffffffff021916908373ffffffffffffffffffffffffffffffffffffffff1602179055509050506008600260003373ffffffffffffffffffffffffffffffffffffffff1673ffffffffffffffffffffffffffffffffffffffff168152602001908152602001600020600101600082825461111391906122f7565b925050819055506008600260003373ffffffffffffffffffffffffffffffffffffffff1673ffffffffffffffffffffffffffffffffffffffff16815260200190815260200160002060010154101561116f5761116e33611610565b5b8273ffffffffffffffffffffffffffffffffffffffff163373ffffffffffffffffffffffffffffffffffffffff167f3c48664cb6fd3ecd632fdd260eb37601c11dc687890c2457b67aedb8a46c051e60405160405180910390a3505050565b600115157f000000000000000000000000000000000000000000000000000000000000000073ffffffffffffffffffffffffffffffffffffffff166311479fea868686866040518563ffffffff1660e01b81526004016112319493929190612046565b60206040518083038186803b15801561124957600080fd5b505afa15801561125d573d6000803e3d6000fd5b505050506040513d601f19601f820116820180604052508101906112819190611d77565b1515146112ba576040517f09bde33900000000000000000000000000000000000000000000000000000000815260040160405180910390fd5b60011515600360003373ffffffffffffffffffffffffffffffffffffffff1673ffffffffffffffffffffffffffffffffffffffff16815260200190815260200160002060020160009054906101000a900460ff1615151415611348576040517f7312e43a00000000000000000000000000000000000000000000000000000000815260040160405180910390fd5b6000600260003373ffffffffffffffffffffffffffffffffffffffff1673ffffffffffffffffffffffffffffffffffffffff1681526020019081526020016000209050600015158160040160009054906101000a900460ff16151514156113db576040517f82c4767b00000000000000000000000000000000000000000000000000000000815260040160405180910390fd5b81600060038110611415577f4e487b7100000000000000000000000000000000000000000000000000000000600052603260045260246000fd5b6020020151816002015414611456576040517ff80f144500000000000000000000000000000000000000000000000000000000815260040160405180910390fd5b81600160038110611490577f4e487b7100000000000000000000000000000000000000000000000000000000600052603260045260246000fd5b60200201518160020181905550816002600381106114d7577f4e487b7100000000000000000000000000000000000000000000000000000000600052603260045260246000fd5b6020020151816003018190555060048160010160008282546114f991906122f7565b925050819055506008816001015410156115175761151633611610565b5b600115153373ffffffffffffffffffffffffffffffffffffffff167fec69a90467aaa43beb6a73755fe1b4c7fbddd7890fb1f7fa700f79289d0ba19460405160405180910390a35050505050565b7f000000000000000000000000000000000000000000000000000000000000000081565b60008080549050905090565b60016020528060005260406000206000915090505481565b60026020528060005260406000206000915090508060000160009054906101000a900473ffffffffffffffffffffffffffffffffffffffff16908060010154908060020154908060030154908060040160009054906101000a900460ff16905085565b60011515600260008373ffffffffffffffffffffffffffffffffffffffff1673ffffffffffffffffffffffffffffffffffffffff16815260200190815260200160002060040160009054906101000a900460ff1615151415611a55576000600160008054905061168091906122f7565b815481106116b7577f4e487b7100000000000000000000000000000000000000000000000000000000600052603260045260246000fd5b9060005260206000200160009054906101000a900473ffffffffffffffffffffffffffffffffffffffff16600060018060008573ffffffffffffffffffffffffffffffffffffffff1673ffffffffffffffffffffffffffffffffffffffff1681526020019081526020016000205461172f91906122f7565b81548110611766577f4e487b7100000000000000000000000000000000000000000000000000000000600052603260045260246000fd5b9060005260206000200160006101000a81548173ffffffffffffffffffffffffffffffffffffffff021916908373ffffffffffffffffffffffffffffffffffffffff160217905550600160008273ffffffffffffffffffffffffffffffffffffffff1673ffffffffffffffffffffffffffffffffffffffff168152602001908152602001600020546001600080600160008054905061180591906122f7565b8154811061183c577f4e487b7100000000000000000000000000000000000000000000000000000000600052603260045260246000fd5b9060005260206000200160009054906101000a900473ffffffffffffffffffffffffffffffffffffffff1673ffffffffffffffffffffffffffffffffffffffff1673ffffffffffffffffffffffffffffffffffffffff1681526020019081526020016000208190555060008054806118dd577f4e487b7100000000000000000000000000000000000000000000000000000000600052603160045260246000fd5b6001900381819060005260206000200160006101000a81549073ffffffffffffffffffffffffffffffffffffffff021916905590556000600160008373ffffffffffffffffffffffffffffffffffffffff1673ffffffffffffffffffffffffffffffffffffffff168152602001908152602001600020819055506000600260008373ffffffffffffffffffffffffffffffffffffffff1673ffffffffffffffffffffffffffffffffffffffff16815260200190815260200160002060040160006101000a81548160ff0219169083151502179055506000600360008373ffffffffffffffffffffffffffffffffffffffff1673ffffffffffffffffffffffffffffffffffffffff16815260200190815260200160002060020160006101000a81548160ff021916908315150217905550600115158173ffffffffffffffffffffffffffffffffffffffff167faf49dd0a67bbfaa0c41e857276401ad0e77d435e19c85cfa21ffafcbb11f7a6b60405160405180910390a35b50565b6000611a6b611a6684612112565b6120ed565b90508082856040860282011115611a8157600080fd5b60005b85811015611ab15781611a978882611bbd565b845260208401935060408301925050600181019050611a84565b5050509392505050565b6000611ace611ac984612138565b6120ed565b90508082856020860282011115611ae457600080fd5b60005b85811015611b145781611afa8882611c20565b845260208401935060208301925050600181019050611ae7565b5050509392505050565b6000611b31611b2c8461215e565b6120ed565b90508082856020860282011115611b4757600080fd5b60005b85811015611b775781611b5d8882611c20565b845260208401935060208301925050600181019050611b4a565b5050509392505050565b600081359050611b9081612442565b92915050565b600082601f830112611ba757600080fd5b6002611bb4848285611a58565b91505092915050565b600082601f830112611bce57600080fd5b6002611bdb848285611abb565b91505092915050565b600082601f830112611bf557600080fd5b6003611c02848285611b1e565b91505092915050565b600081519050611c1a81612459565b92915050565b600081359050611c2f81612470565b92915050565b600060208284031215611c4757600080fd5b6000611c5584828501611b81565b91505092915050565b600080600060608486031215611c7357600080fd5b6000611c8186828701611b81565b9350506020611c9286828701611c20565b9250506040611ca386828701611c20565b9150509250925092565b6000806000806101408587031215611cc457600080fd5b6000611cd287828801611bbd565b9450506040611ce387828801611b96565b93505060c0611cf487828801611bbd565b925050610100611d0687828801611bbd565b91505092959194509250565b6000806000806101608587031215611d2957600080fd5b6000611d3787828801611bbd565b9450506040611d4887828801611b96565b93505060c0611d5987828801611bbd565b925050610100611d6b87828801611be4565b91505092959194509250565b600060208284031215611d8957600080fd5b6000611d9784828501611c0b565b91505092915050565b600060208284031215611db257600080fd5b6000611dc084828501611c20565b91505092915050565b6000611dd58383611e5f565b60408301905092915050565b6000611ded8383611f73565b60208301905092915050565b611e028161232b565b82525050565b611e11816121a2565b611e1b81846121ea565b9250611e2682612184565b8060005b83811015611e57578151611e3e8782611dc9565b9650611e49836121c3565b925050600181019050611e2a565b505050505050565b611e68816121ad565b611e7281846121f5565b9250611e7d8261218e565b8060005b83811015611eae578151611e958782611de1565b9650611ea0836121d0565b925050600181019050611e81565b505050505050565b611ebf816121ad565b611ec98184612200565b9250611ed48261218e565b8060005b83811015611f05578151611eec8782611de1565b9650611ef7836121d0565b925050600181019050611ed8565b505050505050565b611f16816121b8565b611f20818461220b565b9250611f2b82612198565b8060005b83811015611f5c578151611f438782611de1565b9650611f4e836121dd565b925050600181019050611f2f565b505050505050565b611f6d8161233d565b82525050565b611f7c81612369565b82525050565b611f8b81612369565b82525050565b6000602082019050611fa66000830184611df9565b92915050565b600060a082019050611fc16000830188611df9565b611fce6020830187611f82565b611fdb6040830186611f82565b611fe86060830185611f82565b611ff56080830184611f64565b9695505050505050565b6000610140820190506120156000830187611eb6565b6120226040830186611e08565b61202f60c0830185611eb6565b61203d610100830184611eb6565b95945050505050565b60006101608201905061205c6000830187611eb6565b6120696040830186611e08565b61207660c0830185611eb6565b612084610100830184611f0d565b95945050505050565b60006020820190506120a26000830184611f82565b92915050565b60006080820190506120bd6000830187611f82565b6120ca6020830186611f82565b6120d76040830185611f64565b6120e46060830184611df9565b95945050505050565b60006120f7612108565b90506121038282612373565b919050565b6000604051905090565b600067ffffffffffffffff82111561212d5761212c612402565b5b602082029050919050565b600067ffffffffffffffff82111561215357612152612402565b5b602082029050919050565b600067ffffffffffffffff82111561217957612178612402565b5b602082029050919050565b6000819050919050565b6000819050919050565b6000819050919050565b600060029050919050565b600060029050919050565b600060039050919050565b6000602082019050919050565b6000602082019050919050565b6000602082019050919050565b600081905092915050565b600081905092915050565b600081905092915050565b600081905092915050565b600061222182612369565b915061222c83612369565b9250827fffffffffffffffffffffffffffffffffffffffffffffffffffffffffffffffff03821115612261576122606123a4565b5b828201905092915050565b600061227782612369565b915061228283612369565b925082612292576122916123d3565b5b828204905092915050565b60006122a882612369565b91506122b383612369565b9250817fffffffffffffffffffffffffffffffffffffffffffffffffffffffffffffffff04831182151516156122ec576122eb6123a4565b5b828202905092915050565b600061230282612369565b915061230d83612369565b9250828210156123205761231f6123a4565b5b828203905092915050565b600061233682612349565b9050919050565b60008115159050919050565b600073ffffffffffffffffffffffffffffffffffffffff82169050919050565b6000819050919050565b61237c82612431565b810181811067ffffffffffffffff8211171561239b5761239a612402565b5b80604052505050565b7f4e487b7100000000000000000000000000000000000000000000000000000000600052601160045260246000fd5b7f4e487b7100000000000000000000000000000000000000000000000000000000600052601260045260246000fd5b7f4e487b7100000000000000000000000000000000000000000000000000000000600052604160045260246000fd5b6000601f19601f8301169050919050565b61244b8161232b565b811461245657600080fd5b50565b6124628161233d565b811461246d57600080fd5b50565b61247981612369565b811461248457600080fd5b5056fea2646970667358221220063e7576009e5c857e2e834ff6596272b58bc4dbb4c92c028b6fe3fcaa3286d864736f6c63430008040033",
  "linkReferences": {},
  "deployedLinkReferences": {}
}