{
  "_format": "hh-sol-artifact-1",
  "contractName": "Footsteps",
  "sourceName": "contracts/Game.sol",
  "abi": [
    {
      "inputs": [
        {
          "internalType": "address",
          "name": "_registerverifier",
          "type": "address"
        },
        {
          "internalType": "address",
          "name": "_moveverifier",
          "type": "address"
        },
        {
          "internalType": "address",
          "name": "_defendverifier",
          "type": "address"
        }
      ],
      "stateMutability": "payable",
      "type": "constructor"
    },
    {
      "inputs": [
        {
          "internalType": "address",
          "name": "player",
          "type": "address"
        }
      ],
      "name": "AlreadyRegistered",
      "type": "error"
    },
    {
      "inputs": [],
      "name": "Cheater",
      "type": "error"
    },
    {
      "inputs": [],
      "name": "Dead",
      "type": "error"
    },
    {
      "inputs": [],
      "name": "DefendFirst",
      "type": "error"
    },
    {
      "inputs": [],
      "name": "InvalidLocation",
      "type": "error"
    },
    {
      "inputs": [],
      "name": "InvalidProof",
      "type": "error"
    },
    {
      "inputs": [],
      "name": "NoAttack",
      "type": "error"
    },
    {
      "inputs": [],
      "name": "WrongGuess",
      "type": "error"
    },
    {
      "inputs": [],
      "name": "ZombiesNotAllowed",
      "type": "error"
    },
    {
      "anonymous": false,
      "inputs": [
        {
          "indexed": true,
          "internalType": "address",
          "name": "attacker",
          "type": "address"
        },
        {
          "indexed": true,
          "internalType": "address",
          "name": "victim",
          "type": "address"
        }
      ],
      "name": "attack",
      "type": "event"
    },
    {
      "anonymous": false,
      "inputs": [
        {
          "indexed": true,
          "internalType": "address",
          "name": "player",
          "type": "address"
        },
        {
          "indexed": true,
          "internalType": "bool",
          "name": "deadornot",
          "type": "bool"
        }
      ],
      "name": "dead",
      "type": "event"
    },
    {
      "anonymous": false,
      "inputs": [
        {
          "indexed": true,
          "internalType": "address",
          "name": "gained",
          "type": "address"
        }
      ],
      "name": "defend",
      "type": "event"
    },
    {
      "anonymous": false,
      "inputs": [
        {
          "indexed": true,
          "internalType": "address",
          "name": "player",
          "type": "address"
        },
        {
          "indexed": true,
          "internalType": "bool",
          "name": "moved",
          "type": "bool"
        }
      ],
      "name": "move",
      "type": "event"
    },
    {
      "anonymous": false,
      "inputs": [
        {
          "indexed": true,
          "internalType": "address",
          "name": "player",
          "type": "address"
        },
        {
          "indexed": true,
          "internalType": "bool",
          "name": "registered",
          "type": "bool"
        }
      ],
      "name": "register",
      "type": "event"
    },
    {
      "inputs": [
        {
          "internalType": "address",
          "name": "player",
          "type": "address"
        },
        {
          "internalType": "uint256",
          "name": "x",
          "type": "uint256"
        },
        {
          "internalType": "uint256",
          "name": "y",
          "type": "uint256"
        }
      ],
      "name": "AttackPlayer",
      "outputs": [],
      "stateMutability": "nonpayable",
      "type": "function"
    },
    {
      "inputs": [
        {
          "internalType": "uint256[2]",
          "name": "a",
          "type": "uint256[2]"
        },
        {
          "internalType": "uint256[2][2]",
          "name": "b",
          "type": "uint256[2][2]"
        },
        {
          "internalType": "uint256[2]",
          "name": "c",
          "type": "uint256[2]"
        },
        {
          "internalType": "uint256[3]",
          "name": "input",
          "type": "uint256[3]"
        }
      ],
      "name": "Defend",
      "outputs": [],
      "stateMutability": "nonpayable",
      "type": "function"
    },
    {
      "inputs": [
        {
          "internalType": "address",
          "name": "",
          "type": "address"
        }
      ],
      "name": "Id",
      "outputs": [
        {
          "internalType": "uint256",
          "name": "",
          "type": "uint256"
        }
      ],
      "stateMutability": "view",
      "type": "function"
    },
    {
      "inputs": [
        {
          "internalType": "uint256[2]",
          "name": "a",
          "type": "uint256[2]"
        },
        {
          "internalType": "uint256[2][2]",
          "name": "b",
          "type": "uint256[2][2]"
        },
        {
          "internalType": "uint256[2]",
          "name": "c",
          "type": "uint256[2]"
        },
        {
          "internalType": "uint256[3]",
          "name": "input",
          "type": "uint256[3]"
        }
      ],
      "name": "Move",
      "outputs": [],
      "stateMutability": "nonpayable",
      "type": "function"
    },
    {
      "inputs": [],
      "name": "Quit",
      "outputs": [],
      "stateMutability": "nonpayable",
      "type": "function"
    },
    {
      "inputs": [
        {
          "internalType": "uint256[2]",
          "name": "a",
          "type": "uint256[2]"
        },
        {
          "internalType": "uint256[2][2]",
          "name": "b",
          "type": "uint256[2][2]"
        },
        {
          "internalType": "uint256[2]",
          "name": "c",
          "type": "uint256[2]"
        },
        {
          "internalType": "uint256[2]",
          "name": "input",
          "type": "uint256[2]"
        }
      ],
      "name": "Register",
      "outputs": [],
      "stateMutability": "nonpayable",
      "type": "function"
    },
    {
      "inputs": [],
      "name": "TotalPlayers",
      "outputs": [
        {
          "internalType": "uint256",
          "name": "",
          "type": "uint256"
        }
      ],
      "stateMutability": "view",
      "type": "function"
    },
    {
      "inputs": [
        {
          "internalType": "uint256",
          "name": "",
          "type": "uint256"
        }
      ],
      "name": "activeplayers",
      "outputs": [
        {
          "internalType": "address",
          "name": "",
          "type": "address"
        }
      ],
      "stateMutability": "view",
      "type": "function"
    },
    {
      "inputs": [
        {
          "internalType": "address",
          "name": "",
          "type": "address"
        }
      ],
      "name": "attacks",
      "outputs": [
        {
          "internalType": "uint256",
          "name": "xguess",
          "type": "uint256"
        },
        {
          "internalType": "uint256",
          "name": "yguess",
          "type": "uint256"
        },
        {
          "internalType": "bool",
          "name": "active",
          "type": "bool"
        },
        {
          "internalType": "address",
          "name": "attacker",
          "type": "address"
        }
      ],
      "stateMutability": "view",
      "type": "function"
    },
    {
      "inputs": [],
      "name": "moveverifier",
      "outputs": [
        {
          "internalType": "address",
          "name": "",
          "type": "address"
        }
      ],
      "stateMutability": "view",
      "type": "function"
    },
    {
      "inputs": [],
      "name": "playerid",
      "outputs": [
        {
          "internalType": "uint256",
          "name": "",
          "type": "uint256"
        }
      ],
      "stateMutability": "view",
      "type": "function"
    },
    {
      "inputs": [
        {
          "internalType": "address",
          "name": "",
          "type": "address"
        }
      ],
      "name": "players",
      "outputs": [
        {
          "internalType": "address",
          "name": "player",
          "type": "address"
        },
        {
          "internalType": "uint256",
          "name": "health",
          "type": "uint256"
        },
        {
          "internalType": "uint256",
          "name": "location",
          "type": "uint256"
        },
        {
          "internalType": "uint256",
          "name": "zone",
          "type": "uint256"
        },
        {
          "internalType": "bool",
          "name": "alive",
          "type": "bool"
        }
      ],
      "stateMutability": "view",
      "type": "function"
    },
    {
      "inputs": [],
      "name": "registerverifier",
      "outputs": [
        {
          "internalType": "address",
          "name": "",
          "type": "address"
        }
      ],
      "stateMutability": "view",
      "type": "function"
    },
    {
      "inputs": [],
      "name": "verifierdefend",
      "outputs": [
        {
          "internalType": "address",
          "name": "",
          "type": "address"
        }
      ],
      "stateMutability": "view",
      "type": "function"
    }
  ],
  "bytecode": "0x60e060405260018055604051620027143803806200271483398181016040528101906200002d9190620000f2565b8273ffffffffffffffffffffffffffffffffffffffff1660808173ffffffffffffffffffffffffffffffffffffffff1660601b815250508173ffffffffffffffffffffffffffffffffffffffff1660a08173ffffffffffffffffffffffffffffffffffffffff1660601b815250508073ffffffffffffffffffffffffffffffffffffffff1660c08173ffffffffffffffffffffffffffffffffffffffff1660601b8152505050505062000196565b600081519050620000ec816200017c565b92915050565b6000806000606084860312156200010857600080fd5b60006200011886828701620000db565b93505060206200012b86828701620000db565b92505060406200013e86828701620000db565b9150509250925092565b600062000155826200015c565b9050919050565b600073ffffffffffffffffffffffffffffffffffffffff82169050919050565b620001878162000148565b81146200019357600080fd5b50565b60805160601c60a05160601c60c05160601c612530620001e460003960008181610928015261162e015260008181610325015261129b0152600081816103eb015261041301526125306000f3fe608060405234801561001057600080fd5b50600436106100ea5760003560e01c80638ce635de1161008c578063d1d0086611610066578063d1d0086614610226578063dba93c0f14610244578063dce41b7e14610274578063e2eb41ff14610292576100ea565b80638ce635de146101d05780638df07ee4146101ec578063b53c99f614610208576100ea565b8063318e8b30116100c8578063318e8b301461014a5780634081b7721461016857806349ee8387146101845780638b812ae1146101b4576100ea565b806306e78130146100ef5780630e331afa146101225780630f1bbc0f14610140575b600080fd5b61010960048036038101906101049190611ca8565b6102c6565b604051610119949392919061211b565b60405180910390f35b61012a610323565b6040516101379190612004565b60405180910390f35b610148610347565b005b6101526103e9565b60405161015f9190612004565b60405180910390f35b610182600480360381019061017d9190611d20565b61040d565b005b61019e60048036038101906101999190611e13565b6108e3565b6040516101ab9190612004565b60405180910390f35b6101ce60048036038101906101c99190611d85565b610922565b005b6101ea60048036038101906101e59190611cd1565b610f74565b005b61020660048036038101906102019190611d85565b611295565b005b61021061162c565b60405161021d9190612004565b60405180910390f35b61022e611650565b60405161023b9190612100565b60405180910390f35b61025e60048036038101906102599190611ca8565b61165c565b60405161026b9190612100565b60405180910390f35b61027c611674565b6040516102899190612100565b60405180910390f35b6102ac60048036038101906102a79190611ca8565b61167a565b6040516102bd95949392919061201f565b60405180910390f35b60046020528060005260406000206000915090508060000154908060010154908060020160009054906101000a900460ff16908060020160019054906101000a900473ffffffffffffffffffffffffffffffffffffffff16905084565b7f000000000000000000000000000000000000000000000000000000000000000081565b600360003373ffffffffffffffffffffffffffffffffffffffff1673ffffffffffffffffffffffffffffffffffffffff16815260200190815260200160002060000160009054906101000a900473ffffffffffffffffffffffffffffffffffffffff1673ffffffffffffffffffffffffffffffffffffffff163373ffffffffffffffffffffffffffffffffffffffff1614156103e7576103e6336116dd565b5b565b7f000000000000000000000000000000000000000000000000000000000000000081565b600115157f000000000000000000000000000000000000000000000000000000000000000073ffffffffffffffffffffffffffffffffffffffff1663f5c9d69e868686866040518563ffffffff1660e01b81526004016104709493929190612072565b60206040518083038186803b15801561048857600080fd5b505afa15801561049c573d6000803e3d6000fd5b505050506040513d601f19601f820116820180604052508101906104c09190611dea565b1515146104f9576040517f09bde33900000000000000000000000000000000000000000000000000000000815260040160405180910390fd5b6000600360003373ffffffffffffffffffffffffffffffffffffffff1673ffffffffffffffffffffffffffffffffffffffff1681526020019081526020016000206040518060a00160405290816000820160009054906101000a900473ffffffffffffffffffffffffffffffffffffffff1673ffffffffffffffffffffffffffffffffffffffff1673ffffffffffffffffffffffffffffffffffffffff1681526020016001820154815260200160028201548152602001600382015481526020016004820160009054906101000a900460ff16151515158152505090503373ffffffffffffffffffffffffffffffffffffffff16816000015173ffffffffffffffffffffffffffffffffffffffff1614801561061d57506001151581608001511515145b1561065f57336040517f45ed80e90000000000000000000000000000000000000000000000000000000081526004016106569190612004565b60405180910390fd5b60006040518060a001604052803373ffffffffffffffffffffffffffffffffffffffff16815260200160648152602001846000600281106106c9577f4e487b7100000000000000000000000000000000000000000000000000000000600052603260045260246000fd5b602002015181526020018460016002811061070d577f4e487b7100000000000000000000000000000000000000000000000000000000600052603260045260246000fd5b6020020151815260200160011515815250905080600360003373ffffffffffffffffffffffffffffffffffffffff1673ffffffffffffffffffffffffffffffffffffffff16815260200190815260200160002060008201518160000160006101000a81548173ffffffffffffffffffffffffffffffffffffffff021916908373ffffffffffffffffffffffffffffffffffffffff16021790555060208201518160010155604082015181600201556060820151816003015560808201518160040160006101000a81548160ff0219169083151502179055509050506000339080600181540180825580915050600190039060005260206000200160009091909190916101000a81548173ffffffffffffffffffffffffffffffffffffffff021916908373ffffffffffffffffffffffffffffffffffffffff160217905550600080549050600260003373ffffffffffffffffffffffffffffffffffffffff1673ffffffffffffffffffffffffffffffffffffffff16815260200190815260200160002081905550600115153373ffffffffffffffffffffffffffffffffffffffff167fab01b4692bd902b4859dc270e9c93f448cea806bbd1a2d031219e834ccd0755460405160405180910390a3505050505050565b600081815481106108f357600080fd5b906000526020600020016000915054906101000a900473ffffffffffffffffffffffffffffffffffffffff1681565b600115157f000000000000000000000000000000000000000000000000000000000000000073ffffffffffffffffffffffffffffffffffffffff166311479fea868686866040518563ffffffff1660e01b815260040161098594939291906120b9565b60206040518083038186803b15801561099d57600080fd5b505afa1580156109b1573d6000803e3d6000fd5b505050506040513d601f19601f820116820180604052508101906109d59190611dea565b151514610a0e576040517f09bde33900000000000000000000000000000000000000000000000000000000815260040160405180910390fd5b6008600360003373ffffffffffffffffffffffffffffffffffffffff1673ffffffffffffffffffffffffffffffffffffffff168152602001908152602001600020600101541015610a8b576040517f82c4767b00000000000000000000000000000000000000000000000000000000815260040160405180910390fd5b6000600360003373ffffffffffffffffffffffffffffffffffffffff1673ffffffffffffffffffffffffffffffffffffffff16815260200190815260200160002090506000600460003373ffffffffffffffffffffffffffffffffffffffff1673ffffffffffffffffffffffffffffffffffffffff16815260200190815260200160002090506000600360008360020160019054906101000a900473ffffffffffffffffffffffffffffffffffffffff1673ffffffffffffffffffffffffffffffffffffffff1673ffffffffffffffffffffffffffffffffffffffff1681526020019081526020016000209050600015158260020160009054906101000a900460ff1615151415610bc8576040517f83df6c5400000000000000000000000000000000000000000000000000000000815260040160405180910390fd5b826002015484600060038110610c07577f4e487b7100000000000000000000000000000000000000000000000000000000600052603260045260246000fd5b602002015114610c43576040517f0d54d5cf00000000000000000000000000000000000000000000000000000000815260040160405180910390fd5b816000015484600160038110610c82577f4e487b7100000000000000000000000000000000000000000000000000000000600052603260045260246000fd5b602002015114610cbe576040517fe387c80000000000000000000000000000000000000000000000000000000000815260040160405180910390fd5b816001015484600260038110610cfd577f4e487b7100000000000000000000000000000000000000000000000000000000600052603260045260246000fd5b602002015114610d39576040517fe387c80000000000000000000000000000000000000000000000000000000000815260040160405180910390fd5b600115158260020160009054906101000a900460ff1615151415610f1957806001015483600101541115610e1c5760058160010154610d7891906122df565b836001016000828254610d8b9190612289565b92505081905550600460058260010154610da591906122df565b610daf9190612310565b816001018190555060008260020160006101000a81548160ff0219169083151502179055503373ffffffffffffffffffffffffffffffffffffffff167fa63f44fcd523408034594e29915d3d6c5c388867dca5295ddce796dd892b7f9560405160405180910390a2610f18565b806001015483600101541415610e4e5760008260020160006101000a81548160ff021916908315150217905550610f17565b60028360010154610e5f91906122df565b816001016000828254610e729190612289565b9250508190555060028360010154610e8a91906122df565b836001018190555060008260020160006101000a81548160ff0219169083151502179055508060000160009054906101000a900473ffffffffffffffffffffffffffffffffffffffff1673ffffffffffffffffffffffffffffffffffffffff167fa63f44fcd523408034594e29915d3d6c5c388867dca5295ddce796dd892b7f9560405160405180910390a25b5b5b600883600101541015610f3057610f2f336116dd565b5b600881600101541015610f6b57610f6a8260020160019054906101000a900473ffffffffffffffffffffffffffffffffffffffff166116dd565b5b50505050505050565b60001515600360003373ffffffffffffffffffffffffffffffffffffffff1673ffffffffffffffffffffffffffffffffffffffff16815260200190815260200160002060040160009054906101000a900460ff1615151415611002576040517f82c4767b00000000000000000000000000000000000000000000000000000000815260040160405180910390fd5b60001515600360008573ffffffffffffffffffffffffffffffffffffffff1673ffffffffffffffffffffffffffffffffffffffff16815260200190815260200160002060040160009054906101000a900460ff1615151415611090576040517f42a900fa00000000000000000000000000000000000000000000000000000000815260040160405180910390fd5b60405180608001604052808381526020018281526020016001151581526020013373ffffffffffffffffffffffffffffffffffffffff16815250600460008573ffffffffffffffffffffffffffffffffffffffff1673ffffffffffffffffffffffffffffffffffffffff168152602001908152602001600020600082015181600001556020820151816001015560408201518160020160006101000a81548160ff02191690831515021790555060608201518160020160016101000a81548173ffffffffffffffffffffffffffffffffffffffff021916908373ffffffffffffffffffffffffffffffffffffffff1602179055509050506008600360003373ffffffffffffffffffffffffffffffffffffffff1673ffffffffffffffffffffffffffffffffffffffff16815260200190815260200160002060010160008282546111da919061236a565b925050819055506008600360003373ffffffffffffffffffffffffffffffffffffffff1673ffffffffffffffffffffffffffffffffffffffff16815260200190815260200160002060010154101561123657611235336116dd565b5b8273ffffffffffffffffffffffffffffffffffffffff163373ffffffffffffffffffffffffffffffffffffffff167f3c48664cb6fd3ecd632fdd260eb37601c11dc687890c2457b67aedb8a46c051e60405160405180910390a3505050565b600115157f000000000000000000000000000000000000000000000000000000000000000073ffffffffffffffffffffffffffffffffffffffff166311479fea868686866040518563ffffffff1660e01b81526004016112f894939291906120b9565b60206040518083038186803b15801561131057600080fd5b505afa158015611324573d6000803e3d6000fd5b505050506040513d601f19601f820116820180604052508101906113489190611dea565b151514611381576040517f09bde33900000000000000000000000000000000000000000000000000000000815260040160405180910390fd5b60011515600460003373ffffffffffffffffffffffffffffffffffffffff1673ffffffffffffffffffffffffffffffffffffffff16815260200190815260200160002060020160009054906101000a900460ff161515141561140f576040517f7312e43a00000000000000000000000000000000000000000000000000000000815260040160405180910390fd5b6000600360003373ffffffffffffffffffffffffffffffffffffffff1673ffffffffffffffffffffffffffffffffffffffff1681526020019081526020016000209050600015158160040160009054906101000a900460ff16151514156114a2576040517f82c4767b00000000000000000000000000000000000000000000000000000000815260040160405180910390fd5b816000600381106114dc577f4e487b7100000000000000000000000000000000000000000000000000000000600052603260045260246000fd5b602002015181600201541461151d576040517ff80f144500000000000000000000000000000000000000000000000000000000815260040160405180910390fd5b81600160038110611557577f4e487b7100000000000000000000000000000000000000000000000000000000600052603260045260246000fd5b602002015181600201819055508160026003811061159e577f4e487b7100000000000000000000000000000000000000000000000000000000600052603260045260246000fd5b6020020151816003018190555060048160010160008282546115c0919061236a565b925050819055506008816001015410156115de576115dd336116dd565b5b600115153373ffffffffffffffffffffffffffffffffffffffff167fec69a90467aaa43beb6a73755fe1b4c7fbddd7890fb1f7fa700f79289d0ba19460405160405180910390a35050505050565b7f000000000000000000000000000000000000000000000000000000000000000081565b60008080549050905090565b60026020528060005260406000206000915090505481565b60015481565b60036020528060005260406000206000915090508060000160009054906101000a900473ffffffffffffffffffffffffffffffffffffffff16908060010154908060020154908060030154908060040160009054906101000a900460ff16905085565b60011515600360008373ffffffffffffffffffffffffffffffffffffffff1673ffffffffffffffffffffffffffffffffffffffff16815260200190815260200160002060040160009054906101000a900460ff1615151415611ac8576000600160008054905061174d919061236a565b81548110611784577f4e487b7100000000000000000000000000000000000000000000000000000000600052603260045260246000fd5b9060005260206000200160009054906101000a900473ffffffffffffffffffffffffffffffffffffffff1660006001600260008573ffffffffffffffffffffffffffffffffffffffff1673ffffffffffffffffffffffffffffffffffffffff168152602001908152602001600020546117fd919061236a565b81548110611834577f4e487b7100000000000000000000000000000000000000000000000000000000600052603260045260246000fd5b9060005260206000200160006101000a81548173ffffffffffffffffffffffffffffffffffffffff021916908373ffffffffffffffffffffffffffffffffffffffff160217905550600260008273ffffffffffffffffffffffffffffffffffffffff1673ffffffffffffffffffffffffffffffffffffffff16815260200190815260200160002054600260008060016000805490506118d3919061236a565b8154811061190a577f4e487b7100000000000000000000000000000000000000000000000000000000600052603260045260246000fd5b9060005260206000200160009054906101000a900473ffffffffffffffffffffffffffffffffffffffff1673ffffffffffffffffffffffffffffffffffffffff1673ffffffffffffffffffffffffffffffffffffffff1681526020019081526020016000208190555060008054806119ab577f4e487b7100000000000000000000000000000000000000000000000000000000600052603160045260246000fd5b6001900381819060005260206000200160006101000a81549073ffffffffffffffffffffffffffffffffffffffff021916905590556000600260008373ffffffffffffffffffffffffffffffffffffffff1673ffffffffffffffffffffffffffffffffffffffff168152602001908152602001600020819055506000600360008373ffffffffffffffffffffffffffffffffffffffff1673ffffffffffffffffffffffffffffffffffffffff16815260200190815260200160002060040160006101000a81548160ff021916908315150217905550600115158173ffffffffffffffffffffffffffffffffffffffff167faf49dd0a67bbfaa0c41e857276401ad0e77d435e19c85cfa21ffafcbb11f7a6b60405160405180910390a35b50565b6000611ade611ad984612185565b612160565b90508082856040860282011115611af457600080fd5b60005b85811015611b245781611b0a8882611c30565b845260208401935060408301925050600181019050611af7565b5050509392505050565b6000611b41611b3c846121ab565b612160565b90508082856020860282011115611b5757600080fd5b60005b85811015611b875781611b6d8882611c93565b845260208401935060208301925050600181019050611b5a565b5050509392505050565b6000611ba4611b9f846121d1565b612160565b90508082856020860282011115611bba57600080fd5b60005b85811015611bea5781611bd08882611c93565b845260208401935060208301925050600181019050611bbd565b5050509392505050565b600081359050611c03816124b5565b92915050565b600082601f830112611c1a57600080fd5b6002611c27848285611acb565b91505092915050565b600082601f830112611c4157600080fd5b6002611c4e848285611b2e565b91505092915050565b600082601f830112611c6857600080fd5b6003611c75848285611b91565b91505092915050565b600081519050611c8d816124cc565b92915050565b600081359050611ca2816124e3565b92915050565b600060208284031215611cba57600080fd5b6000611cc884828501611bf4565b91505092915050565b600080600060608486031215611ce657600080fd5b6000611cf486828701611bf4565b9350506020611d0586828701611c93565b9250506040611d1686828701611c93565b9150509250925092565b6000806000806101408587031215611d3757600080fd5b6000611d4587828801611c30565b9450506040611d5687828801611c09565b93505060c0611d6787828801611c30565b925050610100611d7987828801611c30565b91505092959194509250565b6000806000806101608587031215611d9c57600080fd5b6000611daa87828801611c30565b9450506040611dbb87828801611c09565b93505060c0611dcc87828801611c30565b925050610100611dde87828801611c57565b91505092959194509250565b600060208284031215611dfc57600080fd5b6000611e0a84828501611c7e565b91505092915050565b600060208284031215611e2557600080fd5b6000611e3384828501611c93565b91505092915050565b6000611e488383611ed2565b60408301905092915050565b6000611e608383611fe6565b60208301905092915050565b611e758161239e565b82525050565b611e8481612215565b611e8e818461225d565b9250611e99826121f7565b8060005b83811015611eca578151611eb18782611e3c565b9650611ebc83612236565b925050600181019050611e9d565b505050505050565b611edb81612220565b611ee58184612268565b9250611ef082612201565b8060005b83811015611f21578151611f088782611e54565b9650611f1383612243565b925050600181019050611ef4565b505050505050565b611f3281612220565b611f3c8184612273565b9250611f4782612201565b8060005b83811015611f78578151611f5f8782611e54565b9650611f6a83612243565b925050600181019050611f4b565b505050505050565b611f898161222b565b611f93818461227e565b9250611f9e8261220b565b8060005b83811015611fcf578151611fb68782611e54565b9650611fc183612250565b925050600181019050611fa2565b505050505050565b611fe0816123b0565b82525050565b611fef816123dc565b82525050565b611ffe816123dc565b82525050565b60006020820190506120196000830184611e6c565b92915050565b600060a0820190506120346000830188611e6c565b6120416020830187611ff5565b61204e6040830186611ff5565b61205b6060830185611ff5565b6120686080830184611fd7565b9695505050505050565b6000610140820190506120886000830187611f29565b6120956040830186611e7b565b6120a260c0830185611f29565b6120b0610100830184611f29565b95945050505050565b6000610160820190506120cf6000830187611f29565b6120dc6040830186611e7b565b6120e960c0830185611f29565b6120f7610100830184611f80565b95945050505050565b60006020820190506121156000830184611ff5565b92915050565b60006080820190506121306000830187611ff5565b61213d6020830186611ff5565b61214a6040830185611fd7565b6121576060830184611e6c565b95945050505050565b600061216a61217b565b905061217682826123e6565b919050565b6000604051905090565b600067ffffffffffffffff8211156121a05761219f612475565b5b602082029050919050565b600067ffffffffffffffff8211156121c6576121c5612475565b5b602082029050919050565b600067ffffffffffffffff8211156121ec576121eb612475565b5b602082029050919050565b6000819050919050565b6000819050919050565b6000819050919050565b600060029050919050565b600060029050919050565b600060039050919050565b6000602082019050919050565b6000602082019050919050565b6000602082019050919050565b600081905092915050565b600081905092915050565b600081905092915050565b600081905092915050565b6000612294826123dc565b915061229f836123dc565b9250827fffffffffffffffffffffffffffffffffffffffffffffffffffffffffffffffff038211156122d4576122d3612417565b5b828201905092915050565b60006122ea826123dc565b91506122f5836123dc565b92508261230557612304612446565b5b828204905092915050565b600061231b826123dc565b9150612326836123dc565b9250817fffffffffffffffffffffffffffffffffffffffffffffffffffffffffffffffff048311821515161561235f5761235e612417565b5b828202905092915050565b6000612375826123dc565b9150612380836123dc565b92508282101561239357612392612417565b5b828203905092915050565b60006123a9826123bc565b9050919050565b60008115159050919050565b600073ffffffffffffffffffffffffffffffffffffffff82169050919050565b6000819050919050565b6123ef826124a4565b810181811067ffffffffffffffff8211171561240e5761240d612475565b5b80604052505050565b7f4e487b7100000000000000000000000000000000000000000000000000000000600052601160045260246000fd5b7f4e487b7100000000000000000000000000000000000000000000000000000000600052601260045260246000fd5b7f4e487b7100000000000000000000000000000000000000000000000000000000600052604160045260246000fd5b6000601f19601f8301169050919050565b6124be8161239e565b81146124c957600080fd5b50565b6124d5816123b0565b81146124e057600080fd5b50565b6124ec816123dc565b81146124f757600080fd5b5056fea26469706673582212206cde47bf23503a9033c90c6a59b03ee7e46d20c46bd32aeb4c85d9069e66cfaa64736f6c63430008040033",
  "linkReferences": {},
  "deployedLinkReferences": {}
}