{
  "_format": "hh-sol-artifact-1",
  "contractName": "Footsteps",
  "sourceName": "contracts/Game.sol",
  "abi": [
    {
      "inputs": [
        {
          "internalType": "address",
          "name": "_registerverifier",
          "type": "address"
        },
        {
          "internalType": "address",
          "name": "_moveverifier",
          "type": "address"
        },
        {
          "internalType": "address",
          "name": "_defendverifier",
          "type": "address"
        }
      ],
      "stateMutability": "payable",
      "type": "constructor"
    },
    {
      "inputs": [
        {
          "internalType": "address",
          "name": "player",
          "type": "address"
        }
      ],
      "name": "AlreadyRegistered",
      "type": "error"
    },
    {
      "inputs": [],
      "name": "Cheater",
      "type": "error"
    },
    {
      "inputs": [],
      "name": "Dead",
      "type": "error"
    },
    {
      "inputs": [],
      "name": "DefendFirst",
      "type": "error"
    },
    {
      "inputs": [],
      "name": "InvalidLocation",
      "type": "error"
    },
    {
      "inputs": [],
      "name": "InvalidProof",
      "type": "error"
    },
    {
      "inputs": [],
      "name": "NoAttack",
      "type": "error"
    },
    {
      "inputs": [],
      "name": "WrongGuess",
      "type": "error"
    },
    {
      "inputs": [],
      "name": "ZombiesNotAllowed",
      "type": "error"
    },
    {
      "anonymous": false,
      "inputs": [
        {
          "indexed": true,
          "internalType": "address",
          "name": "attacker",
          "type": "address"
        },
        {
          "indexed": true,
          "internalType": "address",
          "name": "victim",
          "type": "address"
        }
      ],
      "name": "attack",
      "type": "event"
    },
    {
      "anonymous": false,
      "inputs": [
        {
          "indexed": true,
          "internalType": "address",
          "name": "player",
          "type": "address"
        },
        {
          "indexed": true,
          "internalType": "bool",
          "name": "deadornot",
          "type": "bool"
        }
      ],
      "name": "dead",
      "type": "event"
    },
    {
      "anonymous": false,
      "inputs": [
        {
          "indexed": true,
          "internalType": "address",
          "name": "gained",
          "type": "address"
        }
      ],
      "name": "defend",
      "type": "event"
    },
    {
      "anonymous": false,
      "inputs": [
        {
          "indexed": true,
          "internalType": "address",
          "name": "player",
          "type": "address"
        },
        {
          "indexed": true,
          "internalType": "bool",
          "name": "moved",
          "type": "bool"
        }
      ],
      "name": "move",
      "type": "event"
    },
    {
      "anonymous": false,
      "inputs": [
        {
          "indexed": true,
          "internalType": "address",
          "name": "player",
          "type": "address"
        },
        {
          "indexed": true,
          "internalType": "bool",
          "name": "registered",
          "type": "bool"
        }
      ],
      "name": "register",
      "type": "event"
    },
    {
      "inputs": [
        {
          "internalType": "address",
          "name": "player",
          "type": "address"
        },
        {
          "internalType": "uint256",
          "name": "x",
          "type": "uint256"
        },
        {
          "internalType": "uint256",
          "name": "y",
          "type": "uint256"
        }
      ],
      "name": "AttackPlayer",
      "outputs": [],
      "stateMutability": "nonpayable",
      "type": "function"
    },
    {
      "inputs": [
        {
          "internalType": "uint256[2]",
          "name": "a",
          "type": "uint256[2]"
        },
        {
          "internalType": "uint256[2][2]",
          "name": "b",
          "type": "uint256[2][2]"
        },
        {
          "internalType": "uint256[2]",
          "name": "c",
          "type": "uint256[2]"
        },
        {
          "internalType": "uint256[3]",
          "name": "input",
          "type": "uint256[3]"
        }
      ],
      "name": "Defend",
      "outputs": [],
      "stateMutability": "nonpayable",
      "type": "function"
    },
    {
      "inputs": [
        {
          "internalType": "address",
          "name": "",
          "type": "address"
        }
      ],
      "name": "Id",
      "outputs": [
        {
          "internalType": "uint256",
          "name": "",
          "type": "uint256"
        }
      ],
      "stateMutability": "view",
      "type": "function"
    },
    {
      "inputs": [
        {
          "internalType": "uint256[2]",
          "name": "a",
          "type": "uint256[2]"
        },
        {
          "internalType": "uint256[2][2]",
          "name": "b",
          "type": "uint256[2][2]"
        },
        {
          "internalType": "uint256[2]",
          "name": "c",
          "type": "uint256[2]"
        },
        {
          "internalType": "uint256[3]",
          "name": "input",
          "type": "uint256[3]"
        }
      ],
      "name": "Move",
      "outputs": [],
      "stateMutability": "nonpayable",
      "type": "function"
    },
    {
      "inputs": [],
      "name": "Quit",
      "outputs": [],
      "stateMutability": "nonpayable",
      "type": "function"
    },
    {
      "inputs": [
        {
          "internalType": "uint256[2]",
          "name": "a",
          "type": "uint256[2]"
        },
        {
          "internalType": "uint256[2][2]",
          "name": "b",
          "type": "uint256[2][2]"
        },
        {
          "internalType": "uint256[2]",
          "name": "c",
          "type": "uint256[2]"
        },
        {
          "internalType": "uint256[2]",
          "name": "input",
          "type": "uint256[2]"
        }
      ],
      "name": "Register",
      "outputs": [],
      "stateMutability": "nonpayable",
      "type": "function"
    },
    {
      "inputs": [],
      "name": "TotalPlayers",
      "outputs": [
        {
          "internalType": "uint256",
          "name": "",
          "type": "uint256"
        }
      ],
      "stateMutability": "view",
      "type": "function"
    },
    {
      "inputs": [
        {
          "internalType": "uint256",
          "name": "",
          "type": "uint256"
        }
      ],
      "name": "activeplayers",
      "outputs": [
        {
          "internalType": "address",
          "name": "",
          "type": "address"
        }
      ],
      "stateMutability": "view",
      "type": "function"
    },
    {
      "inputs": [
        {
          "internalType": "address",
          "name": "",
          "type": "address"
        }
      ],
      "name": "attacks",
      "outputs": [
        {
          "internalType": "uint256",
          "name": "xguess",
          "type": "uint256"
        },
        {
          "internalType": "uint256",
          "name": "yguess",
          "type": "uint256"
        },
        {
          "internalType": "bool",
          "name": "active",
          "type": "bool"
        },
        {
          "internalType": "address",
          "name": "attacker",
          "type": "address"
        }
      ],
      "stateMutability": "view",
      "type": "function"
    },
    {
      "inputs": [],
      "name": "moveverifier",
      "outputs": [
        {
          "internalType": "address",
          "name": "",
          "type": "address"
        }
      ],
      "stateMutability": "view",
      "type": "function"
    },
    {
      "inputs": [],
      "name": "playerid",
      "outputs": [
        {
          "internalType": "uint256",
          "name": "",
          "type": "uint256"
        }
      ],
      "stateMutability": "view",
      "type": "function"
    },
    {
      "inputs": [
        {
          "internalType": "address",
          "name": "",
          "type": "address"
        }
      ],
      "name": "players",
      "outputs": [
        {
          "internalType": "address",
          "name": "player",
          "type": "address"
        },
        {
          "internalType": "uint256",
          "name": "health",
          "type": "uint256"
        },
        {
          "internalType": "uint256",
          "name": "location",
          "type": "uint256"
        },
        {
          "internalType": "uint256",
          "name": "zone",
          "type": "uint256"
        },
        {
          "internalType": "bool",
          "name": "alive",
          "type": "bool"
        }
      ],
      "stateMutability": "view",
      "type": "function"
    },
    {
      "inputs": [],
      "name": "registerverifier",
      "outputs": [
        {
          "internalType": "address",
          "name": "",
          "type": "address"
        }
      ],
      "stateMutability": "view",
      "type": "function"
    },
    {
      "inputs": [],
      "name": "verifierdefend",
      "outputs": [
        {
          "internalType": "address",
          "name": "",
          "type": "address"
        }
      ],
      "stateMutability": "view",
      "type": "function"
    }
  ],
  "bytecode": "0x60e060405260018055604051620027723803806200277283398181016040528101906200002d9190620000f2565b8273ffffffffffffffffffffffffffffffffffffffff1660808173ffffffffffffffffffffffffffffffffffffffff1660601b815250508173ffffffffffffffffffffffffffffffffffffffff1660a08173ffffffffffffffffffffffffffffffffffffffff1660601b815250508073ffffffffffffffffffffffffffffffffffffffff1660c08173ffffffffffffffffffffffffffffffffffffffff1660601b8152505050505062000196565b600081519050620000ec816200017c565b92915050565b6000806000606084860312156200010857600080fd5b60006200011886828701620000db565b93505060206200012b86828701620000db565b92505060406200013e86828701620000db565b9150509250925092565b600062000155826200015c565b9050919050565b600073ffffffffffffffffffffffffffffffffffffffff82169050919050565b620001878162000148565b81146200019357600080fd5b50565b60805160601c60a05160601c60c05160601c61258e620001e46000396000818161093d015261164301526000818161032501526112b00152600081816103eb0152610413015261258e6000f3fe608060405234801561001057600080fd5b50600436106100ea5760003560e01c80638ce635de1161008c578063d1d0086611610066578063d1d0086614610226578063dba93c0f14610244578063dce41b7e14610274578063e2eb41ff14610292576100ea565b80638ce635de146101d05780638df07ee4146101ec578063b53c99f614610208576100ea565b8063318e8b30116100c8578063318e8b301461014a5780634081b7721461016857806349ee8387146101845780638b812ae1146101b4576100ea565b806306e78130146100ef5780630e331afa146101225780630f1bbc0f14610140575b600080fd5b61010960048036038101906101049190611cbd565b6102c6565b6040516101199493929190612130565b60405180910390f35b61012a610323565b6040516101379190612019565b60405180910390f35b610148610347565b005b6101526103e9565b60405161015f9190612019565b60405180910390f35b610182600480360381019061017d9190611d35565b61040d565b005b61019e60048036038101906101999190611e28565b6108f8565b6040516101ab9190612019565b60405180910390f35b6101ce60048036038101906101c99190611d9a565b610937565b005b6101ea60048036038101906101e59190611ce6565b610f89565b005b61020660048036038101906102019190611d9a565b6112aa565b005b610210611641565b60405161021d9190612019565b60405180910390f35b61022e611665565b60405161023b9190612115565b60405180910390f35b61025e60048036038101906102599190611cbd565b611671565b60405161026b9190612115565b60405180910390f35b61027c611689565b6040516102899190612115565b60405180910390f35b6102ac60048036038101906102a79190611cbd565b61168f565b6040516102bd959493929190612034565b60405180910390f35b60046020528060005260406000206000915090508060000154908060010154908060020160009054906101000a900460ff16908060020160019054906101000a900473ffffffffffffffffffffffffffffffffffffffff16905084565b7f000000000000000000000000000000000000000000000000000000000000000081565b600360003373ffffffffffffffffffffffffffffffffffffffff1673ffffffffffffffffffffffffffffffffffffffff16815260200190815260200160002060000160009054906101000a900473ffffffffffffffffffffffffffffffffffffffff1673ffffffffffffffffffffffffffffffffffffffff163373ffffffffffffffffffffffffffffffffffffffff1614156103e7576103e6336116f2565b5b565b7f000000000000000000000000000000000000000000000000000000000000000081565b600115157f000000000000000000000000000000000000000000000000000000000000000073ffffffffffffffffffffffffffffffffffffffff1663f5c9d69e868686866040518563ffffffff1660e01b81526004016104709493929190612087565b60206040518083038186803b15801561048857600080fd5b505afa15801561049c573d6000803e3d6000fd5b505050506040513d601f19601f820116820180604052508101906104c09190611dff565b1515146104f9576040517f09bde33900000000000000000000000000000000000000000000000000000000815260040160405180910390fd5b6000600360003373ffffffffffffffffffffffffffffffffffffffff1673ffffffffffffffffffffffffffffffffffffffff1681526020019081526020016000206040518060a00160405290816000820160009054906101000a900473ffffffffffffffffffffffffffffffffffffffff1673ffffffffffffffffffffffffffffffffffffffff1673ffffffffffffffffffffffffffffffffffffffff1681526020016001820154815260200160028201548152602001600382015481526020016004820160009054906101000a900460ff16151515158152505090503373ffffffffffffffffffffffffffffffffffffffff16816000015173ffffffffffffffffffffffffffffffffffffffff1614801561061d57506001151581608001511515145b1561065f57336040517f45ed80e90000000000000000000000000000000000000000000000000000000081526004016106569190612019565b60405180910390fd5b60006040518060a001604052803373ffffffffffffffffffffffffffffffffffffffff16815260200160648152602001846000600281106106c9577f4e487b7100000000000000000000000000000000000000000000000000000000600052603260045260246000fd5b602002015181526020018460016002811061070d577f4e487b7100000000000000000000000000000000000000000000000000000000600052603260045260246000fd5b6020020151815260200160011515815250905080600360003373ffffffffffffffffffffffffffffffffffffffff1673ffffffffffffffffffffffffffffffffffffffff16815260200190815260200160002060008201518160000160006101000a81548173ffffffffffffffffffffffffffffffffffffffff021916908373ffffffffffffffffffffffffffffffffffffffff16021790555060208201518160010155604082015181600201556060820151816003015560808201518160040160006101000a81548160ff021916908315150217905550905050600154600260003373ffffffffffffffffffffffffffffffffffffffff1673ffffffffffffffffffffffffffffffffffffffff168152602001908152602001600020819055506000339080600181540180825580915050600190039060005260206000200160009091909190916101000a81548173ffffffffffffffffffffffffffffffffffffffff021916908373ffffffffffffffffffffffffffffffffffffffff160217905550600160008154809291906108a49061242c565b9190505550600115153373ffffffffffffffffffffffffffffffffffffffff167fab01b4692bd902b4859dc270e9c93f448cea806bbd1a2d031219e834ccd0755460405160405180910390a3505050505050565b6000818154811061090857600080fd5b906000526020600020016000915054906101000a900473ffffffffffffffffffffffffffffffffffffffff1681565b600115157f000000000000000000000000000000000000000000000000000000000000000073ffffffffffffffffffffffffffffffffffffffff166311479fea868686866040518563ffffffff1660e01b815260040161099a94939291906120ce565b60206040518083038186803b1580156109b257600080fd5b505afa1580156109c6573d6000803e3d6000fd5b505050506040513d601f19601f820116820180604052508101906109ea9190611dff565b151514610a23576040517f09bde33900000000000000000000000000000000000000000000000000000000815260040160405180910390fd5b6008600360003373ffffffffffffffffffffffffffffffffffffffff1673ffffffffffffffffffffffffffffffffffffffff168152602001908152602001600020600101541015610aa0576040517f82c4767b00000000000000000000000000000000000000000000000000000000815260040160405180910390fd5b6000600360003373ffffffffffffffffffffffffffffffffffffffff1673ffffffffffffffffffffffffffffffffffffffff16815260200190815260200160002090506000600460003373ffffffffffffffffffffffffffffffffffffffff1673ffffffffffffffffffffffffffffffffffffffff16815260200190815260200160002090506000600360008360020160019054906101000a900473ffffffffffffffffffffffffffffffffffffffff1673ffffffffffffffffffffffffffffffffffffffff1673ffffffffffffffffffffffffffffffffffffffff1681526020019081526020016000209050600015158260020160009054906101000a900460ff1615151415610bdd576040517f83df6c5400000000000000000000000000000000000000000000000000000000815260040160405180910390fd5b826002015484600060038110610c1c577f4e487b7100000000000000000000000000000000000000000000000000000000600052603260045260246000fd5b602002015114610c58576040517f0d54d5cf00000000000000000000000000000000000000000000000000000000815260040160405180910390fd5b816000015484600160038110610c97577f4e487b7100000000000000000000000000000000000000000000000000000000600052603260045260246000fd5b602002015114610cd3576040517fe387c80000000000000000000000000000000000000000000000000000000000815260040160405180910390fd5b816001015484600260038110610d12577f4e487b7100000000000000000000000000000000000000000000000000000000600052603260045260246000fd5b602002015114610d4e576040517fe387c80000000000000000000000000000000000000000000000000000000000815260040160405180910390fd5b600115158260020160009054906101000a900460ff1615151415610f2e57806001015483600101541115610e315760058160010154610d8d91906122f4565b836001016000828254610da0919061229e565b92505081905550600460058260010154610dba91906122f4565b610dc49190612325565b816001018190555060008260020160006101000a81548160ff0219169083151502179055503373ffffffffffffffffffffffffffffffffffffffff167fa63f44fcd523408034594e29915d3d6c5c388867dca5295ddce796dd892b7f9560405160405180910390a2610f2d565b806001015483600101541415610e635760008260020160006101000a81548160ff021916908315150217905550610f2c565b60028360010154610e7491906122f4565b816001016000828254610e87919061229e565b9250508190555060028360010154610e9f91906122f4565b836001018190555060008260020160006101000a81548160ff0219169083151502179055508060000160009054906101000a900473ffffffffffffffffffffffffffffffffffffffff1673ffffffffffffffffffffffffffffffffffffffff167fa63f44fcd523408034594e29915d3d6c5c388867dca5295ddce796dd892b7f9560405160405180910390a25b5b5b600883600101541015610f4557610f44336116f2565b5b600881600101541015610f8057610f7f8260020160019054906101000a900473ffffffffffffffffffffffffffffffffffffffff166116f2565b5b50505050505050565b60001515600360003373ffffffffffffffffffffffffffffffffffffffff1673ffffffffffffffffffffffffffffffffffffffff16815260200190815260200160002060040160009054906101000a900460ff1615151415611017576040517f82c4767b00000000000000000000000000000000000000000000000000000000815260040160405180910390fd5b60001515600360008573ffffffffffffffffffffffffffffffffffffffff1673ffffffffffffffffffffffffffffffffffffffff16815260200190815260200160002060040160009054906101000a900460ff16151514156110a5576040517f42a900fa00000000000000000000000000000000000000000000000000000000815260040160405180910390fd5b60405180608001604052808381526020018281526020016001151581526020013373ffffffffffffffffffffffffffffffffffffffff16815250600460008573ffffffffffffffffffffffffffffffffffffffff1673ffffffffffffffffffffffffffffffffffffffff168152602001908152602001600020600082015181600001556020820151816001015560408201518160020160006101000a81548160ff02191690831515021790555060608201518160020160016101000a81548173ffffffffffffffffffffffffffffffffffffffff021916908373ffffffffffffffffffffffffffffffffffffffff1602179055509050506008600360003373ffffffffffffffffffffffffffffffffffffffff1673ffffffffffffffffffffffffffffffffffffffff16815260200190815260200160002060010160008282546111ef919061237f565b925050819055506008600360003373ffffffffffffffffffffffffffffffffffffffff1673ffffffffffffffffffffffffffffffffffffffff16815260200190815260200160002060010154101561124b5761124a336116f2565b5b8273ffffffffffffffffffffffffffffffffffffffff163373ffffffffffffffffffffffffffffffffffffffff167f3c48664cb6fd3ecd632fdd260eb37601c11dc687890c2457b67aedb8a46c051e60405160405180910390a3505050565b600115157f000000000000000000000000000000000000000000000000000000000000000073ffffffffffffffffffffffffffffffffffffffff166311479fea868686866040518563ffffffff1660e01b815260040161130d94939291906120ce565b60206040518083038186803b15801561132557600080fd5b505afa158015611339573d6000803e3d6000fd5b505050506040513d601f19601f8201168201806040525081019061135d9190611dff565b151514611396576040517f09bde33900000000000000000000000000000000000000000000000000000000815260040160405180910390fd5b60011515600460003373ffffffffffffffffffffffffffffffffffffffff1673ffffffffffffffffffffffffffffffffffffffff16815260200190815260200160002060020160009054906101000a900460ff1615151415611424576040517f7312e43a00000000000000000000000000000000000000000000000000000000815260040160405180910390fd5b6000600360003373ffffffffffffffffffffffffffffffffffffffff1673ffffffffffffffffffffffffffffffffffffffff1681526020019081526020016000209050600015158160040160009054906101000a900460ff16151514156114b7576040517f82c4767b00000000000000000000000000000000000000000000000000000000815260040160405180910390fd5b816000600381106114f1577f4e487b7100000000000000000000000000000000000000000000000000000000600052603260045260246000fd5b6020020151816002015414611532576040517ff80f144500000000000000000000000000000000000000000000000000000000815260040160405180910390fd5b8160016003811061156c577f4e487b7100000000000000000000000000000000000000000000000000000000600052603260045260246000fd5b60200201518160020181905550816002600381106115b3577f4e487b7100000000000000000000000000000000000000000000000000000000600052603260045260246000fd5b6020020151816003018190555060048160010160008282546115d5919061237f565b925050819055506008816001015410156115f3576115f2336116f2565b5b600115153373ffffffffffffffffffffffffffffffffffffffff167fec69a90467aaa43beb6a73755fe1b4c7fbddd7890fb1f7fa700f79289d0ba19460405160405180910390a35050505050565b7f000000000000000000000000000000000000000000000000000000000000000081565b60008080549050905090565b60026020528060005260406000206000915090505481565b60015481565b60036020528060005260406000206000915090508060000160009054906101000a900473ffffffffffffffffffffffffffffffffffffffff16908060010154908060020154908060030154908060040160009054906101000a900460ff16905085565b60011515600360008373ffffffffffffffffffffffffffffffffffffffff1673ffffffffffffffffffffffffffffffffffffffff16815260200190815260200160002060040160009054906101000a900460ff1615151415611add5760006001600080549050611762919061237f565b81548110611799577f4e487b7100000000000000000000000000000000000000000000000000000000600052603260045260246000fd5b9060005260206000200160009054906101000a900473ffffffffffffffffffffffffffffffffffffffff1660006001600260008573ffffffffffffffffffffffffffffffffffffffff1673ffffffffffffffffffffffffffffffffffffffff16815260200190815260200160002054611812919061237f565b81548110611849577f4e487b7100000000000000000000000000000000000000000000000000000000600052603260045260246000fd5b9060005260206000200160006101000a81548173ffffffffffffffffffffffffffffffffffffffff021916908373ffffffffffffffffffffffffffffffffffffffff160217905550600260008273ffffffffffffffffffffffffffffffffffffffff1673ffffffffffffffffffffffffffffffffffffffff16815260200190815260200160002054600260008060016000805490506118e8919061237f565b8154811061191f577f4e487b7100000000000000000000000000000000000000000000000000000000600052603260045260246000fd5b9060005260206000200160009054906101000a900473ffffffffffffffffffffffffffffffffffffffff1673ffffffffffffffffffffffffffffffffffffffff1673ffffffffffffffffffffffffffffffffffffffff1681526020019081526020016000208190555060008054806119c0577f4e487b7100000000000000000000000000000000000000000000000000000000600052603160045260246000fd5b6001900381819060005260206000200160006101000a81549073ffffffffffffffffffffffffffffffffffffffff021916905590556000600260008373ffffffffffffffffffffffffffffffffffffffff1673ffffffffffffffffffffffffffffffffffffffff168152602001908152602001600020819055506000600360008373ffffffffffffffffffffffffffffffffffffffff1673ffffffffffffffffffffffffffffffffffffffff16815260200190815260200160002060040160006101000a81548160ff021916908315150217905550600115158173ffffffffffffffffffffffffffffffffffffffff167faf49dd0a67bbfaa0c41e857276401ad0e77d435e19c85cfa21ffafcbb11f7a6b60405160405180910390a35b50565b6000611af3611aee8461219a565b612175565b90508082856040860282011115611b0957600080fd5b60005b85811015611b395781611b1f8882611c45565b845260208401935060408301925050600181019050611b0c565b5050509392505050565b6000611b56611b51846121c0565b612175565b90508082856020860282011115611b6c57600080fd5b60005b85811015611b9c5781611b828882611ca8565b845260208401935060208301925050600181019050611b6f565b5050509392505050565b6000611bb9611bb4846121e6565b612175565b90508082856020860282011115611bcf57600080fd5b60005b85811015611bff5781611be58882611ca8565b845260208401935060208301925050600181019050611bd2565b5050509392505050565b600081359050611c1881612513565b92915050565b600082601f830112611c2f57600080fd5b6002611c3c848285611ae0565b91505092915050565b600082601f830112611c5657600080fd5b6002611c63848285611b43565b91505092915050565b600082601f830112611c7d57600080fd5b6003611c8a848285611ba6565b91505092915050565b600081519050611ca28161252a565b92915050565b600081359050611cb781612541565b92915050565b600060208284031215611ccf57600080fd5b6000611cdd84828501611c09565b91505092915050565b600080600060608486031215611cfb57600080fd5b6000611d0986828701611c09565b9350506020611d1a86828701611ca8565b9250506040611d2b86828701611ca8565b9150509250925092565b6000806000806101408587031215611d4c57600080fd5b6000611d5a87828801611c45565b9450506040611d6b87828801611c1e565b93505060c0611d7c87828801611c45565b925050610100611d8e87828801611c45565b91505092959194509250565b6000806000806101608587031215611db157600080fd5b6000611dbf87828801611c45565b9450506040611dd087828801611c1e565b93505060c0611de187828801611c45565b925050610100611df387828801611c6c565b91505092959194509250565b600060208284031215611e1157600080fd5b6000611e1f84828501611c93565b91505092915050565b600060208284031215611e3a57600080fd5b6000611e4884828501611ca8565b91505092915050565b6000611e5d8383611ee7565b60408301905092915050565b6000611e758383611ffb565b60208301905092915050565b611e8a816123b3565b82525050565b611e998161222a565b611ea38184612272565b9250611eae8261220c565b8060005b83811015611edf578151611ec68782611e51565b9650611ed18361224b565b925050600181019050611eb2565b505050505050565b611ef081612235565b611efa818461227d565b9250611f0582612216565b8060005b83811015611f36578151611f1d8782611e69565b9650611f2883612258565b925050600181019050611f09565b505050505050565b611f4781612235565b611f518184612288565b9250611f5c82612216565b8060005b83811015611f8d578151611f748782611e69565b9650611f7f83612258565b925050600181019050611f60565b505050505050565b611f9e81612240565b611fa88184612293565b9250611fb382612220565b8060005b83811015611fe4578151611fcb8782611e69565b9650611fd683612265565b925050600181019050611fb7565b505050505050565b611ff5816123c5565b82525050565b612004816123f1565b82525050565b612013816123f1565b82525050565b600060208201905061202e6000830184611e81565b92915050565b600060a0820190506120496000830188611e81565b612056602083018761200a565b612063604083018661200a565b612070606083018561200a565b61207d6080830184611fec565b9695505050505050565b60006101408201905061209d6000830187611f3e565b6120aa6040830186611e90565b6120b760c0830185611f3e565b6120c5610100830184611f3e565b95945050505050565b6000610160820190506120e46000830187611f3e565b6120f16040830186611e90565b6120fe60c0830185611f3e565b61210c610100830184611f95565b95945050505050565b600060208201905061212a600083018461200a565b92915050565b6000608082019050612145600083018761200a565b612152602083018661200a565b61215f6040830185611fec565b61216c6060830184611e81565b95945050505050565b600061217f612190565b905061218b82826123fb565b919050565b6000604051905090565b600067ffffffffffffffff8211156121b5576121b46124d3565b5b602082029050919050565b600067ffffffffffffffff8211156121db576121da6124d3565b5b602082029050919050565b600067ffffffffffffffff821115612201576122006124d3565b5b602082029050919050565b6000819050919050565b6000819050919050565b6000819050919050565b600060029050919050565b600060029050919050565b600060039050919050565b6000602082019050919050565b6000602082019050919050565b6000602082019050919050565b600081905092915050565b600081905092915050565b600081905092915050565b600081905092915050565b60006122a9826123f1565b91506122b4836123f1565b9250827fffffffffffffffffffffffffffffffffffffffffffffffffffffffffffffffff038211156122e9576122e8612475565b5b828201905092915050565b60006122ff826123f1565b915061230a836123f1565b92508261231a576123196124a4565b5b828204905092915050565b6000612330826123f1565b915061233b836123f1565b9250817fffffffffffffffffffffffffffffffffffffffffffffffffffffffffffffffff048311821515161561237457612373612475565b5b828202905092915050565b600061238a826123f1565b9150612395836123f1565b9250828210156123a8576123a7612475565b5b828203905092915050565b60006123be826123d1565b9050919050565b60008115159050919050565b600073ffffffffffffffffffffffffffffffffffffffff82169050919050565b6000819050919050565b61240482612502565b810181811067ffffffffffffffff82111715612423576124226124d3565b5b80604052505050565b6000612437826123f1565b91507fffffffffffffffffffffffffffffffffffffffffffffffffffffffffffffffff82141561246a57612469612475565b5b600182019050919050565b7f4e487b7100000000000000000000000000000000000000000000000000000000600052601160045260246000fd5b7f4e487b7100000000000000000000000000000000000000000000000000000000600052601260045260246000fd5b7f4e487b7100000000000000000000000000000000000000000000000000000000600052604160045260246000fd5b6000601f19601f8301169050919050565b61251c816123b3565b811461252757600080fd5b50565b612533816123c5565b811461253e57600080fd5b50565b61254a816123f1565b811461255557600080fd5b5056fea264697066735822122022659bcbdddda6d734cc2ba0b3645c487025b175ab986a7229f76d0ed8d368da64736f6c63430008040033",
  "linkReferences": {},
  "deployedLinkReferences": {}
}